{
	"contracts/DEFIToken.sol": {
		"DefiToken": {
			"abi": [
				{
					"inputs": [],
					"stateMutability": "nonpayable",
					"type": "constructor"
				},
				{
					"anonymous": false,
					"inputs": [
						{
							"indexed": true,
							"internalType": "address",
							"name": "_owner",
							"type": "address"
						},
						{
							"indexed": true,
							"internalType": "address",
							"name": "_spender",
							"type": "address"
						},
						{
							"indexed": false,
							"internalType": "uint256",
							"name": "_value",
							"type": "uint256"
						}
					],
					"name": "Approval",
					"type": "event"
				},
				{
					"anonymous": false,
					"inputs": [
						{
							"indexed": true,
							"internalType": "address",
							"name": "_from",
							"type": "address"
						},
						{
							"indexed": true,
							"internalType": "address",
							"name": "_to",
							"type": "address"
						},
						{
							"indexed": false,
							"internalType": "uint256",
							"name": "_value",
							"type": "uint256"
						}
					],
					"name": "Transfer",
					"type": "event"
				},
				{
					"inputs": [
						{
							"internalType": "address",
							"name": "",
							"type": "address"
						},
						{
							"internalType": "address",
							"name": "",
							"type": "address"
						}
					],
					"name": "allowance",
					"outputs": [
						{
							"internalType": "uint256",
							"name": "",
							"type": "uint256"
						}
					],
					"stateMutability": "view",
					"type": "function"
				},
				{
					"inputs": [
						{
							"internalType": "address",
							"name": "",
							"type": "address"
						}
					],
					"name": "balanceOf",
					"outputs": [
						{
							"internalType": "uint256",
							"name": "",
							"type": "uint256"
						}
					],
					"stateMutability": "view",
					"type": "function"
				},
				{
					"inputs": [],
					"name": "decimals",
					"outputs": [
						{
							"internalType": "uint8",
							"name": "",
							"type": "uint8"
						}
					],
					"stateMutability": "view",
					"type": "function"
				},
				{
					"inputs": [],
					"name": "name",
					"outputs": [
						{
							"internalType": "string",
							"name": "",
							"type": "string"
						}
					],
					"stateMutability": "view",
					"type": "function"
				},
				{
					"inputs": [],
					"name": "symbol",
					"outputs": [
						{
							"internalType": "string",
							"name": "",
							"type": "string"
						}
					],
					"stateMutability": "view",
					"type": "function"
				},
				{
					"inputs": [],
					"name": "totalSupply",
					"outputs": [
						{
							"internalType": "uint256",
							"name": "",
							"type": "uint256"
						}
					],
					"stateMutability": "view",
					"type": "function"
				},
				{
					"inputs": [
						{
							"internalType": "address",
							"name": "_to",
							"type": "address"
						},
						{
							"internalType": "uint256",
							"name": "_value",
							"type": "uint256"
						}
					],
					"name": "transfer",
					"outputs": [
						{
							"internalType": "bool",
							"name": "",
							"type": "bool"
						}
					],
					"stateMutability": "nonpayable",
					"type": "function"
				}
			],
			"devdoc": {
				"kind": "dev",
				"methods": {},
				"version": 1
			},
			"evm": {
				"assembly": "    /* \"contracts/DEFIToken.sol\":60:1036  contract DefiToken {\r... */\n  mstore(0x40, 0x80)\n    /* \"contracts/DEFIToken.sol\":108:141  string public name = \"DEFi Token\" */\n  mload(0x40)\n  dup1\n  0x40\n  add\n  0x40\n  mstore\n  dup1\n  0x0a\n  dup2\n  mstore\n  0x20\n  add\n  0x4445466920546f6b656e00000000000000000000000000000000000000000000\n  dup2\n  mstore\n  pop\n  0x00\n  swap1\n  dup1\n  mload\n  swap1\n  0x20\n  add\n  swap1\n  tag_1\n  swap3\n  swap2\n  swap1\n  tag_2\n  jump\t// in\ntag_1:\n  pop\n    /* \"contracts/DEFIToken.sol\":148:177  string public symbol = \"DEFi\" */\n  mload(0x40)\n  dup1\n  0x40\n  add\n  0x40\n  mstore\n  dup1\n  0x04\n  dup2\n  mstore\n  0x20\n  add\n  0x4445466900000000000000000000000000000000000000000000000000000000\n  dup2\n  mstore\n  pop\n  0x01\n  swap1\n  dup1\n  mload\n  swap1\n  0x20\n  add\n  swap1\n  tag_3\n  swap3\n  swap2\n  swap1\n  tag_2\n  jump\t// in\ntag_3:\n  pop\n    /* \"contracts/DEFIToken.sol\":213:237  100000000000000000000000 */\n  0x152d02c7e14af6800000\n    /* \"contracts/DEFIToken.sol\":184:237  uint256 public totalSupply = 100000000000000000000000 */\n  0x02\n  sstore\n    /* \"contracts/DEFIToken.sol\":268:270  18 */\n  0x12\n    /* \"contracts/DEFIToken.sol\":244:270  uint8 public decimals = 18 */\n  0x03\n  exp(0x0100, 0x00)\n  dup2\n  sload\n  dup2\n  0xff\n  mul\n  not\n  and\n  swap1\n  dup4\n  0xff\n  and\n  mul\n  or\n  swap1\n  sstore\n  pop\n    /* \"contracts/DEFIToken.sol\":728:796  constructor() {\r... */\n  callvalue\n  dup1\n  iszero\n  tag_4\n  jumpi\n  0x00\n  dup1\n  revert\ntag_4:\n  pop\n    /* \"contracts/DEFIToken.sol\":777:788  totalSupply */\n  sload(0x02)\n    /* \"contracts/DEFIToken.sol\":753:762  balanceOf */\n  0x04\n    /* \"contracts/DEFIToken.sol\":753:774  balanceOf[msg.sender] */\n  0x00\n    /* \"contracts/DEFIToken.sol\":763:773  msg.sender */\n  caller\n    /* \"contracts/DEFIToken.sol\":753:774  balanceOf[msg.sender] */\n  0xffffffffffffffffffffffffffffffffffffffff\n  and\n  0xffffffffffffffffffffffffffffffffffffffff\n  and\n  dup2\n  mstore\n  0x20\n  add\n  swap1\n  dup2\n  mstore\n  0x20\n  add\n  0x00\n  keccak256\n    /* \"contracts/DEFIToken.sol\":753:788  balanceOf[msg.sender] = totalSupply */\n  dup2\n  swap1\n  sstore\n  pop\n    /* \"contracts/DEFIToken.sol\":60:1036  contract DefiToken {\r... */\n  jump(tag_7)\ntag_2:\n  dup3\n  dup1\n  sload\n  tag_8\n  swap1\n  tag_9\n  jump\t// in\ntag_8:\n  swap1\n  0x00\n  mstore\n  keccak256(0x00, 0x20)\n  swap1\n  0x1f\n  add\n  0x20\n  swap1\n  div\n  dup2\n  add\n  swap3\n  dup3\n  tag_11\n  jumpi\n  0x00\n  dup6\n  sstore\n  jump(tag_10)\ntag_11:\n  dup3\n  0x1f\n  lt\n  tag_12\n  jumpi\n  dup1\n  mload\n  not(0xff)\n  and\n  dup4\n  dup1\n  add\n  or\n  dup6\n  sstore\n  jump(tag_10)\ntag_12:\n  dup3\n  dup1\n  add\n  0x01\n  add\n  dup6\n  sstore\n  dup3\n  iszero\n  tag_10\n  jumpi\n  swap2\n  dup3\n  add\ntag_13:\n  dup3\n  dup2\n  gt\n  iszero\n  tag_14\n  jumpi\n  dup3\n  mload\n  dup3\n  sstore\n  swap2\n  0x20\n  add\n  swap2\n  swap1\n  0x01\n  add\n  swap1\n  jump(tag_13)\ntag_14:\ntag_10:\n  pop\n  swap1\n  pop\n  tag_15\n  swap2\n  swap1\n  tag_16\n  jump\t// in\ntag_15:\n  pop\n  swap1\n  jump\t// out\ntag_16:\ntag_17:\n  dup1\n  dup3\n  gt\n  iszero\n  tag_18\n  jumpi\n  0x00\n  dup2\n  0x00\n  swap1\n  sstore\n  pop\n  0x01\n  add\n  jump(tag_17)\ntag_18:\n  pop\n  swap1\n  jump\t// out\n    /* \"#utility.yul\":7:327   */\ntag_9:\n    /* \"#utility.yul\":51:57   */\n  0x00\n    /* \"#utility.yul\":88:89   */\n  0x02\n    /* \"#utility.yul\":82:86   */\n  dup3\n    /* \"#utility.yul\":78:90   */\n  div\n    /* \"#utility.yul\":68:90   */\n  swap1\n  pop\n    /* \"#utility.yul\":135:136   */\n  0x01\n    /* \"#utility.yul\":129:133   */\n  dup3\n    /* \"#utility.yul\":125:137   */\n  and\n    /* \"#utility.yul\":156:174   */\n  dup1\n    /* \"#utility.yul\":146:148   */\n  tag_21\n  jumpi\n    /* \"#utility.yul\":212:216   */\n  0x7f\n    /* \"#utility.yul\":204:210   */\n  dup3\n    /* \"#utility.yul\":200:217   */\n  and\n    /* \"#utility.yul\":190:217   */\n  swap2\n  pop\n    /* \"#utility.yul\":146:148   */\ntag_21:\n    /* \"#utility.yul\":274:276   */\n  0x20\n    /* \"#utility.yul\":266:272   */\n  dup3\n    /* \"#utility.yul\":263:277   */\n  lt\n    /* \"#utility.yul\":243:261   */\n  dup2\n    /* \"#utility.yul\":240:278   */\n  eq\n    /* \"#utility.yul\":237:239   */\n  iszero\n  tag_22\n  jumpi\n    /* \"#utility.yul\":293:311   */\n  tag_23\n  tag_24\n  jump\t// in\ntag_23:\n    /* \"#utility.yul\":237:239   */\ntag_22:\n    /* \"#utility.yul\":58:327   */\n  pop\n  swap2\n  swap1\n  pop\n  jump\t// out\n    /* \"#utility.yul\":333:513   */\ntag_24:\n    /* \"#utility.yul\":381:458   */\n  0x4e487b7100000000000000000000000000000000000000000000000000000000\n    /* \"#utility.yul\":378:379   */\n  0x00\n    /* \"#utility.yul\":371:459   */\n  mstore\n    /* \"#utility.yul\":478:482   */\n  0x22\n    /* \"#utility.yul\":475:476   */\n  0x04\n    /* \"#utility.yul\":468:483   */\n  mstore\n    /* \"#utility.yul\":502:506   */\n  0x24\n    /* \"#utility.yul\":499:500   */\n  0x00\n    /* \"#utility.yul\":492:507   */\n  revert\n    /* \"contracts/DEFIToken.sol\":60:1036  contract DefiToken {\r... */\ntag_7:\n  dataSize(sub_0)\n  dup1\n  dataOffset(sub_0)\n  0x00\n  codecopy\n  0x00\n  return\nstop\n\nsub_0: assembly {\n        /* \"contracts/DEFIToken.sol\":60:1036  contract DefiToken {\r... */\n      mstore(0x40, 0x80)\n      callvalue\n      dup1\n      iszero\n      tag_1\n      jumpi\n      0x00\n      dup1\n      revert\n    tag_1:\n      pop\n      jumpi(tag_2, lt(calldatasize, 0x04))\n      shr(0xe0, calldataload(0x00))\n      dup1\n      0x70a08231\n      gt\n      tag_10\n      jumpi\n      dup1\n      0x70a08231\n      eq\n      tag_6\n      jumpi\n      dup1\n      0x95d89b41\n      eq\n      tag_7\n      jumpi\n      dup1\n      0xa9059cbb\n      eq\n      tag_8\n      jumpi\n      dup1\n      0xdd62ed3e\n      eq\n      tag_9\n      jumpi\n      jump(tag_2)\n    tag_10:\n      dup1\n      0x06fdde03\n      eq\n      tag_3\n      jumpi\n      dup1\n      0x18160ddd\n      eq\n      tag_4\n      jumpi\n      dup1\n      0x313ce567\n      eq\n      tag_5\n      jumpi\n    tag_2:\n      0x00\n      dup1\n      revert\n        /* \"contracts/DEFIToken.sol\":108:141  string public name = \"DEFi Token\" */\n    tag_3:\n      tag_11\n      tag_12\n      jump\t// in\n    tag_11:\n      mload(0x40)\n      tag_13\n      swap2\n      swap1\n      tag_14\n      jump\t// in\n    tag_13:\n      mload(0x40)\n      dup1\n      swap2\n      sub\n      swap1\n      return\n        /* \"contracts/DEFIToken.sol\":184:237  uint256 public totalSupply = 100000000000000000000000 */\n    tag_4:\n      tag_15\n      tag_16\n      jump\t// in\n    tag_15:\n      mload(0x40)\n      tag_17\n      swap2\n      swap1\n      tag_18\n      jump\t// in\n    tag_17:\n      mload(0x40)\n      dup1\n      swap2\n      sub\n      swap1\n      return\n        /* \"contracts/DEFIToken.sol\":244:270  uint8 public decimals = 18 */\n    tag_5:\n      tag_19\n      tag_20\n      jump\t// in\n    tag_19:\n      mload(0x40)\n      tag_21\n      swap2\n      swap1\n      tag_22\n      jump\t// in\n    tag_21:\n      mload(0x40)\n      dup1\n      swap2\n      sub\n      swap1\n      return\n        /* \"contracts/DEFIToken.sol\":605:649  mapping(address => uint256) public balanceOf */\n    tag_6:\n      tag_23\n      0x04\n      dup1\n      calldatasize\n      sub\n      dup2\n      add\n      swap1\n      tag_24\n      swap2\n      swap1\n      tag_25\n      jump\t// in\n    tag_24:\n      tag_26\n      jump\t// in\n    tag_23:\n      mload(0x40)\n      tag_27\n      swap2\n      swap1\n      tag_18\n      jump\t// in\n    tag_27:\n      mload(0x40)\n      dup1\n      swap2\n      sub\n      swap1\n      return\n        /* \"contracts/DEFIToken.sol\":148:177  string public symbol = \"DEFi\" */\n    tag_7:\n      tag_28\n      tag_29\n      jump\t// in\n    tag_28:\n      mload(0x40)\n      tag_30\n      swap2\n      swap1\n      tag_14\n      jump\t// in\n    tag_30:\n      mload(0x40)\n      dup1\n      swap2\n      sub\n      swap1\n      return\n        /* \"contracts/DEFIToken.sol\":840:1033  function transfer(address _to, uint256 _value) public returns (bool) {\r... */\n    tag_8:\n      tag_31\n      0x04\n      dup1\n      calldatasize\n      sub\n      dup2\n      add\n      swap1\n      tag_32\n      swap2\n      swap1\n      tag_33\n      jump\t// in\n    tag_32:\n      tag_34\n      jump\t// in\n    tag_31:\n      mload(0x40)\n      tag_35\n      swap2\n      swap1\n      tag_36\n      jump\t// in\n    tag_35:\n      mload(0x40)\n      dup1\n      swap2\n      sub\n      swap1\n      return\n        /* \"contracts/DEFIToken.sol\":657:718  mapping(address => mapping(address => uint)) public allowance */\n    tag_9:\n      tag_37\n      0x04\n      dup1\n      calldatasize\n      sub\n      dup2\n      add\n      swap1\n      tag_38\n      swap2\n      swap1\n      tag_39\n      jump\t// in\n    tag_38:\n      tag_40\n      jump\t// in\n    tag_37:\n      mload(0x40)\n      tag_41\n      swap2\n      swap1\n      tag_18\n      jump\t// in\n    tag_41:\n      mload(0x40)\n      dup1\n      swap2\n      sub\n      swap1\n      return\n        /* \"contracts/DEFIToken.sol\":108:141  string public name = \"DEFi Token\" */\n    tag_12:\n      0x00\n      dup1\n      sload\n      tag_42\n      swap1\n      tag_43\n      jump\t// in\n    tag_42:\n      dup1\n      0x1f\n      add\n      0x20\n      dup1\n      swap2\n      div\n      mul\n      0x20\n      add\n      mload(0x40)\n      swap1\n      dup2\n      add\n      0x40\n      mstore\n      dup1\n      swap3\n      swap2\n      swap1\n      dup2\n      dup2\n      mstore\n      0x20\n      add\n      dup3\n      dup1\n      sload\n      tag_44\n      swap1\n      tag_43\n      jump\t// in\n    tag_44:\n      dup1\n      iszero\n      tag_45\n      jumpi\n      dup1\n      0x1f\n      lt\n      tag_46\n      jumpi\n      0x0100\n      dup1\n      dup4\n      sload\n      div\n      mul\n      dup4\n      mstore\n      swap2\n      0x20\n      add\n      swap2\n      jump(tag_45)\n    tag_46:\n      dup3\n      add\n      swap2\n      swap1\n      0x00\n      mstore\n      keccak256(0x00, 0x20)\n      swap1\n    tag_47:\n      dup2\n      sload\n      dup2\n      mstore\n      swap1\n      0x01\n      add\n      swap1\n      0x20\n      add\n      dup1\n      dup4\n      gt\n      tag_47\n      jumpi\n      dup3\n      swap1\n      sub\n      0x1f\n      and\n      dup3\n      add\n      swap2\n    tag_45:\n      pop\n      pop\n      pop\n      pop\n      pop\n      dup2\n      jump\t// out\n        /* \"contracts/DEFIToken.sol\":184:237  uint256 public totalSupply = 100000000000000000000000 */\n    tag_16:\n      sload(0x02)\n      dup2\n      jump\t// out\n        /* \"contracts/DEFIToken.sol\":244:270  uint8 public decimals = 18 */\n    tag_20:\n      0x03\n      0x00\n      swap1\n      sload\n      swap1\n      0x0100\n      exp\n      swap1\n      div\n      0xff\n      and\n      dup2\n      jump\t// out\n        /* \"contracts/DEFIToken.sol\":605:649  mapping(address => uint256) public balanceOf */\n    tag_26:\n      mstore(0x20, 0x04)\n      dup1\n      0x00\n      mstore\n      keccak256(0x00, 0x40)\n      0x00\n      swap2\n      pop\n      swap1\n      pop\n      sload\n      dup2\n      jump\t// out\n        /* \"contracts/DEFIToken.sol\":148:177  string public symbol = \"DEFi\" */\n    tag_29:\n      0x01\n      dup1\n      sload\n      tag_48\n      swap1\n      tag_43\n      jump\t// in\n    tag_48:\n      dup1\n      0x1f\n      add\n      0x20\n      dup1\n      swap2\n      div\n      mul\n      0x20\n      add\n      mload(0x40)\n      swap1\n      dup2\n      add\n      0x40\n      mstore\n      dup1\n      swap3\n      swap2\n      swap1\n      dup2\n      dup2\n      mstore\n      0x20\n      add\n      dup3\n      dup1\n      sload\n      tag_49\n      swap1\n      tag_43\n      jump\t// in\n    tag_49:\n      dup1\n      iszero\n      tag_50\n      jumpi\n      dup1\n      0x1f\n      lt\n      tag_51\n      jumpi\n      0x0100\n      dup1\n      dup4\n      sload\n      div\n      mul\n      dup4\n      mstore\n      swap2\n      0x20\n      add\n      swap2\n      jump(tag_50)\n    tag_51:\n      dup3\n      add\n      swap2\n      swap1\n      0x00\n      mstore\n      keccak256(0x00, 0x20)\n      swap1\n    tag_52:\n      dup2\n      sload\n      dup2\n      mstore\n      swap1\n      0x01\n      add\n      swap1\n      0x20\n      add\n      dup1\n      dup4\n      gt\n      tag_52\n      jumpi\n      dup3\n      swap1\n      sub\n      0x1f\n      and\n      dup3\n      add\n      swap2\n    tag_50:\n      pop\n      pop\n      pop\n      pop\n      pop\n      dup2\n      jump\t// out\n        /* \"contracts/DEFIToken.sol\":840:1033  function transfer(address _to, uint256 _value) public returns (bool) {\r... */\n    tag_34:\n        /* \"contracts/DEFIToken.sol\":903:907  bool */\n      0x00\n        /* \"contracts/DEFIToken.sol\":953:959  _value */\n      dup2\n        /* \"contracts/DEFIToken.sol\":928:937  balanceOf */\n      0x04\n        /* \"contracts/DEFIToken.sol\":928:949  balanceOf[msg.sender] */\n      0x00\n        /* \"contracts/DEFIToken.sol\":938:948  msg.sender */\n      caller\n        /* \"contracts/DEFIToken.sol\":928:949  balanceOf[msg.sender] */\n      0xffffffffffffffffffffffffffffffffffffffff\n      and\n      0xffffffffffffffffffffffffffffffffffffffff\n      and\n      dup2\n      mstore\n      0x20\n      add\n      swap1\n      dup2\n      mstore\n      0x20\n      add\n      0x00\n      keccak256\n      sload\n        /* \"contracts/DEFIToken.sol\":928:959  balanceOf[msg.sender] >= _value */\n      lt\n      iszero\n        /* \"contracts/DEFIToken.sol\":920:983  require(balanceOf[msg.sender] >= _value, \"Insufucient Balance\") */\n      tag_54\n      jumpi\n      mload(0x40)\n      0x08c379a000000000000000000000000000000000000000000000000000000000\n      dup2\n      mstore\n      0x04\n      add\n      tag_55\n      swap1\n      tag_56\n      jump\t// in\n    tag_55:\n      mload(0x40)\n      dup1\n      swap2\n      sub\n      swap1\n      revert\n    tag_54:\n        /* \"contracts/DEFIToken.sol\":1019:1025  _value */\n      dup2\n        /* \"contracts/DEFIToken.sol\":994:1003  balanceOf */\n      0x04\n        /* \"contracts/DEFIToken.sol\":994:1015  balanceOf[msg.sender] */\n      0x00\n        /* \"contracts/DEFIToken.sol\":1004:1014  msg.sender */\n      caller\n        /* \"contracts/DEFIToken.sol\":994:1015  balanceOf[msg.sender] */\n      0xffffffffffffffffffffffffffffffffffffffff\n      and\n      0xffffffffffffffffffffffffffffffffffffffff\n      and\n      dup2\n      mstore\n      0x20\n      add\n      swap1\n      dup2\n      mstore\n      0x20\n      add\n      0x00\n      keccak256\n      0x00\n        /* \"contracts/DEFIToken.sol\":994:1025  balanceOf[msg.sender] -= _value */\n      dup3\n      dup3\n      sload\n      tag_57\n      swap2\n      swap1\n      tag_58\n      jump\t// in\n    tag_57:\n      swap3\n      pop\n      pop\n      dup2\n      swap1\n      sstore\n      pop\n        /* \"contracts/DEFIToken.sol\":840:1033  function transfer(address _to, uint256 _value) public returns (bool) {\r... */\n      swap3\n      swap2\n      pop\n      pop\n      jump\t// out\n        /* \"contracts/DEFIToken.sol\":657:718  mapping(address => mapping(address => uint)) public allowance */\n    tag_40:\n      mstore(0x20, 0x05)\n      dup2\n      0x00\n      mstore\n      mstore(0x20, keccak256(0x00, 0x40))\n      dup1\n      0x00\n      mstore\n      keccak256(0x00, 0x40)\n      0x00\n      swap2\n      pop\n      swap2\n      pop\n      pop\n      sload\n      dup2\n      jump\t// out\n        /* \"#utility.yul\":7:146   */\n    tag_60:\n        /* \"#utility.yul\":53:58   */\n      0x00\n        /* \"#utility.yul\":91:97   */\n      dup2\n        /* \"#utility.yul\":78:98   */\n      calldataload\n        /* \"#utility.yul\":69:98   */\n      swap1\n      pop\n        /* \"#utility.yul\":107:140   */\n      tag_62\n        /* \"#utility.yul\":134:139   */\n      dup2\n        /* \"#utility.yul\":107:140   */\n      tag_63\n      jump\t// in\n    tag_62:\n        /* \"#utility.yul\":59:146   */\n      swap3\n      swap2\n      pop\n      pop\n      jump\t// out\n        /* \"#utility.yul\":152:291   */\n    tag_64:\n        /* \"#utility.yul\":198:203   */\n      0x00\n        /* \"#utility.yul\":236:242   */\n      dup2\n        /* \"#utility.yul\":223:243   */\n      calldataload\n        /* \"#utility.yul\":214:243   */\n      swap1\n      pop\n        /* \"#utility.yul\":252:285   */\n      tag_66\n        /* \"#utility.yul\":279:284   */\n      dup2\n        /* \"#utility.yul\":252:285   */\n      tag_67\n      jump\t// in\n    tag_66:\n        /* \"#utility.yul\":204:291   */\n      swap3\n      swap2\n      pop\n      pop\n      jump\t// out\n        /* \"#utility.yul\":297:559   */\n    tag_25:\n        /* \"#utility.yul\":356:362   */\n      0x00\n        /* \"#utility.yul\":405:407   */\n      0x20\n        /* \"#utility.yul\":393:402   */\n      dup3\n        /* \"#utility.yul\":384:391   */\n      dup5\n        /* \"#utility.yul\":380:403   */\n      sub\n        /* \"#utility.yul\":376:408   */\n      slt\n        /* \"#utility.yul\":373:375   */\n      iszero\n      tag_69\n      jumpi\n        /* \"#utility.yul\":421:422   */\n      0x00\n        /* \"#utility.yul\":418:419   */\n      dup1\n        /* \"#utility.yul\":411:423   */\n      revert\n        /* \"#utility.yul\":373:375   */\n    tag_69:\n        /* \"#utility.yul\":464:465   */\n      0x00\n        /* \"#utility.yul\":489:542   */\n      tag_70\n        /* \"#utility.yul\":534:541   */\n      dup5\n        /* \"#utility.yul\":525:531   */\n      dup3\n        /* \"#utility.yul\":514:523   */\n      dup6\n        /* \"#utility.yul\":510:532   */\n      add\n        /* \"#utility.yul\":489:542   */\n      tag_60\n      jump\t// in\n    tag_70:\n        /* \"#utility.yul\":479:542   */\n      swap2\n      pop\n        /* \"#utility.yul\":435:552   */\n      pop\n        /* \"#utility.yul\":363:559   */\n      swap3\n      swap2\n      pop\n      pop\n      jump\t// out\n        /* \"#utility.yul\":565:972   */\n    tag_39:\n        /* \"#utility.yul\":633:639   */\n      0x00\n        /* \"#utility.yul\":641:647   */\n      dup1\n        /* \"#utility.yul\":690:692   */\n      0x40\n        /* \"#utility.yul\":678:687   */\n      dup4\n        /* \"#utility.yul\":669:676   */\n      dup6\n        /* \"#utility.yul\":665:688   */\n      sub\n        /* \"#utility.yul\":661:693   */\n      slt\n        /* \"#utility.yul\":658:660   */\n      iszero\n      tag_72\n      jumpi\n        /* \"#utility.yul\":706:707   */\n      0x00\n        /* \"#utility.yul\":703:704   */\n      dup1\n        /* \"#utility.yul\":696:708   */\n      revert\n        /* \"#utility.yul\":658:660   */\n    tag_72:\n        /* \"#utility.yul\":749:750   */\n      0x00\n        /* \"#utility.yul\":774:827   */\n      tag_73\n        /* \"#utility.yul\":819:826   */\n      dup6\n        /* \"#utility.yul\":810:816   */\n      dup3\n        /* \"#utility.yul\":799:808   */\n      dup7\n        /* \"#utility.yul\":795:817   */\n      add\n        /* \"#utility.yul\":774:827   */\n      tag_60\n      jump\t// in\n    tag_73:\n        /* \"#utility.yul\":764:827   */\n      swap3\n      pop\n        /* \"#utility.yul\":720:837   */\n      pop\n        /* \"#utility.yul\":876:878   */\n      0x20\n        /* \"#utility.yul\":902:955   */\n      tag_74\n        /* \"#utility.yul\":947:954   */\n      dup6\n        /* \"#utility.yul\":938:944   */\n      dup3\n        /* \"#utility.yul\":927:936   */\n      dup7\n        /* \"#utility.yul\":923:945   */\n      add\n        /* \"#utility.yul\":902:955   */\n      tag_60\n      jump\t// in\n    tag_74:\n        /* \"#utility.yul\":892:955   */\n      swap2\n      pop\n        /* \"#utility.yul\":847:965   */\n      pop\n        /* \"#utility.yul\":648:972   */\n      swap3\n      pop\n      swap3\n      swap1\n      pop\n      jump\t// out\n        /* \"#utility.yul\":978:1385   */\n    tag_33:\n        /* \"#utility.yul\":1046:1052   */\n      0x00\n        /* \"#utility.yul\":1054:1060   */\n      dup1\n        /* \"#utility.yul\":1103:1105   */\n      0x40\n        /* \"#utility.yul\":1091:1100   */\n      dup4\n        /* \"#utility.yul\":1082:1089   */\n      dup6\n        /* \"#utility.yul\":1078:1101   */\n      sub\n        /* \"#utility.yul\":1074:1106   */\n      slt\n        /* \"#utility.yul\":1071:1073   */\n      iszero\n      tag_76\n      jumpi\n        /* \"#utility.yul\":1119:1120   */\n      0x00\n        /* \"#utility.yul\":1116:1117   */\n      dup1\n        /* \"#utility.yul\":1109:1121   */\n      revert\n        /* \"#utility.yul\":1071:1073   */\n    tag_76:\n        /* \"#utility.yul\":1162:1163   */\n      0x00\n        /* \"#utility.yul\":1187:1240   */\n      tag_77\n        /* \"#utility.yul\":1232:1239   */\n      dup6\n        /* \"#utility.yul\":1223:1229   */\n      dup3\n        /* \"#utility.yul\":1212:1221   */\n      dup7\n        /* \"#utility.yul\":1208:1230   */\n      add\n        /* \"#utility.yul\":1187:1240   */\n      tag_60\n      jump\t// in\n    tag_77:\n        /* \"#utility.yul\":1177:1240   */\n      swap3\n      pop\n        /* \"#utility.yul\":1133:1250   */\n      pop\n        /* \"#utility.yul\":1289:1291   */\n      0x20\n        /* \"#utility.yul\":1315:1368   */\n      tag_78\n        /* \"#utility.yul\":1360:1367   */\n      dup6\n        /* \"#utility.yul\":1351:1357   */\n      dup3\n        /* \"#utility.yul\":1340:1349   */\n      dup7\n        /* \"#utility.yul\":1336:1358   */\n      add\n        /* \"#utility.yul\":1315:1368   */\n      tag_64\n      jump\t// in\n    tag_78:\n        /* \"#utility.yul\":1305:1368   */\n      swap2\n      pop\n        /* \"#utility.yul\":1260:1378   */\n      pop\n        /* \"#utility.yul\":1061:1385   */\n      swap3\n      pop\n      swap3\n      swap1\n      pop\n      jump\t// out\n        /* \"#utility.yul\":1391:1500   */\n    tag_79:\n        /* \"#utility.yul\":1472:1493   */\n      tag_81\n        /* \"#utility.yul\":1487:1492   */\n      dup2\n        /* \"#utility.yul\":1472:1493   */\n      tag_82\n      jump\t// in\n    tag_81:\n        /* \"#utility.yul\":1467:1470   */\n      dup3\n        /* \"#utility.yul\":1460:1494   */\n      mstore\n        /* \"#utility.yul\":1450:1500   */\n      pop\n      pop\n      jump\t// out\n        /* \"#utility.yul\":1506:1870   */\n    tag_83:\n        /* \"#utility.yul\":1594:1597   */\n      0x00\n        /* \"#utility.yul\":1622:1661   */\n      tag_85\n        /* \"#utility.yul\":1655:1660   */\n      dup3\n        /* \"#utility.yul\":1622:1661   */\n      tag_86\n      jump\t// in\n    tag_85:\n        /* \"#utility.yul\":1677:1748   */\n      tag_87\n        /* \"#utility.yul\":1741:1747   */\n      dup2\n        /* \"#utility.yul\":1736:1739   */\n      dup6\n        /* \"#utility.yul\":1677:1748   */\n      tag_88\n      jump\t// in\n    tag_87:\n        /* \"#utility.yul\":1670:1748   */\n      swap4\n      pop\n        /* \"#utility.yul\":1757:1809   */\n      tag_89\n        /* \"#utility.yul\":1802:1808   */\n      dup2\n        /* \"#utility.yul\":1797:1800   */\n      dup6\n        /* \"#utility.yul\":1790:1794   */\n      0x20\n        /* \"#utility.yul\":1783:1788   */\n      dup7\n        /* \"#utility.yul\":1779:1795   */\n      add\n        /* \"#utility.yul\":1757:1809   */\n      tag_90\n      jump\t// in\n    tag_89:\n        /* \"#utility.yul\":1834:1863   */\n      tag_91\n        /* \"#utility.yul\":1856:1862   */\n      dup2\n        /* \"#utility.yul\":1834:1863   */\n      tag_92\n      jump\t// in\n    tag_91:\n        /* \"#utility.yul\":1829:1832   */\n      dup5\n        /* \"#utility.yul\":1825:1864   */\n      add\n        /* \"#utility.yul\":1818:1864   */\n      swap2\n      pop\n        /* \"#utility.yul\":1598:1870   */\n      pop\n      swap3\n      swap2\n      pop\n      pop\n      jump\t// out\n        /* \"#utility.yul\":1876:2242   */\n    tag_93:\n        /* \"#utility.yul\":2018:2021   */\n      0x00\n        /* \"#utility.yul\":2039:2106   */\n      tag_95\n        /* \"#utility.yul\":2103:2105   */\n      0x13\n        /* \"#utility.yul\":2098:2101   */\n      dup4\n        /* \"#utility.yul\":2039:2106   */\n      tag_88\n      jump\t// in\n    tag_95:\n        /* \"#utility.yul\":2032:2106   */\n      swap2\n      pop\n        /* \"#utility.yul\":2115:2208   */\n      tag_96\n        /* \"#utility.yul\":2204:2207   */\n      dup3\n        /* \"#utility.yul\":2115:2208   */\n      tag_97\n      jump\t// in\n    tag_96:\n        /* \"#utility.yul\":2233:2235   */\n      0x20\n        /* \"#utility.yul\":2228:2231   */\n      dup3\n        /* \"#utility.yul\":2224:2236   */\n      add\n        /* \"#utility.yul\":2217:2236   */\n      swap1\n      pop\n        /* \"#utility.yul\":2022:2242   */\n      swap2\n      swap1\n      pop\n      jump\t// out\n        /* \"#utility.yul\":2248:2366   */\n    tag_98:\n        /* \"#utility.yul\":2335:2359   */\n      tag_100\n        /* \"#utility.yul\":2353:2358   */\n      dup2\n        /* \"#utility.yul\":2335:2359   */\n      tag_101\n      jump\t// in\n    tag_100:\n        /* \"#utility.yul\":2330:2333   */\n      dup3\n        /* \"#utility.yul\":2323:2360   */\n      mstore\n        /* \"#utility.yul\":2313:2366   */\n      pop\n      pop\n      jump\t// out\n        /* \"#utility.yul\":2372:2484   */\n    tag_102:\n        /* \"#utility.yul\":2455:2477   */\n      tag_104\n        /* \"#utility.yul\":2471:2476   */\n      dup2\n        /* \"#utility.yul\":2455:2477   */\n      tag_105\n      jump\t// in\n    tag_104:\n        /* \"#utility.yul\":2450:2453   */\n      dup3\n        /* \"#utility.yul\":2443:2478   */\n      mstore\n        /* \"#utility.yul\":2433:2484   */\n      pop\n      pop\n      jump\t// out\n        /* \"#utility.yul\":2490:2700   */\n    tag_36:\n        /* \"#utility.yul\":2577:2581   */\n      0x00\n        /* \"#utility.yul\":2615:2617   */\n      0x20\n        /* \"#utility.yul\":2604:2613   */\n      dup3\n        /* \"#utility.yul\":2600:2618   */\n      add\n        /* \"#utility.yul\":2592:2618   */\n      swap1\n      pop\n        /* \"#utility.yul\":2628:2693   */\n      tag_107\n        /* \"#utility.yul\":2690:2691   */\n      0x00\n        /* \"#utility.yul\":2679:2688   */\n      dup4\n        /* \"#utility.yul\":2675:2692   */\n      add\n        /* \"#utility.yul\":2666:2672   */\n      dup5\n        /* \"#utility.yul\":2628:2693   */\n      tag_79\n      jump\t// in\n    tag_107:\n        /* \"#utility.yul\":2582:2700   */\n      swap3\n      swap2\n      pop\n      pop\n      jump\t// out\n        /* \"#utility.yul\":2706:3019   */\n    tag_14:\n        /* \"#utility.yul\":2819:2823   */\n      0x00\n        /* \"#utility.yul\":2857:2859   */\n      0x20\n        /* \"#utility.yul\":2846:2855   */\n      dup3\n        /* \"#utility.yul\":2842:2860   */\n      add\n        /* \"#utility.yul\":2834:2860   */\n      swap1\n      pop\n        /* \"#utility.yul\":2906:2915   */\n      dup2\n        /* \"#utility.yul\":2900:2904   */\n      dup2\n        /* \"#utility.yul\":2896:2916   */\n      sub\n        /* \"#utility.yul\":2892:2893   */\n      0x00\n        /* \"#utility.yul\":2881:2890   */\n      dup4\n        /* \"#utility.yul\":2877:2894   */\n      add\n        /* \"#utility.yul\":2870:2917   */\n      mstore\n        /* \"#utility.yul\":2934:3012   */\n      tag_109\n        /* \"#utility.yul\":3007:3011   */\n      dup2\n        /* \"#utility.yul\":2998:3004   */\n      dup5\n        /* \"#utility.yul\":2934:3012   */\n      tag_83\n      jump\t// in\n    tag_109:\n        /* \"#utility.yul\":2926:3012   */\n      swap1\n      pop\n        /* \"#utility.yul\":2824:3019   */\n      swap3\n      swap2\n      pop\n      pop\n      jump\t// out\n        /* \"#utility.yul\":3025:3444   */\n    tag_56:\n        /* \"#utility.yul\":3191:3195   */\n      0x00\n        /* \"#utility.yul\":3229:3231   */\n      0x20\n        /* \"#utility.yul\":3218:3227   */\n      dup3\n        /* \"#utility.yul\":3214:3232   */\n      add\n        /* \"#utility.yul\":3206:3232   */\n      swap1\n      pop\n        /* \"#utility.yul\":3278:3287   */\n      dup2\n        /* \"#utility.yul\":3272:3276   */\n      dup2\n        /* \"#utility.yul\":3268:3288   */\n      sub\n        /* \"#utility.yul\":3264:3265   */\n      0x00\n        /* \"#utility.yul\":3253:3262   */\n      dup4\n        /* \"#utility.yul\":3249:3266   */\n      add\n        /* \"#utility.yul\":3242:3289   */\n      mstore\n        /* \"#utility.yul\":3306:3437   */\n      tag_111\n        /* \"#utility.yul\":3432:3436   */\n      dup2\n        /* \"#utility.yul\":3306:3437   */\n      tag_93\n      jump\t// in\n    tag_111:\n        /* \"#utility.yul\":3298:3437   */\n      swap1\n      pop\n        /* \"#utility.yul\":3196:3444   */\n      swap2\n      swap1\n      pop\n      jump\t// out\n        /* \"#utility.yul\":3450:3672   */\n    tag_18:\n        /* \"#utility.yul\":3543:3547   */\n      0x00\n        /* \"#utility.yul\":3581:3583   */\n      0x20\n        /* \"#utility.yul\":3570:3579   */\n      dup3\n        /* \"#utility.yul\":3566:3584   */\n      add\n        /* \"#utility.yul\":3558:3584   */\n      swap1\n      pop\n        /* \"#utility.yul\":3594:3665   */\n      tag_113\n        /* \"#utility.yul\":3662:3663   */\n      0x00\n        /* \"#utility.yul\":3651:3660   */\n      dup4\n        /* \"#utility.yul\":3647:3664   */\n      add\n        /* \"#utility.yul\":3638:3644   */\n      dup5\n        /* \"#utility.yul\":3594:3665   */\n      tag_98\n      jump\t// in\n    tag_113:\n        /* \"#utility.yul\":3548:3672   */\n      swap3\n      swap2\n      pop\n      pop\n      jump\t// out\n        /* \"#utility.yul\":3678:3892   */\n    tag_22:\n        /* \"#utility.yul\":3767:3771   */\n      0x00\n        /* \"#utility.yul\":3805:3807   */\n      0x20\n        /* \"#utility.yul\":3794:3803   */\n      dup3\n        /* \"#utility.yul\":3790:3808   */\n      add\n        /* \"#utility.yul\":3782:3808   */\n      swap1\n      pop\n        /* \"#utility.yul\":3818:3885   */\n      tag_115\n        /* \"#utility.yul\":3882:3883   */\n      0x00\n        /* \"#utility.yul\":3871:3880   */\n      dup4\n        /* \"#utility.yul\":3867:3884   */\n      add\n        /* \"#utility.yul\":3858:3864   */\n      dup5\n        /* \"#utility.yul\":3818:3885   */\n      tag_102\n      jump\t// in\n    tag_115:\n        /* \"#utility.yul\":3772:3892   */\n      swap3\n      swap2\n      pop\n      pop\n      jump\t// out\n        /* \"#utility.yul\":3898:3997   */\n    tag_86:\n        /* \"#utility.yul\":3950:3956   */\n      0x00\n        /* \"#utility.yul\":3984:3989   */\n      dup2\n        /* \"#utility.yul\":3978:3990   */\n      mload\n        /* \"#utility.yul\":3968:3990   */\n      swap1\n      pop\n        /* \"#utility.yul\":3957:3997   */\n      swap2\n      swap1\n      pop\n      jump\t// out\n        /* \"#utility.yul\":4003:4172   */\n    tag_88:\n        /* \"#utility.yul\":4087:4098   */\n      0x00\n        /* \"#utility.yul\":4121:4127   */\n      dup3\n        /* \"#utility.yul\":4116:4119   */\n      dup3\n        /* \"#utility.yul\":4109:4128   */\n      mstore\n        /* \"#utility.yul\":4161:4165   */\n      0x20\n        /* \"#utility.yul\":4156:4159   */\n      dup3\n        /* \"#utility.yul\":4152:4166   */\n      add\n        /* \"#utility.yul\":4137:4166   */\n      swap1\n      pop\n        /* \"#utility.yul\":4099:4172   */\n      swap3\n      swap2\n      pop\n      pop\n      jump\t// out\n        /* \"#utility.yul\":4178:4369   */\n    tag_58:\n        /* \"#utility.yul\":4218:4222   */\n      0x00\n        /* \"#utility.yul\":4238:4258   */\n      tag_119\n        /* \"#utility.yul\":4256:4257   */\n      dup3\n        /* \"#utility.yul\":4238:4258   */\n      tag_101\n      jump\t// in\n    tag_119:\n        /* \"#utility.yul\":4233:4258   */\n      swap2\n      pop\n        /* \"#utility.yul\":4272:4292   */\n      tag_120\n        /* \"#utility.yul\":4290:4291   */\n      dup4\n        /* \"#utility.yul\":4272:4292   */\n      tag_101\n      jump\t// in\n    tag_120:\n        /* \"#utility.yul\":4267:4292   */\n      swap3\n      pop\n        /* \"#utility.yul\":4311:4312   */\n      dup3\n        /* \"#utility.yul\":4308:4309   */\n      dup3\n        /* \"#utility.yul\":4305:4313   */\n      lt\n        /* \"#utility.yul\":4302:4304   */\n      iszero\n      tag_121\n      jumpi\n        /* \"#utility.yul\":4316:4334   */\n      tag_122\n      tag_123\n      jump\t// in\n    tag_122:\n        /* \"#utility.yul\":4302:4304   */\n    tag_121:\n        /* \"#utility.yul\":4361:4362   */\n      dup3\n        /* \"#utility.yul\":4358:4359   */\n      dup3\n        /* \"#utility.yul\":4354:4363   */\n      sub\n        /* \"#utility.yul\":4346:4363   */\n      swap1\n      pop\n        /* \"#utility.yul\":4223:4369   */\n      swap3\n      swap2\n      pop\n      pop\n      jump\t// out\n        /* \"#utility.yul\":4375:4471   */\n    tag_124:\n        /* \"#utility.yul\":4412:4419   */\n      0x00\n        /* \"#utility.yul\":4441:4465   */\n      tag_126\n        /* \"#utility.yul\":4459:4464   */\n      dup3\n        /* \"#utility.yul\":4441:4465   */\n      tag_127\n      jump\t// in\n    tag_126:\n        /* \"#utility.yul\":4430:4465   */\n      swap1\n      pop\n        /* \"#utility.yul\":4420:4471   */\n      swap2\n      swap1\n      pop\n      jump\t// out\n        /* \"#utility.yul\":4477:4567   */\n    tag_82:\n        /* \"#utility.yul\":4511:4518   */\n      0x00\n        /* \"#utility.yul\":4554:4559   */\n      dup2\n        /* \"#utility.yul\":4547:4560   */\n      iszero\n        /* \"#utility.yul\":4540:4561   */\n      iszero\n        /* \"#utility.yul\":4529:4561   */\n      swap1\n      pop\n        /* \"#utility.yul\":4519:4567   */\n      swap2\n      swap1\n      pop\n      jump\t// out\n        /* \"#utility.yul\":4573:4699   */\n    tag_127:\n        /* \"#utility.yul\":4610:4617   */\n      0x00\n        /* \"#utility.yul\":4650:4692   */\n      0xffffffffffffffffffffffffffffffffffffffff\n        /* \"#utility.yul\":4643:4648   */\n      dup3\n        /* \"#utility.yul\":4639:4693   */\n      and\n        /* \"#utility.yul\":4628:4693   */\n      swap1\n      pop\n        /* \"#utility.yul\":4618:4699   */\n      swap2\n      swap1\n      pop\n      jump\t// out\n        /* \"#utility.yul\":4705:4782   */\n    tag_101:\n        /* \"#utility.yul\":4742:4749   */\n      0x00\n        /* \"#utility.yul\":4771:4776   */\n      dup2\n        /* \"#utility.yul\":4760:4776   */\n      swap1\n      pop\n        /* \"#utility.yul\":4750:4782   */\n      swap2\n      swap1\n      pop\n      jump\t// out\n        /* \"#utility.yul\":4788:4874   */\n    tag_105:\n        /* \"#utility.yul\":4823:4830   */\n      0x00\n        /* \"#utility.yul\":4863:4867   */\n      0xff\n        /* \"#utility.yul\":4856:4861   */\n      dup3\n        /* \"#utility.yul\":4852:4868   */\n      and\n        /* \"#utility.yul\":4841:4868   */\n      swap1\n      pop\n        /* \"#utility.yul\":4831:4874   */\n      swap2\n      swap1\n      pop\n      jump\t// out\n        /* \"#utility.yul\":4880:5187   */\n    tag_90:\n        /* \"#utility.yul\":4948:4949   */\n      0x00\n        /* \"#utility.yul\":4958:5071   */\n    tag_133:\n        /* \"#utility.yul\":4972:4978   */\n      dup4\n        /* \"#utility.yul\":4969:4970   */\n      dup2\n        /* \"#utility.yul\":4966:4979   */\n      lt\n        /* \"#utility.yul\":4958:5071   */\n      iszero\n      tag_135\n      jumpi\n        /* \"#utility.yul\":5057:5058   */\n      dup1\n        /* \"#utility.yul\":5052:5055   */\n      dup3\n        /* \"#utility.yul\":5048:5059   */\n      add\n        /* \"#utility.yul\":5042:5060   */\n      mload\n        /* \"#utility.yul\":5038:5039   */\n      dup2\n        /* \"#utility.yul\":5033:5036   */\n      dup5\n        /* \"#utility.yul\":5029:5040   */\n      add\n        /* \"#utility.yul\":5022:5061   */\n      mstore\n        /* \"#utility.yul\":4994:4996   */\n      0x20\n        /* \"#utility.yul\":4991:4992   */\n      dup2\n        /* \"#utility.yul\":4987:4997   */\n      add\n        /* \"#utility.yul\":4982:4997   */\n      swap1\n      pop\n        /* \"#utility.yul\":4958:5071   */\n      jump(tag_133)\n    tag_135:\n        /* \"#utility.yul\":5089:5095   */\n      dup4\n        /* \"#utility.yul\":5086:5087   */\n      dup2\n        /* \"#utility.yul\":5083:5096   */\n      gt\n        /* \"#utility.yul\":5080:5082   */\n      iszero\n      tag_136\n      jumpi\n        /* \"#utility.yul\":5169:5170   */\n      0x00\n        /* \"#utility.yul\":5160:5166   */\n      dup5\n        /* \"#utility.yul\":5155:5158   */\n      dup5\n        /* \"#utility.yul\":5151:5167   */\n      add\n        /* \"#utility.yul\":5144:5171   */\n      mstore\n        /* \"#utility.yul\":5080:5082   */\n    tag_136:\n        /* \"#utility.yul\":4929:5187   */\n      pop\n      pop\n      pop\n      pop\n      jump\t// out\n        /* \"#utility.yul\":5193:5513   */\n    tag_43:\n        /* \"#utility.yul\":5237:5243   */\n      0x00\n        /* \"#utility.yul\":5274:5275   */\n      0x02\n        /* \"#utility.yul\":5268:5272   */\n      dup3\n        /* \"#utility.yul\":5264:5276   */\n      div\n        /* \"#utility.yul\":5254:5276   */\n      swap1\n      pop\n        /* \"#utility.yul\":5321:5322   */\n      0x01\n        /* \"#utility.yul\":5315:5319   */\n      dup3\n        /* \"#utility.yul\":5311:5323   */\n      and\n        /* \"#utility.yul\":5342:5360   */\n      dup1\n        /* \"#utility.yul\":5332:5334   */\n      tag_138\n      jumpi\n        /* \"#utility.yul\":5398:5402   */\n      0x7f\n        /* \"#utility.yul\":5390:5396   */\n      dup3\n        /* \"#utility.yul\":5386:5403   */\n      and\n        /* \"#utility.yul\":5376:5403   */\n      swap2\n      pop\n        /* \"#utility.yul\":5332:5334   */\n    tag_138:\n        /* \"#utility.yul\":5460:5462   */\n      0x20\n        /* \"#utility.yul\":5452:5458   */\n      dup3\n        /* \"#utility.yul\":5449:5463   */\n      lt\n        /* \"#utility.yul\":5429:5447   */\n      dup2\n        /* \"#utility.yul\":5426:5464   */\n      eq\n        /* \"#utility.yul\":5423:5425   */\n      iszero\n      tag_139\n      jumpi\n        /* \"#utility.yul\":5479:5497   */\n      tag_140\n      tag_141\n      jump\t// in\n    tag_140:\n        /* \"#utility.yul\":5423:5425   */\n    tag_139:\n        /* \"#utility.yul\":5244:5513   */\n      pop\n      swap2\n      swap1\n      pop\n      jump\t// out\n        /* \"#utility.yul\":5519:5699   */\n    tag_123:\n        /* \"#utility.yul\":5567:5644   */\n      0x4e487b7100000000000000000000000000000000000000000000000000000000\n        /* \"#utility.yul\":5564:5565   */\n      0x00\n        /* \"#utility.yul\":5557:5645   */\n      mstore\n        /* \"#utility.yul\":5664:5668   */\n      0x11\n        /* \"#utility.yul\":5661:5662   */\n      0x04\n        /* \"#utility.yul\":5654:5669   */\n      mstore\n        /* \"#utility.yul\":5688:5692   */\n      0x24\n        /* \"#utility.yul\":5685:5686   */\n      0x00\n        /* \"#utility.yul\":5678:5693   */\n      revert\n        /* \"#utility.yul\":5705:5885   */\n    tag_141:\n        /* \"#utility.yul\":5753:5830   */\n      0x4e487b7100000000000000000000000000000000000000000000000000000000\n        /* \"#utility.yul\":5750:5751   */\n      0x00\n        /* \"#utility.yul\":5743:5831   */\n      mstore\n        /* \"#utility.yul\":5850:5854   */\n      0x22\n        /* \"#utility.yul\":5847:5848   */\n      0x04\n        /* \"#utility.yul\":5840:5855   */\n      mstore\n        /* \"#utility.yul\":5874:5878   */\n      0x24\n        /* \"#utility.yul\":5871:5872   */\n      0x00\n        /* \"#utility.yul\":5864:5879   */\n      revert\n        /* \"#utility.yul\":5891:5993   */\n    tag_92:\n        /* \"#utility.yul\":5932:5938   */\n      0x00\n        /* \"#utility.yul\":5983:5985   */\n      0x1f\n        /* \"#utility.yul\":5979:5986   */\n      not\n        /* \"#utility.yul\":5974:5976   */\n      0x1f\n        /* \"#utility.yul\":5967:5972   */\n      dup4\n        /* \"#utility.yul\":5963:5977   */\n      add\n        /* \"#utility.yul\":5959:5987   */\n      and\n        /* \"#utility.yul\":5949:5987   */\n      swap1\n      pop\n        /* \"#utility.yul\":5939:5993   */\n      swap2\n      swap1\n      pop\n      jump\t// out\n        /* \"#utility.yul\":5999:6168   */\n    tag_97:\n        /* \"#utility.yul\":6139:6160   */\n      0x496e737566756369656e742042616c616e636500000000000000000000000000\n        /* \"#utility.yul\":6135:6136   */\n      0x00\n        /* \"#utility.yul\":6127:6133   */\n      dup3\n        /* \"#utility.yul\":6123:6137   */\n      add\n        /* \"#utility.yul\":6116:6161   */\n      mstore\n        /* \"#utility.yul\":6105:6168   */\n      pop\n      jump\t// out\n        /* \"#utility.yul\":6174:6296   */\n    tag_63:\n        /* \"#utility.yul\":6247:6271   */\n      tag_147\n        /* \"#utility.yul\":6265:6270   */\n      dup2\n        /* \"#utility.yul\":6247:6271   */\n      tag_124\n      jump\t// in\n    tag_147:\n        /* \"#utility.yul\":6240:6245   */\n      dup2\n        /* \"#utility.yul\":6237:6272   */\n      eq\n        /* \"#utility.yul\":6227:6229   */\n      tag_148\n      jumpi\n        /* \"#utility.yul\":6286:6287   */\n      0x00\n        /* \"#utility.yul\":6283:6284   */\n      dup1\n        /* \"#utility.yul\":6276:6288   */\n      revert\n        /* \"#utility.yul\":6227:6229   */\n    tag_148:\n        /* \"#utility.yul\":6217:6296   */\n      pop\n      jump\t// out\n        /* \"#utility.yul\":6302:6424   */\n    tag_67:\n        /* \"#utility.yul\":6375:6399   */\n      tag_150\n        /* \"#utility.yul\":6393:6398   */\n      dup2\n        /* \"#utility.yul\":6375:6399   */\n      tag_101\n      jump\t// in\n    tag_150:\n        /* \"#utility.yul\":6368:6373   */\n      dup2\n        /* \"#utility.yul\":6365:6400   */\n      eq\n        /* \"#utility.yul\":6355:6357   */\n      tag_151\n      jumpi\n        /* \"#utility.yul\":6414:6415   */\n      0x00\n        /* \"#utility.yul\":6411:6412   */\n      dup1\n        /* \"#utility.yul\":6404:6416   */\n      revert\n        /* \"#utility.yul\":6355:6357   */\n    tag_151:\n        /* \"#utility.yul\":6345:6424   */\n      pop\n      jump\t// out\n\n    auxdata: 0xa26469706673582212203e54f80e1af098be8aa7997708f846944407df092cea2958cf570464a2ef210464736f6c63430008040033\n}\n",
				"bytecode": {
					"linkReferences": {},
					"object": "60806040526040518060400160405280600a81526020017f4445466920546f6b656e000000000000000000000000000000000000000000008152506000908051906020019061004f92919061011e565b506040518060400160405280600481526020017f44454669000000000000000000000000000000000000000000000000000000008152506001908051906020019061009b92919061011e565b5069152d02c7e14af68000006002556012600360006101000a81548160ff021916908360ff1602179055503480156100d257600080fd5b50600254600460003373ffffffffffffffffffffffffffffffffffffffff1673ffffffffffffffffffffffffffffffffffffffff16815260200190815260200160002081905550610222565b82805461012a906101c1565b90600052602060002090601f01602090048101928261014c5760008555610193565b82601f1061016557805160ff1916838001178555610193565b82800160010185558215610193579182015b82811115610192578251825591602001919060010190610177565b5b5090506101a091906101a4565b5090565b5b808211156101bd5760008160009055506001016101a5565b5090565b600060028204905060018216806101d957607f821691505b602082108114156101ed576101ec6101f3565b5b50919050565b7f4e487b7100000000000000000000000000000000000000000000000000000000600052602260045260246000fd5b6107c9806102316000396000f3fe608060405234801561001057600080fd5b506004361061007d5760003560e01c806370a082311161005b57806370a08231146100dc57806395d89b411461010c578063a9059cbb1461012a578063dd62ed3e1461015a5761007d565b806306fdde031461008257806318160ddd146100a0578063313ce567146100be575b600080fd5b61008a61018a565b604051610097919061054b565b60405180910390f35b6100a8610218565b6040516100b5919061058d565b60405180910390f35b6100c661021e565b6040516100d391906105a8565b60405180910390f35b6100f660048036038101906100f19190610406565b610231565b604051610103919061058d565b60405180910390f35b610114610249565b604051610121919061054b565b60405180910390f35b610144600480360381019061013f919061046b565b6102d7565b6040516101519190610530565b60405180910390f35b610174600480360381019061016f919061042f565b6103b7565b604051610181919061058d565b60405180910390f35b600080546101979061069b565b80601f01602080910402602001604051908101604052809291908181526020018280546101c39061069b565b80156102105780601f106101e557610100808354040283529160200191610210565b820191906000526020600020905b8154815290600101906020018083116101f357829003601f168201915b505050505081565b60025481565b600360009054906101000a900460ff1681565b60046020528060005260406000206000915090505481565b600180546102569061069b565b80601f01602080910402602001604051908101604052809291908181526020018280546102829061069b565b80156102cf5780601f106102a4576101008083540402835291602001916102cf565b820191906000526020600020905b8154815290600101906020018083116102b257829003601f168201915b505050505081565b600081600460003373ffffffffffffffffffffffffffffffffffffffff1673ffffffffffffffffffffffffffffffffffffffff16815260200190815260200160002054101561035b576040517f08c379a00000000000000000000000000000000000000000000000000000000081526004016103529061056d565b60405180910390fd5b81600460003373ffffffffffffffffffffffffffffffffffffffff1673ffffffffffffffffffffffffffffffffffffffff16815260200190815260200160002060008282546103aa91906105df565b9250508190555092915050565b6005602052816000526040600020602052806000526040600020600091509150505481565b6000813590506103eb81610765565b92915050565b6000813590506104008161077c565b92915050565b60006020828403121561041857600080fd5b6000610426848285016103dc565b91505092915050565b6000806040838503121561044257600080fd5b6000610450858286016103dc565b9250506020610461858286016103dc565b9150509250929050565b6000806040838503121561047e57600080fd5b600061048c858286016103dc565b925050602061049d858286016103f1565b9150509250929050565b6104b081610625565b82525050565b60006104c1826105c3565b6104cb81856105ce565b93506104db818560208601610668565b6104e48161072b565b840191505092915050565b60006104fc6013836105ce565b91506105078261073c565b602082019050919050565b61051b81610651565b82525050565b61052a8161065b565b82525050565b600060208201905061054560008301846104a7565b92915050565b6000602082019050818103600083015261056581846104b6565b905092915050565b60006020820190508181036000830152610586816104ef565b9050919050565b60006020820190506105a26000830184610512565b92915050565b60006020820190506105bd6000830184610521565b92915050565b600081519050919050565b600082825260208201905092915050565b60006105ea82610651565b91506105f583610651565b925082821015610608576106076106cd565b5b828203905092915050565b600061061e82610631565b9050919050565b60008115159050919050565b600073ffffffffffffffffffffffffffffffffffffffff82169050919050565b6000819050919050565b600060ff82169050919050565b60005b8381101561068657808201518184015260208101905061066b565b83811115610695576000848401525b50505050565b600060028204905060018216806106b357607f821691505b602082108114156106c7576106c66106fc565b5b50919050565b7f4e487b7100000000000000000000000000000000000000000000000000000000600052601160045260246000fd5b7f4e487b7100000000000000000000000000000000000000000000000000000000600052602260045260246000fd5b6000601f19601f8301169050919050565b7f496e737566756369656e742042616c616e636500000000000000000000000000600082015250565b61076e81610613565b811461077957600080fd5b50565b61078581610651565b811461079057600080fd5b5056fea26469706673582212203e54f80e1af098be8aa7997708f846944407df092cea2958cf570464a2ef210464736f6c63430008040033",
					"opcodes": "PUSH1 0x80 PUSH1 0x40 MSTORE PUSH1 0x40 MLOAD DUP1 PUSH1 0x40 ADD PUSH1 0x40 MSTORE DUP1 PUSH1 0xA DUP2 MSTORE PUSH1 0x20 ADD PUSH32 0x4445466920546F6B656E00000000000000000000000000000000000000000000 DUP2 MSTORE POP PUSH1 0x0 SWAP1 DUP1 MLOAD SWAP1 PUSH1 0x20 ADD SWAP1 PUSH2 0x4F SWAP3 SWAP2 SWAP1 PUSH2 0x11E JUMP JUMPDEST POP PUSH1 0x40 MLOAD DUP1 PUSH1 0x40 ADD PUSH1 0x40 MSTORE DUP1 PUSH1 0x4 DUP2 MSTORE PUSH1 0x20 ADD PUSH32 0x4445466900000000000000000000000000000000000000000000000000000000 DUP2 MSTORE POP PUSH1 0x1 SWAP1 DUP1 MLOAD SWAP1 PUSH1 0x20 ADD SWAP1 PUSH2 0x9B SWAP3 SWAP2 SWAP1 PUSH2 0x11E JUMP JUMPDEST POP PUSH10 0x152D02C7E14AF6800000 PUSH1 0x2 SSTORE PUSH1 0x12 PUSH1 0x3 PUSH1 0x0 PUSH2 0x100 EXP DUP2 SLOAD DUP2 PUSH1 0xFF MUL NOT AND SWAP1 DUP4 PUSH1 0xFF AND MUL OR SWAP1 SSTORE POP CALLVALUE DUP1 ISZERO PUSH2 0xD2 JUMPI PUSH1 0x0 DUP1 REVERT JUMPDEST POP PUSH1 0x2 SLOAD PUSH1 0x4 PUSH1 0x0 CALLER PUSH20 0xFFFFFFFFFFFFFFFFFFFFFFFFFFFFFFFFFFFFFFFF AND PUSH20 0xFFFFFFFFFFFFFFFFFFFFFFFFFFFFFFFFFFFFFFFF AND DUP2 MSTORE PUSH1 0x20 ADD SWAP1 DUP2 MSTORE PUSH1 0x20 ADD PUSH1 0x0 KECCAK256 DUP2 SWAP1 SSTORE POP PUSH2 0x222 JUMP JUMPDEST DUP3 DUP1 SLOAD PUSH2 0x12A SWAP1 PUSH2 0x1C1 JUMP JUMPDEST SWAP1 PUSH1 0x0 MSTORE PUSH1 0x20 PUSH1 0x0 KECCAK256 SWAP1 PUSH1 0x1F ADD PUSH1 0x20 SWAP1 DIV DUP2 ADD SWAP3 DUP3 PUSH2 0x14C JUMPI PUSH1 0x0 DUP6 SSTORE PUSH2 0x193 JUMP JUMPDEST DUP3 PUSH1 0x1F LT PUSH2 0x165 JUMPI DUP1 MLOAD PUSH1 0xFF NOT AND DUP4 DUP1 ADD OR DUP6 SSTORE PUSH2 0x193 JUMP JUMPDEST DUP3 DUP1 ADD PUSH1 0x1 ADD DUP6 SSTORE DUP3 ISZERO PUSH2 0x193 JUMPI SWAP2 DUP3 ADD JUMPDEST DUP3 DUP2 GT ISZERO PUSH2 0x192 JUMPI DUP3 MLOAD DUP3 SSTORE SWAP2 PUSH1 0x20 ADD SWAP2 SWAP1 PUSH1 0x1 ADD SWAP1 PUSH2 0x177 JUMP JUMPDEST JUMPDEST POP SWAP1 POP PUSH2 0x1A0 SWAP2 SWAP1 PUSH2 0x1A4 JUMP JUMPDEST POP SWAP1 JUMP JUMPDEST JUMPDEST DUP1 DUP3 GT ISZERO PUSH2 0x1BD JUMPI PUSH1 0x0 DUP2 PUSH1 0x0 SWAP1 SSTORE POP PUSH1 0x1 ADD PUSH2 0x1A5 JUMP JUMPDEST POP SWAP1 JUMP JUMPDEST PUSH1 0x0 PUSH1 0x2 DUP3 DIV SWAP1 POP PUSH1 0x1 DUP3 AND DUP1 PUSH2 0x1D9 JUMPI PUSH1 0x7F DUP3 AND SWAP2 POP JUMPDEST PUSH1 0x20 DUP3 LT DUP2 EQ ISZERO PUSH2 0x1ED JUMPI PUSH2 0x1EC PUSH2 0x1F3 JUMP JUMPDEST JUMPDEST POP SWAP2 SWAP1 POP JUMP JUMPDEST PUSH32 0x4E487B7100000000000000000000000000000000000000000000000000000000 PUSH1 0x0 MSTORE PUSH1 0x22 PUSH1 0x4 MSTORE PUSH1 0x24 PUSH1 0x0 REVERT JUMPDEST PUSH2 0x7C9 DUP1 PUSH2 0x231 PUSH1 0x0 CODECOPY PUSH1 0x0 RETURN INVALID PUSH1 0x80 PUSH1 0x40 MSTORE CALLVALUE DUP1 ISZERO PUSH2 0x10 JUMPI PUSH1 0x0 DUP1 REVERT JUMPDEST POP PUSH1 0x4 CALLDATASIZE LT PUSH2 0x7D JUMPI PUSH1 0x0 CALLDATALOAD PUSH1 0xE0 SHR DUP1 PUSH4 0x70A08231 GT PUSH2 0x5B JUMPI DUP1 PUSH4 0x70A08231 EQ PUSH2 0xDC JUMPI DUP1 PUSH4 0x95D89B41 EQ PUSH2 0x10C JUMPI DUP1 PUSH4 0xA9059CBB EQ PUSH2 0x12A JUMPI DUP1 PUSH4 0xDD62ED3E EQ PUSH2 0x15A JUMPI PUSH2 0x7D JUMP JUMPDEST DUP1 PUSH4 0x6FDDE03 EQ PUSH2 0x82 JUMPI DUP1 PUSH4 0x18160DDD EQ PUSH2 0xA0 JUMPI DUP1 PUSH4 0x313CE567 EQ PUSH2 0xBE JUMPI JUMPDEST PUSH1 0x0 DUP1 REVERT JUMPDEST PUSH2 0x8A PUSH2 0x18A JUMP JUMPDEST PUSH1 0x40 MLOAD PUSH2 0x97 SWAP2 SWAP1 PUSH2 0x54B JUMP JUMPDEST PUSH1 0x40 MLOAD DUP1 SWAP2 SUB SWAP1 RETURN JUMPDEST PUSH2 0xA8 PUSH2 0x218 JUMP JUMPDEST PUSH1 0x40 MLOAD PUSH2 0xB5 SWAP2 SWAP1 PUSH2 0x58D JUMP JUMPDEST PUSH1 0x40 MLOAD DUP1 SWAP2 SUB SWAP1 RETURN JUMPDEST PUSH2 0xC6 PUSH2 0x21E JUMP JUMPDEST PUSH1 0x40 MLOAD PUSH2 0xD3 SWAP2 SWAP1 PUSH2 0x5A8 JUMP JUMPDEST PUSH1 0x40 MLOAD DUP1 SWAP2 SUB SWAP1 RETURN JUMPDEST PUSH2 0xF6 PUSH1 0x4 DUP1 CALLDATASIZE SUB DUP2 ADD SWAP1 PUSH2 0xF1 SWAP2 SWAP1 PUSH2 0x406 JUMP JUMPDEST PUSH2 0x231 JUMP JUMPDEST PUSH1 0x40 MLOAD PUSH2 0x103 SWAP2 SWAP1 PUSH2 0x58D JUMP JUMPDEST PUSH1 0x40 MLOAD DUP1 SWAP2 SUB SWAP1 RETURN JUMPDEST PUSH2 0x114 PUSH2 0x249 JUMP JUMPDEST PUSH1 0x40 MLOAD PUSH2 0x121 SWAP2 SWAP1 PUSH2 0x54B JUMP JUMPDEST PUSH1 0x40 MLOAD DUP1 SWAP2 SUB SWAP1 RETURN JUMPDEST PUSH2 0x144 PUSH1 0x4 DUP1 CALLDATASIZE SUB DUP2 ADD SWAP1 PUSH2 0x13F SWAP2 SWAP1 PUSH2 0x46B JUMP JUMPDEST PUSH2 0x2D7 JUMP JUMPDEST PUSH1 0x40 MLOAD PUSH2 0x151 SWAP2 SWAP1 PUSH2 0x530 JUMP JUMPDEST PUSH1 0x40 MLOAD DUP1 SWAP2 SUB SWAP1 RETURN JUMPDEST PUSH2 0x174 PUSH1 0x4 DUP1 CALLDATASIZE SUB DUP2 ADD SWAP1 PUSH2 0x16F SWAP2 SWAP1 PUSH2 0x42F JUMP JUMPDEST PUSH2 0x3B7 JUMP JUMPDEST PUSH1 0x40 MLOAD PUSH2 0x181 SWAP2 SWAP1 PUSH2 0x58D JUMP JUMPDEST PUSH1 0x40 MLOAD DUP1 SWAP2 SUB SWAP1 RETURN JUMPDEST PUSH1 0x0 DUP1 SLOAD PUSH2 0x197 SWAP1 PUSH2 0x69B JUMP JUMPDEST DUP1 PUSH1 0x1F ADD PUSH1 0x20 DUP1 SWAP2 DIV MUL PUSH1 0x20 ADD PUSH1 0x40 MLOAD SWAP1 DUP2 ADD PUSH1 0x40 MSTORE DUP1 SWAP3 SWAP2 SWAP1 DUP2 DUP2 MSTORE PUSH1 0x20 ADD DUP3 DUP1 SLOAD PUSH2 0x1C3 SWAP1 PUSH2 0x69B JUMP JUMPDEST DUP1 ISZERO PUSH2 0x210 JUMPI DUP1 PUSH1 0x1F LT PUSH2 0x1E5 JUMPI PUSH2 0x100 DUP1 DUP4 SLOAD DIV MUL DUP4 MSTORE SWAP2 PUSH1 0x20 ADD SWAP2 PUSH2 0x210 JUMP JUMPDEST DUP3 ADD SWAP2 SWAP1 PUSH1 0x0 MSTORE PUSH1 0x20 PUSH1 0x0 KECCAK256 SWAP1 JUMPDEST DUP2 SLOAD DUP2 MSTORE SWAP1 PUSH1 0x1 ADD SWAP1 PUSH1 0x20 ADD DUP1 DUP4 GT PUSH2 0x1F3 JUMPI DUP3 SWAP1 SUB PUSH1 0x1F AND DUP3 ADD SWAP2 JUMPDEST POP POP POP POP POP DUP2 JUMP JUMPDEST PUSH1 0x2 SLOAD DUP2 JUMP JUMPDEST PUSH1 0x3 PUSH1 0x0 SWAP1 SLOAD SWAP1 PUSH2 0x100 EXP SWAP1 DIV PUSH1 0xFF AND DUP2 JUMP JUMPDEST PUSH1 0x4 PUSH1 0x20 MSTORE DUP1 PUSH1 0x0 MSTORE PUSH1 0x40 PUSH1 0x0 KECCAK256 PUSH1 0x0 SWAP2 POP SWAP1 POP SLOAD DUP2 JUMP JUMPDEST PUSH1 0x1 DUP1 SLOAD PUSH2 0x256 SWAP1 PUSH2 0x69B JUMP JUMPDEST DUP1 PUSH1 0x1F ADD PUSH1 0x20 DUP1 SWAP2 DIV MUL PUSH1 0x20 ADD PUSH1 0x40 MLOAD SWAP1 DUP2 ADD PUSH1 0x40 MSTORE DUP1 SWAP3 SWAP2 SWAP1 DUP2 DUP2 MSTORE PUSH1 0x20 ADD DUP3 DUP1 SLOAD PUSH2 0x282 SWAP1 PUSH2 0x69B JUMP JUMPDEST DUP1 ISZERO PUSH2 0x2CF JUMPI DUP1 PUSH1 0x1F LT PUSH2 0x2A4 JUMPI PUSH2 0x100 DUP1 DUP4 SLOAD DIV MUL DUP4 MSTORE SWAP2 PUSH1 0x20 ADD SWAP2 PUSH2 0x2CF JUMP JUMPDEST DUP3 ADD SWAP2 SWAP1 PUSH1 0x0 MSTORE PUSH1 0x20 PUSH1 0x0 KECCAK256 SWAP1 JUMPDEST DUP2 SLOAD DUP2 MSTORE SWAP1 PUSH1 0x1 ADD SWAP1 PUSH1 0x20 ADD DUP1 DUP4 GT PUSH2 0x2B2 JUMPI DUP3 SWAP1 SUB PUSH1 0x1F AND DUP3 ADD SWAP2 JUMPDEST POP POP POP POP POP DUP2 JUMP JUMPDEST PUSH1 0x0 DUP2 PUSH1 0x4 PUSH1 0x0 CALLER PUSH20 0xFFFFFFFFFFFFFFFFFFFFFFFFFFFFFFFFFFFFFFFF AND PUSH20 0xFFFFFFFFFFFFFFFFFFFFFFFFFFFFFFFFFFFFFFFF AND DUP2 MSTORE PUSH1 0x20 ADD SWAP1 DUP2 MSTORE PUSH1 0x20 ADD PUSH1 0x0 KECCAK256 SLOAD LT ISZERO PUSH2 0x35B JUMPI PUSH1 0x40 MLOAD PUSH32 0x8C379A000000000000000000000000000000000000000000000000000000000 DUP2 MSTORE PUSH1 0x4 ADD PUSH2 0x352 SWAP1 PUSH2 0x56D JUMP JUMPDEST PUSH1 0x40 MLOAD DUP1 SWAP2 SUB SWAP1 REVERT JUMPDEST DUP2 PUSH1 0x4 PUSH1 0x0 CALLER PUSH20 0xFFFFFFFFFFFFFFFFFFFFFFFFFFFFFFFFFFFFFFFF AND PUSH20 0xFFFFFFFFFFFFFFFFFFFFFFFFFFFFFFFFFFFFFFFF AND DUP2 MSTORE PUSH1 0x20 ADD SWAP1 DUP2 MSTORE PUSH1 0x20 ADD PUSH1 0x0 KECCAK256 PUSH1 0x0 DUP3 DUP3 SLOAD PUSH2 0x3AA SWAP2 SWAP1 PUSH2 0x5DF JUMP JUMPDEST SWAP3 POP POP DUP2 SWAP1 SSTORE POP SWAP3 SWAP2 POP POP JUMP JUMPDEST PUSH1 0x5 PUSH1 0x20 MSTORE DUP2 PUSH1 0x0 MSTORE PUSH1 0x40 PUSH1 0x0 KECCAK256 PUSH1 0x20 MSTORE DUP1 PUSH1 0x0 MSTORE PUSH1 0x40 PUSH1 0x0 KECCAK256 PUSH1 0x0 SWAP2 POP SWAP2 POP POP SLOAD DUP2 JUMP JUMPDEST PUSH1 0x0 DUP2 CALLDATALOAD SWAP1 POP PUSH2 0x3EB DUP2 PUSH2 0x765 JUMP JUMPDEST SWAP3 SWAP2 POP POP JUMP JUMPDEST PUSH1 0x0 DUP2 CALLDATALOAD SWAP1 POP PUSH2 0x400 DUP2 PUSH2 0x77C JUMP JUMPDEST SWAP3 SWAP2 POP POP JUMP JUMPDEST PUSH1 0x0 PUSH1 0x20 DUP3 DUP5 SUB SLT ISZERO PUSH2 0x418 JUMPI PUSH1 0x0 DUP1 REVERT JUMPDEST PUSH1 0x0 PUSH2 0x426 DUP5 DUP3 DUP6 ADD PUSH2 0x3DC JUMP JUMPDEST SWAP2 POP POP SWAP3 SWAP2 POP POP JUMP JUMPDEST PUSH1 0x0 DUP1 PUSH1 0x40 DUP4 DUP6 SUB SLT ISZERO PUSH2 0x442 JUMPI PUSH1 0x0 DUP1 REVERT JUMPDEST PUSH1 0x0 PUSH2 0x450 DUP6 DUP3 DUP7 ADD PUSH2 0x3DC JUMP JUMPDEST SWAP3 POP POP PUSH1 0x20 PUSH2 0x461 DUP6 DUP3 DUP7 ADD PUSH2 0x3DC JUMP JUMPDEST SWAP2 POP POP SWAP3 POP SWAP3 SWAP1 POP JUMP JUMPDEST PUSH1 0x0 DUP1 PUSH1 0x40 DUP4 DUP6 SUB SLT ISZERO PUSH2 0x47E JUMPI PUSH1 0x0 DUP1 REVERT JUMPDEST PUSH1 0x0 PUSH2 0x48C DUP6 DUP3 DUP7 ADD PUSH2 0x3DC JUMP JUMPDEST SWAP3 POP POP PUSH1 0x20 PUSH2 0x49D DUP6 DUP3 DUP7 ADD PUSH2 0x3F1 JUMP JUMPDEST SWAP2 POP POP SWAP3 POP SWAP3 SWAP1 POP JUMP JUMPDEST PUSH2 0x4B0 DUP2 PUSH2 0x625 JUMP JUMPDEST DUP3 MSTORE POP POP JUMP JUMPDEST PUSH1 0x0 PUSH2 0x4C1 DUP3 PUSH2 0x5C3 JUMP JUMPDEST PUSH2 0x4CB DUP2 DUP6 PUSH2 0x5CE JUMP JUMPDEST SWAP4 POP PUSH2 0x4DB DUP2 DUP6 PUSH1 0x20 DUP7 ADD PUSH2 0x668 JUMP JUMPDEST PUSH2 0x4E4 DUP2 PUSH2 0x72B JUMP JUMPDEST DUP5 ADD SWAP2 POP POP SWAP3 SWAP2 POP POP JUMP JUMPDEST PUSH1 0x0 PUSH2 0x4FC PUSH1 0x13 DUP4 PUSH2 0x5CE JUMP JUMPDEST SWAP2 POP PUSH2 0x507 DUP3 PUSH2 0x73C JUMP JUMPDEST PUSH1 0x20 DUP3 ADD SWAP1 POP SWAP2 SWAP1 POP JUMP JUMPDEST PUSH2 0x51B DUP2 PUSH2 0x651 JUMP JUMPDEST DUP3 MSTORE POP POP JUMP JUMPDEST PUSH2 0x52A DUP2 PUSH2 0x65B JUMP JUMPDEST DUP3 MSTORE POP POP JUMP JUMPDEST PUSH1 0x0 PUSH1 0x20 DUP3 ADD SWAP1 POP PUSH2 0x545 PUSH1 0x0 DUP4 ADD DUP5 PUSH2 0x4A7 JUMP JUMPDEST SWAP3 SWAP2 POP POP JUMP JUMPDEST PUSH1 0x0 PUSH1 0x20 DUP3 ADD SWAP1 POP DUP2 DUP2 SUB PUSH1 0x0 DUP4 ADD MSTORE PUSH2 0x565 DUP2 DUP5 PUSH2 0x4B6 JUMP JUMPDEST SWAP1 POP SWAP3 SWAP2 POP POP JUMP JUMPDEST PUSH1 0x0 PUSH1 0x20 DUP3 ADD SWAP1 POP DUP2 DUP2 SUB PUSH1 0x0 DUP4 ADD MSTORE PUSH2 0x586 DUP2 PUSH2 0x4EF JUMP JUMPDEST SWAP1 POP SWAP2 SWAP1 POP JUMP JUMPDEST PUSH1 0x0 PUSH1 0x20 DUP3 ADD SWAP1 POP PUSH2 0x5A2 PUSH1 0x0 DUP4 ADD DUP5 PUSH2 0x512 JUMP JUMPDEST SWAP3 SWAP2 POP POP JUMP JUMPDEST PUSH1 0x0 PUSH1 0x20 DUP3 ADD SWAP1 POP PUSH2 0x5BD PUSH1 0x0 DUP4 ADD DUP5 PUSH2 0x521 JUMP JUMPDEST SWAP3 SWAP2 POP POP JUMP JUMPDEST PUSH1 0x0 DUP2 MLOAD SWAP1 POP SWAP2 SWAP1 POP JUMP JUMPDEST PUSH1 0x0 DUP3 DUP3 MSTORE PUSH1 0x20 DUP3 ADD SWAP1 POP SWAP3 SWAP2 POP POP JUMP JUMPDEST PUSH1 0x0 PUSH2 0x5EA DUP3 PUSH2 0x651 JUMP JUMPDEST SWAP2 POP PUSH2 0x5F5 DUP4 PUSH2 0x651 JUMP JUMPDEST SWAP3 POP DUP3 DUP3 LT ISZERO PUSH2 0x608 JUMPI PUSH2 0x607 PUSH2 0x6CD JUMP JUMPDEST JUMPDEST DUP3 DUP3 SUB SWAP1 POP SWAP3 SWAP2 POP POP JUMP JUMPDEST PUSH1 0x0 PUSH2 0x61E DUP3 PUSH2 0x631 JUMP JUMPDEST SWAP1 POP SWAP2 SWAP1 POP JUMP JUMPDEST PUSH1 0x0 DUP2 ISZERO ISZERO SWAP1 POP SWAP2 SWAP1 POP JUMP JUMPDEST PUSH1 0x0 PUSH20 0xFFFFFFFFFFFFFFFFFFFFFFFFFFFFFFFFFFFFFFFF DUP3 AND SWAP1 POP SWAP2 SWAP1 POP JUMP JUMPDEST PUSH1 0x0 DUP2 SWAP1 POP SWAP2 SWAP1 POP JUMP JUMPDEST PUSH1 0x0 PUSH1 0xFF DUP3 AND SWAP1 POP SWAP2 SWAP1 POP JUMP JUMPDEST PUSH1 0x0 JUMPDEST DUP4 DUP2 LT ISZERO PUSH2 0x686 JUMPI DUP1 DUP3 ADD MLOAD DUP2 DUP5 ADD MSTORE PUSH1 0x20 DUP2 ADD SWAP1 POP PUSH2 0x66B JUMP JUMPDEST DUP4 DUP2 GT ISZERO PUSH2 0x695 JUMPI PUSH1 0x0 DUP5 DUP5 ADD MSTORE JUMPDEST POP POP POP POP JUMP JUMPDEST PUSH1 0x0 PUSH1 0x2 DUP3 DIV SWAP1 POP PUSH1 0x1 DUP3 AND DUP1 PUSH2 0x6B3 JUMPI PUSH1 0x7F DUP3 AND SWAP2 POP JUMPDEST PUSH1 0x20 DUP3 LT DUP2 EQ ISZERO PUSH2 0x6C7 JUMPI PUSH2 0x6C6 PUSH2 0x6FC JUMP JUMPDEST JUMPDEST POP SWAP2 SWAP1 POP JUMP JUMPDEST PUSH32 0x4E487B7100000000000000000000000000000000000000000000000000000000 PUSH1 0x0 MSTORE PUSH1 0x11 PUSH1 0x4 MSTORE PUSH1 0x24 PUSH1 0x0 REVERT JUMPDEST PUSH32 0x4E487B7100000000000000000000000000000000000000000000000000000000 PUSH1 0x0 MSTORE PUSH1 0x22 PUSH1 0x4 MSTORE PUSH1 0x24 PUSH1 0x0 REVERT JUMPDEST PUSH1 0x0 PUSH1 0x1F NOT PUSH1 0x1F DUP4 ADD AND SWAP1 POP SWAP2 SWAP1 POP JUMP JUMPDEST PUSH32 0x496E737566756369656E742042616C616E636500000000000000000000000000 PUSH1 0x0 DUP3 ADD MSTORE POP JUMP JUMPDEST PUSH2 0x76E DUP2 PUSH2 0x613 JUMP JUMPDEST DUP2 EQ PUSH2 0x779 JUMPI PUSH1 0x0 DUP1 REVERT JUMPDEST POP JUMP JUMPDEST PUSH2 0x785 DUP2 PUSH2 0x651 JUMP JUMPDEST DUP2 EQ PUSH2 0x790 JUMPI PUSH1 0x0 DUP1 REVERT JUMPDEST POP JUMP INVALID LOG2 PUSH5 0x6970667358 0x22 SLT KECCAK256 RETURNDATACOPY SLOAD 0xF8 0xE BYTE CREATE SWAP9 0xBE DUP11 0xA7 SWAP10 PUSH24 0x8F846944407DF092CEA2958CF570464A2EF210464736F6C PUSH4 0x43000804 STOP CALLER "
				},
				"gasEstimates": {
					"creation": {
						"codeDepositCost": "398600",
						"executionCost": "infinite",
						"totalCost": "infinite"
					},
					"external": {
						"allowance(address,address)": "infinite",
						"balanceOf(address)": "1514",
						"decimals()": "1216",
						"name()": "infinite",
						"symbol()": "infinite",
						"totalSupply()": "1152",
						"transfer(address,uint256)": "infinite"
					}
				},
				"methodIdentifiers": {
					"allowance(address,address)": "dd62ed3e",
					"balanceOf(address)": "70a08231",
					"decimals()": "313ce567",
					"name()": "06fdde03",
					"symbol()": "95d89b41",
					"totalSupply()": "18160ddd",
					"transfer(address,uint256)": "a9059cbb"
				}
			},
			"storageLayout": {
				"storage": [
					{
						"astId": 4,
						"contract": "contracts/DEFIToken.sol:DefiToken",
						"label": "name",
						"offset": 0,
						"slot": "0",
						"type": "t_string_storage"
					},
					{
						"astId": 7,
						"contract": "contracts/DEFIToken.sol:DefiToken",
						"label": "symbol",
						"offset": 0,
						"slot": "1",
						"type": "t_string_storage"
					},
					{
						"astId": 10,
						"contract": "contracts/DEFIToken.sol:DefiToken",
						"label": "totalSupply",
						"offset": 0,
						"slot": "2",
						"type": "t_uint256"
					},
					{
						"astId": 13,
						"contract": "contracts/DEFIToken.sol:DefiToken",
						"label": "decimals",
						"offset": 0,
						"slot": "3",
						"type": "t_uint8"
					},
					{
						"astId": 33,
						"contract": "contracts/DEFIToken.sol:DefiToken",
						"label": "balanceOf",
						"offset": 0,
						"slot": "4",
						"type": "t_mapping(t_address,t_uint256)"
					},
					{
						"astId": 39,
						"contract": "contracts/DEFIToken.sol:DefiToken",
						"label": "allowance",
						"offset": 0,
						"slot": "5",
						"type": "t_mapping(t_address,t_mapping(t_address,t_uint256))"
					}
				],
				"types": {
					"t_address": {
						"encoding": "inplace",
						"label": "address",
						"numberOfBytes": "20"
					},
					"t_mapping(t_address,t_mapping(t_address,t_uint256))": {
						"encoding": "mapping",
						"key": "t_address",
						"label": "mapping(address => mapping(address => uint256))",
						"numberOfBytes": "32",
						"value": "t_mapping(t_address,t_uint256)"
					},
					"t_mapping(t_address,t_uint256)": {
						"encoding": "mapping",
						"key": "t_address",
						"label": "mapping(address => uint256)",
						"numberOfBytes": "32",
						"value": "t_uint256"
					},
					"t_string_storage": {
						"encoding": "bytes",
						"label": "string",
						"numberOfBytes": "32"
					},
					"t_uint256": {
						"encoding": "inplace",
						"label": "uint256",
						"numberOfBytes": "32"
					},
					"t_uint8": {
						"encoding": "inplace",
						"label": "uint8",
						"numberOfBytes": "1"
					}
				}
			},
			"userdoc": {
				"kind": "user",
				"methods": {},
				"version": 1
			}
		}
	}
}