{
	"contracts/FarmContract.sol": {
		"FarmContract": {
			"abi": [
				{
					"inputs": [
						{
							"internalType": "contract DefiToken",
							"name": "_defiToken",
							"type": "address"
						},
						{
							"internalType": "contract RewardDEFIToken",
							"name": "_rewardDefiToken",
							"type": "address"
						}
					],
					"stateMutability": "nonpayable",
					"type": "constructor"
				},
				{
					"inputs": [],
					"name": "defiToken",
					"outputs": [
						{
							"internalType": "contract DefiToken",
							"name": "",
							"type": "address"
						}
					],
					"stateMutability": "view",
					"type": "function"
				},
				{
					"inputs": [
						{
							"internalType": "address",
							"name": "",
							"type": "address"
						}
					],
					"name": "hasStaked",
					"outputs": [
						{
							"internalType": "bool",
							"name": "",
							"type": "bool"
						}
					],
					"stateMutability": "view",
					"type": "function"
				},
				{
					"inputs": [
						{
							"internalType": "address",
							"name": "",
							"type": "address"
						}
					],
					"name": "isStaking",
					"outputs": [
						{
							"internalType": "bool",
							"name": "",
							"type": "bool"
						}
					],
					"stateMutability": "view",
					"type": "function"
				},
				{
					"inputs": [],
					"name": "name",
					"outputs": [
						{
							"internalType": "string",
							"name": "",
							"type": "string"
						}
					],
					"stateMutability": "view",
					"type": "function"
				},
				{
					"inputs": [],
					"name": "owner",
					"outputs": [
						{
							"internalType": "address",
							"name": "",
							"type": "address"
						}
					],
					"stateMutability": "view",
					"type": "function"
				},
				{
					"inputs": [],
					"name": "rewardDefiToken",
					"outputs": [
						{
							"internalType": "contract RewardDEFIToken",
							"name": "",
							"type": "address"
						}
					],
					"stateMutability": "view",
					"type": "function"
				},
				{
					"inputs": [
						{
							"internalType": "uint256",
							"name": "_amount",
							"type": "uint256"
						}
					],
					"name": "stakeTokens",
					"outputs": [],
					"stateMutability": "nonpayable",
					"type": "function"
				},
				{
					"inputs": [
						{
							"internalType": "uint256",
							"name": "",
							"type": "uint256"
						}
					],
					"name": "stakers",
					"outputs": [
						{
							"internalType": "address",
							"name": "",
							"type": "address"
						}
					],
					"stateMutability": "view",
					"type": "function"
				},
				{
					"inputs": [
						{
							"internalType": "address",
							"name": "",
							"type": "address"
						}
					],
					"name": "stakingBalance",
					"outputs": [
						{
							"internalType": "uint256",
							"name": "",
							"type": "uint256"
						}
					],
					"stateMutability": "view",
					"type": "function"
				}
			],
			"devdoc": {
				"kind": "dev",
				"methods": {},
				"version": 1
			},
			"evm": {
				"assembly": "    /* \"contracts/FarmContract.sol\":122:907  contract FarmContract {\r... */\n  mstore(0x40, 0x80)\n    /* \"contracts/FarmContract.sol\":174:206  string public name = \"DEFI Farm\" */\n  mload(0x40)\n  dup1\n  0x40\n  add\n  0x40\n  mstore\n  dup1\n  0x09\n  dup2\n  mstore\n  0x20\n  add\n  0x44454649204661726d0000000000000000000000000000000000000000000000\n  dup2\n  mstore\n  pop\n  0x00\n  swap1\n  dup1\n  mload\n  swap1\n  0x20\n  add\n  swap1\n  tag_1\n  swap3\n  swap2\n  swap1\n  tag_2\n  jump\t// in\ntag_1:\n  pop\n    /* \"contracts/FarmContract.sol\":502:685  constructor(DefiToken _defiToken, RewardDEFIToken _rewardDefiToken) {\r... */\n  callvalue\n  dup1\n  iszero\n  tag_3\n  jumpi\n  0x00\n  dup1\n  revert\ntag_3:\n  pop\n  mload(0x40)\n  sub(codesize, bytecodeSize)\n  dup1\n  bytecodeSize\n  dup4\n  codecopy\n  dup2\n  dup2\n  add\n  0x40\n  mstore\n  dup2\n  add\n  swap1\n  tag_4\n  swap2\n  swap1\n  tag_5\n  jump\t// in\ntag_4:\n    /* \"contracts/FarmContract.sol\":593:603  _defiToken */\n  dup2\n    /* \"contracts/FarmContract.sol\":581:590  defiToken */\n  0x02\n  0x00\n    /* \"contracts/FarmContract.sol\":581:603  defiToken = _defiToken */\n  0x0100\n  exp\n  dup2\n  sload\n  dup2\n  0xffffffffffffffffffffffffffffffffffffffff\n  mul\n  not\n  and\n  swap1\n  dup4\n  0xffffffffffffffffffffffffffffffffffffffff\n  and\n  mul\n  or\n  swap1\n  sstore\n  pop\n    /* \"contracts/FarmContract.sol\":632:648  _rewardDefiToken */\n  dup1\n    /* \"contracts/FarmContract.sol\":614:629  rewardDefiToken */\n  0x03\n  0x00\n    /* \"contracts/FarmContract.sol\":614:648  rewardDefiToken = _rewardDefiToken */\n  0x0100\n  exp\n  dup2\n  sload\n  dup2\n  0xffffffffffffffffffffffffffffffffffffffff\n  mul\n  not\n  and\n  swap1\n  dup4\n  0xffffffffffffffffffffffffffffffffffffffff\n  and\n  mul\n  or\n  swap1\n  sstore\n  pop\n    /* \"contracts/FarmContract.sol\":667:677  msg.sender */\n  caller\n    /* \"contracts/FarmContract.sol\":659:664  owner */\n  0x01\n  0x00\n    /* \"contracts/FarmContract.sol\":659:677  owner = msg.sender */\n  0x0100\n  exp\n  dup2\n  sload\n  dup2\n  0xffffffffffffffffffffffffffffffffffffffff\n  mul\n  not\n  and\n  swap1\n  dup4\n  0xffffffffffffffffffffffffffffffffffffffff\n  and\n  mul\n  or\n  swap1\n  sstore\n  pop\n    /* \"contracts/FarmContract.sol\":502:685  constructor(DefiToken _defiToken, RewardDEFIToken _rewardDefiToken) {\r... */\n  pop\n  pop\n    /* \"contracts/FarmContract.sol\":122:907  contract FarmContract {\r... */\n  jump(tag_8)\ntag_2:\n  dup3\n  dup1\n  sload\n  tag_9\n  swap1\n  tag_10\n  jump\t// in\ntag_9:\n  swap1\n  0x00\n  mstore\n  keccak256(0x00, 0x20)\n  swap1\n  0x1f\n  add\n  0x20\n  swap1\n  div\n  dup2\n  add\n  swap3\n  dup3\n  tag_12\n  jumpi\n  0x00\n  dup6\n  sstore\n  jump(tag_11)\ntag_12:\n  dup3\n  0x1f\n  lt\n  tag_13\n  jumpi\n  dup1\n  mload\n  not(0xff)\n  and\n  dup4\n  dup1\n  add\n  or\n  dup6\n  sstore\n  jump(tag_11)\ntag_13:\n  dup3\n  dup1\n  add\n  0x01\n  add\n  dup6\n  sstore\n  dup3\n  iszero\n  tag_11\n  jumpi\n  swap2\n  dup3\n  add\ntag_14:\n  dup3\n  dup2\n  gt\n  iszero\n  tag_15\n  jumpi\n  dup3\n  mload\n  dup3\n  sstore\n  swap2\n  0x20\n  add\n  swap2\n  swap1\n  0x01\n  add\n  swap1\n  jump(tag_14)\ntag_15:\ntag_11:\n  pop\n  swap1\n  pop\n  tag_16\n  swap2\n  swap1\n  tag_17\n  jump\t// in\ntag_16:\n  pop\n  swap1\n  jump\t// out\ntag_17:\ntag_18:\n  dup1\n  dup3\n  gt\n  iszero\n  tag_19\n  jumpi\n  0x00\n  dup2\n  0x00\n  swap1\n  sstore\n  pop\n  0x01\n  add\n  jump(tag_18)\ntag_19:\n  pop\n  swap1\n  jump\t// out\n    /* \"#utility.yul\":7:184   */\ntag_21:\n    /* \"#utility.yul\":81:86   */\n  0x00\n    /* \"#utility.yul\":112:118   */\n  dup2\n    /* \"#utility.yul\":106:119   */\n  mload\n    /* \"#utility.yul\":97:119   */\n  swap1\n  pop\n    /* \"#utility.yul\":128:178   */\n  tag_23\n    /* \"#utility.yul\":172:177   */\n  dup2\n    /* \"#utility.yul\":128:178   */\n  tag_24\n  jump\t// in\ntag_23:\n    /* \"#utility.yul\":87:184   */\n  swap3\n  swap2\n  pop\n  pop\n  jump\t// out\n    /* \"#utility.yul\":190:379   */\ntag_25:\n    /* \"#utility.yul\":270:275   */\n  0x00\n    /* \"#utility.yul\":301:307   */\n  dup2\n    /* \"#utility.yul\":295:308   */\n  mload\n    /* \"#utility.yul\":286:308   */\n  swap1\n  pop\n    /* \"#utility.yul\":317:373   */\n  tag_27\n    /* \"#utility.yul\":367:372   */\n  dup2\n    /* \"#utility.yul\":317:373   */\n  tag_28\n  jump\t// in\ntag_27:\n    /* \"#utility.yul\":276:379   */\n  swap3\n  swap2\n  pop\n  pop\n  jump\t// out\n    /* \"#utility.yul\":385:905   */\ntag_5:\n    /* \"#utility.yul\":504:510   */\n  0x00\n    /* \"#utility.yul\":512:518   */\n  dup1\n    /* \"#utility.yul\":561:563   */\n  0x40\n    /* \"#utility.yul\":549:558   */\n  dup4\n    /* \"#utility.yul\":540:547   */\n  dup6\n    /* \"#utility.yul\":536:559   */\n  sub\n    /* \"#utility.yul\":532:564   */\n  slt\n    /* \"#utility.yul\":529:531   */\n  iszero\n  tag_30\n  jumpi\n    /* \"#utility.yul\":577:578   */\n  0x00\n    /* \"#utility.yul\":574:575   */\n  dup1\n    /* \"#utility.yul\":567:579   */\n  revert\n    /* \"#utility.yul\":529:531   */\ntag_30:\n    /* \"#utility.yul\":620:621   */\n  0x00\n    /* \"#utility.yul\":645:726   */\n  tag_31\n    /* \"#utility.yul\":718:725   */\n  dup6\n    /* \"#utility.yul\":709:715   */\n  dup3\n    /* \"#utility.yul\":698:707   */\n  dup7\n    /* \"#utility.yul\":694:716   */\n  add\n    /* \"#utility.yul\":645:726   */\n  tag_21\n  jump\t// in\ntag_31:\n    /* \"#utility.yul\":635:726   */\n  swap3\n  pop\n    /* \"#utility.yul\":591:736   */\n  pop\n    /* \"#utility.yul\":775:777   */\n  0x20\n    /* \"#utility.yul\":801:888   */\n  tag_32\n    /* \"#utility.yul\":880:887   */\n  dup6\n    /* \"#utility.yul\":871:877   */\n  dup3\n    /* \"#utility.yul\":860:869   */\n  dup7\n    /* \"#utility.yul\":856:878   */\n  add\n    /* \"#utility.yul\":801:888   */\n  tag_25\n  jump\t// in\ntag_32:\n    /* \"#utility.yul\":791:888   */\n  swap2\n  pop\n    /* \"#utility.yul\":746:898   */\n  pop\n    /* \"#utility.yul\":519:905   */\n  swap3\n  pop\n  swap3\n  swap1\n  pop\n  jump\t// out\n    /* \"#utility.yul\":911:1007   */\ntag_33:\n    /* \"#utility.yul\":948:955   */\n  0x00\n    /* \"#utility.yul\":977:1001   */\n  tag_35\n    /* \"#utility.yul\":995:1000   */\n  dup3\n    /* \"#utility.yul\":977:1001   */\n  tag_36\n  jump\t// in\ntag_35:\n    /* \"#utility.yul\":966:1001   */\n  swap1\n  pop\n    /* \"#utility.yul\":956:1007   */\n  swap2\n  swap1\n  pop\n  jump\t// out\n    /* \"#utility.yul\":1013:1126   */\ntag_37:\n    /* \"#utility.yul\":1067:1074   */\n  0x00\n    /* \"#utility.yul\":1096:1120   */\n  tag_39\n    /* \"#utility.yul\":1114:1119   */\n  dup3\n    /* \"#utility.yul\":1096:1120   */\n  tag_33\n  jump\t// in\ntag_39:\n    /* \"#utility.yul\":1085:1120   */\n  swap1\n  pop\n    /* \"#utility.yul\":1075:1126   */\n  swap2\n  swap1\n  pop\n  jump\t// out\n    /* \"#utility.yul\":1132:1251   */\ntag_40:\n    /* \"#utility.yul\":1192:1199   */\n  0x00\n    /* \"#utility.yul\":1221:1245   */\n  tag_42\n    /* \"#utility.yul\":1239:1244   */\n  dup3\n    /* \"#utility.yul\":1221:1245   */\n  tag_33\n  jump\t// in\ntag_42:\n    /* \"#utility.yul\":1210:1245   */\n  swap1\n  pop\n    /* \"#utility.yul\":1200:1251   */\n  swap2\n  swap1\n  pop\n  jump\t// out\n    /* \"#utility.yul\":1257:1383   */\ntag_36:\n    /* \"#utility.yul\":1294:1301   */\n  0x00\n    /* \"#utility.yul\":1334:1376   */\n  0xffffffffffffffffffffffffffffffffffffffff\n    /* \"#utility.yul\":1327:1332   */\n  dup3\n    /* \"#utility.yul\":1323:1377   */\n  and\n    /* \"#utility.yul\":1312:1377   */\n  swap1\n  pop\n    /* \"#utility.yul\":1302:1383   */\n  swap2\n  swap1\n  pop\n  jump\t// out\n    /* \"#utility.yul\":1389:1709   */\ntag_10:\n    /* \"#utility.yul\":1433:1439   */\n  0x00\n    /* \"#utility.yul\":1470:1471   */\n  0x02\n    /* \"#utility.yul\":1464:1468   */\n  dup3\n    /* \"#utility.yul\":1460:1472   */\n  div\n    /* \"#utility.yul\":1450:1472   */\n  swap1\n  pop\n    /* \"#utility.yul\":1517:1518   */\n  0x01\n    /* \"#utility.yul\":1511:1515   */\n  dup3\n    /* \"#utility.yul\":1507:1519   */\n  and\n    /* \"#utility.yul\":1538:1556   */\n  dup1\n    /* \"#utility.yul\":1528:1530   */\n  tag_45\n  jumpi\n    /* \"#utility.yul\":1594:1598   */\n  0x7f\n    /* \"#utility.yul\":1586:1592   */\n  dup3\n    /* \"#utility.yul\":1582:1599   */\n  and\n    /* \"#utility.yul\":1572:1599   */\n  swap2\n  pop\n    /* \"#utility.yul\":1528:1530   */\ntag_45:\n    /* \"#utility.yul\":1656:1658   */\n  0x20\n    /* \"#utility.yul\":1648:1654   */\n  dup3\n    /* \"#utility.yul\":1645:1659   */\n  lt\n    /* \"#utility.yul\":1625:1643   */\n  dup2\n    /* \"#utility.yul\":1622:1660   */\n  eq\n    /* \"#utility.yul\":1619:1621   */\n  iszero\n  tag_46\n  jumpi\n    /* \"#utility.yul\":1675:1693   */\n  tag_47\n  tag_48\n  jump\t// in\ntag_47:\n    /* \"#utility.yul\":1619:1621   */\ntag_46:\n    /* \"#utility.yul\":1440:1709   */\n  pop\n  swap2\n  swap1\n  pop\n  jump\t// out\n    /* \"#utility.yul\":1715:1895   */\ntag_48:\n    /* \"#utility.yul\":1763:1840   */\n  0x4e487b7100000000000000000000000000000000000000000000000000000000\n    /* \"#utility.yul\":1760:1761   */\n  0x00\n    /* \"#utility.yul\":1753:1841   */\n  mstore\n    /* \"#utility.yul\":1860:1864   */\n  0x22\n    /* \"#utility.yul\":1857:1858   */\n  0x04\n    /* \"#utility.yul\":1850:1865   */\n  mstore\n    /* \"#utility.yul\":1884:1888   */\n  0x24\n    /* \"#utility.yul\":1881:1882   */\n  0x00\n    /* \"#utility.yul\":1874:1889   */\n  revert\n    /* \"#utility.yul\":1901:2057   */\ntag_24:\n    /* \"#utility.yul\":1991:2032   */\n  tag_51\n    /* \"#utility.yul\":2026:2031   */\n  dup2\n    /* \"#utility.yul\":1991:2032   */\n  tag_37\n  jump\t// in\ntag_51:\n    /* \"#utility.yul\":1984:1989   */\n  dup2\n    /* \"#utility.yul\":1981:2033   */\n  eq\n    /* \"#utility.yul\":1971:1973   */\n  tag_52\n  jumpi\n    /* \"#utility.yul\":2047:2048   */\n  0x00\n    /* \"#utility.yul\":2044:2045   */\n  dup1\n    /* \"#utility.yul\":2037:2049   */\n  revert\n    /* \"#utility.yul\":1971:1973   */\ntag_52:\n    /* \"#utility.yul\":1961:2057   */\n  pop\n  jump\t// out\n    /* \"#utility.yul\":2063:2231   */\ntag_28:\n    /* \"#utility.yul\":2159:2206   */\n  tag_54\n    /* \"#utility.yul\":2200:2205   */\n  dup2\n    /* \"#utility.yul\":2159:2206   */\n  tag_40\n  jump\t// in\ntag_54:\n    /* \"#utility.yul\":2152:2157   */\n  dup2\n    /* \"#utility.yul\":2149:2207   */\n  eq\n    /* \"#utility.yul\":2139:2141   */\n  tag_55\n  jumpi\n    /* \"#utility.yul\":2221:2222   */\n  0x00\n    /* \"#utility.yul\":2218:2219   */\n  dup1\n    /* \"#utility.yul\":2211:2223   */\n  revert\n    /* \"#utility.yul\":2139:2141   */\ntag_55:\n    /* \"#utility.yul\":2129:2231   */\n  pop\n  jump\t// out\n    /* \"contracts/FarmContract.sol\":122:907  contract FarmContract {\r... */\ntag_8:\n  dataSize(sub_0)\n  dup1\n  dataOffset(sub_0)\n  0x00\n  codecopy\n  0x00\n  return\nstop\n\nsub_0: assembly {\n        /* \"contracts/FarmContract.sol\":122:907  contract FarmContract {\r... */\n      mstore(0x40, 0x80)\n      callvalue\n      dup1\n      iszero\n      tag_1\n      jumpi\n      0x00\n      dup1\n      revert\n    tag_1:\n      pop\n      jumpi(tag_2, lt(calldatasize, 0x04))\n      shr(0xe0, calldataload(0x00))\n      dup1\n      0x8da5cb5b\n      gt\n      tag_12\n      jumpi\n      dup1\n      0x8da5cb5b\n      eq\n      tag_7\n      jumpi\n      dup1\n      0xb578fa19\n      eq\n      tag_8\n      jumpi\n      dup1\n      0xc93c8f34\n      eq\n      tag_9\n      jumpi\n      dup1\n      0xea987a1e\n      eq\n      tag_10\n      jumpi\n      dup1\n      0xfd5e6dd1\n      eq\n      tag_11\n      jumpi\n      jump(tag_2)\n    tag_12:\n      dup1\n      0x06fdde03\n      eq\n      tag_3\n      jumpi\n      dup1\n      0x45bc78ab\n      eq\n      tag_4\n      jumpi\n      dup1\n      0x6f49712b\n      eq\n      tag_5\n      jumpi\n      dup1\n      0x7547c7a3\n      eq\n      tag_6\n      jumpi\n    tag_2:\n      0x00\n      dup1\n      revert\n        /* \"contracts/FarmContract.sol\":174:206  string public name = \"DEFI Farm\" */\n    tag_3:\n      tag_13\n      tag_14\n      jump\t// in\n    tag_13:\n      mload(0x40)\n      tag_15\n      swap2\n      swap1\n      tag_16\n      jump\t// in\n    tag_15:\n      mload(0x40)\n      dup1\n      swap2\n      sub\n      swap1\n      return\n        /* \"contracts/FarmContract.sol\":351:397  mapping(address => uint) public stakingBalance */\n    tag_4:\n      tag_17\n      0x04\n      dup1\n      calldatasize\n      sub\n      dup2\n      add\n      swap1\n      tag_18\n      swap2\n      swap1\n      tag_19\n      jump\t// in\n    tag_18:\n      tag_20\n      jump\t// in\n    tag_17:\n      mload(0x40)\n      tag_21\n      swap2\n      swap1\n      tag_22\n      jump\t// in\n    tag_21:\n      mload(0x40)\n      dup1\n      swap2\n      sub\n      swap1\n      return\n        /* \"contracts/FarmContract.sol\":452:493  mapping(address => bool) public isStaking */\n    tag_5:\n      tag_23\n      0x04\n      dup1\n      calldatasize\n      sub\n      dup2\n      add\n      swap1\n      tag_24\n      swap2\n      swap1\n      tag_19\n      jump\t// in\n    tag_24:\n      tag_25\n      jump\t// in\n    tag_23:\n      mload(0x40)\n      tag_26\n      swap2\n      swap1\n      tag_27\n      jump\t// in\n    tag_26:\n      mload(0x40)\n      dup1\n      swap2\n      sub\n      swap1\n      return\n        /* \"contracts/FarmContract.sol\":714:902  function stakeTokens(uint _amount) public {\r... */\n    tag_6:\n      tag_28\n      0x04\n      dup1\n      calldatasize\n      sub\n      dup2\n      add\n      swap1\n      tag_29\n      swap2\n      swap1\n      tag_30\n      jump\t// in\n    tag_29:\n      tag_31\n      jump\t// in\n    tag_28:\n      stop\n        /* \"contracts/FarmContract.sol\":213:233  address public owner */\n    tag_7:\n      tag_32\n      tag_33\n      jump\t// in\n    tag_32:\n      mload(0x40)\n      tag_34\n      swap2\n      swap1\n      tag_35\n      jump\t// in\n    tag_34:\n      mload(0x40)\n      dup1\n      swap2\n      sub\n      swap1\n      return\n        /* \"contracts/FarmContract.sol\":273:311  RewardDEFIToken public rewardDefiToken */\n    tag_8:\n      tag_36\n      tag_37\n      jump\t// in\n    tag_36:\n      mload(0x40)\n      tag_38\n      swap2\n      swap1\n      tag_39\n      jump\t// in\n    tag_38:\n      mload(0x40)\n      dup1\n      swap2\n      sub\n      swap1\n      return\n        /* \"contracts/FarmContract.sol\":404:445  mapping(address => bool) public hasStaked */\n    tag_9:\n      tag_40\n      0x04\n      dup1\n      calldatasize\n      sub\n      dup2\n      add\n      swap1\n      tag_41\n      swap2\n      swap1\n      tag_19\n      jump\t// in\n    tag_41:\n      tag_42\n      jump\t// in\n    tag_40:\n      mload(0x40)\n      tag_43\n      swap2\n      swap1\n      tag_27\n      jump\t// in\n    tag_43:\n      mload(0x40)\n      dup1\n      swap2\n      sub\n      swap1\n      return\n        /* \"contracts/FarmContract.sol\":240:266  DefiToken public defiToken */\n    tag_10:\n      tag_44\n      tag_45\n      jump\t// in\n    tag_44:\n      mload(0x40)\n      tag_46\n      swap2\n      swap1\n      tag_47\n      jump\t// in\n    tag_46:\n      mload(0x40)\n      dup1\n      swap2\n      sub\n      swap1\n      return\n        /* \"contracts/FarmContract.sol\":320:344  address[] public stakers */\n    tag_11:\n      tag_48\n      0x04\n      dup1\n      calldatasize\n      sub\n      dup2\n      add\n      swap1\n      tag_49\n      swap2\n      swap1\n      tag_30\n      jump\t// in\n    tag_49:\n      tag_50\n      jump\t// in\n    tag_48:\n      mload(0x40)\n      tag_51\n      swap2\n      swap1\n      tag_35\n      jump\t// in\n    tag_51:\n      mload(0x40)\n      dup1\n      swap2\n      sub\n      swap1\n      return\n        /* \"contracts/FarmContract.sol\":174:206  string public name = \"DEFI Farm\" */\n    tag_14:\n      0x00\n      dup1\n      sload\n      tag_52\n      swap1\n      tag_53\n      jump\t// in\n    tag_52:\n      dup1\n      0x1f\n      add\n      0x20\n      dup1\n      swap2\n      div\n      mul\n      0x20\n      add\n      mload(0x40)\n      swap1\n      dup2\n      add\n      0x40\n      mstore\n      dup1\n      swap3\n      swap2\n      swap1\n      dup2\n      dup2\n      mstore\n      0x20\n      add\n      dup3\n      dup1\n      sload\n      tag_54\n      swap1\n      tag_53\n      jump\t// in\n    tag_54:\n      dup1\n      iszero\n      tag_55\n      jumpi\n      dup1\n      0x1f\n      lt\n      tag_56\n      jumpi\n      0x0100\n      dup1\n      dup4\n      sload\n      div\n      mul\n      dup4\n      mstore\n      swap2\n      0x20\n      add\n      swap2\n      jump(tag_55)\n    tag_56:\n      dup3\n      add\n      swap2\n      swap1\n      0x00\n      mstore\n      keccak256(0x00, 0x20)\n      swap1\n    tag_57:\n      dup2\n      sload\n      dup2\n      mstore\n      swap1\n      0x01\n      add\n      swap1\n      0x20\n      add\n      dup1\n      dup4\n      gt\n      tag_57\n      jumpi\n      dup3\n      swap1\n      sub\n      0x1f\n      and\n      dup3\n      add\n      swap2\n    tag_55:\n      pop\n      pop\n      pop\n      pop\n      pop\n      dup2\n      jump\t// out\n        /* \"contracts/FarmContract.sol\":351:397  mapping(address => uint) public stakingBalance */\n    tag_20:\n      mstore(0x20, 0x05)\n      dup1\n      0x00\n      mstore\n      keccak256(0x00, 0x40)\n      0x00\n      swap2\n      pop\n      swap1\n      pop\n      sload\n      dup2\n      jump\t// out\n        /* \"contracts/FarmContract.sol\":452:493  mapping(address => bool) public isStaking */\n    tag_25:\n      mstore(0x20, 0x07)\n      dup1\n      0x00\n      mstore\n      keccak256(0x00, 0x40)\n      0x00\n      swap2\n      pop\n      sload\n      swap1\n      0x0100\n      exp\n      swap1\n      div\n      0xff\n      and\n      dup2\n      jump\t// out\n        /* \"contracts/FarmContract.sol\":714:902  function stakeTokens(uint _amount) public {\r... */\n    tag_31:\n        /* \"contracts/FarmContract.sol\":785:786  0 */\n      0x00\n        /* \"contracts/FarmContract.sol\":775:782  _amount */\n      dup2\n        /* \"contracts/FarmContract.sol\":775:786  _amount > 0 */\n      gt\n        /* \"contracts/FarmContract.sol\":767:825  require(_amount > 0, \"The amount must be greather than 0\") */\n      tag_59\n      jumpi\n      mload(0x40)\n      0x08c379a000000000000000000000000000000000000000000000000000000000\n      dup2\n      mstore\n      0x04\n      add\n      tag_60\n      swap1\n      tag_61\n      jump\t// in\n    tag_60:\n      mload(0x40)\n      dup1\n      swap2\n      sub\n      swap1\n      revert\n    tag_59:\n        /* \"contracts/FarmContract.sol\":836:845  defiToken */\n      0x02\n      0x00\n      swap1\n      sload\n      swap1\n      0x0100\n      exp\n      swap1\n      div\n      0xffffffffffffffffffffffffffffffffffffffff\n      and\n        /* \"contracts/FarmContract.sol\":836:858  defiToken.transferFrom */\n      0xffffffffffffffffffffffffffffffffffffffff\n      and\n      0x23b872dd\n        /* \"contracts/FarmContract.sol\":859:869  msg.sender */\n      caller\n        /* \"contracts/FarmContract.sol\":879:883  this */\n      address\n        /* \"contracts/FarmContract.sol\":886:893  _amount */\n      dup5\n        /* \"contracts/FarmContract.sol\":836:894  defiToken.transferFrom(msg.sender, address(this), _amount) */\n      mload(0x40)\n      dup5\n      0xffffffff\n      and\n      0xe0\n      shl\n      dup2\n      mstore\n      0x04\n      add\n      tag_62\n      swap4\n      swap3\n      swap2\n      swap1\n      tag_63\n      jump\t// in\n    tag_62:\n      0x20\n      mload(0x40)\n      dup1\n      dup4\n      sub\n      dup2\n      0x00\n      dup8\n      dup1\n      extcodesize\n      iszero\n      dup1\n      iszero\n      tag_64\n      jumpi\n      0x00\n      dup1\n      revert\n    tag_64:\n      pop\n      gas\n      call\n      iszero\n      dup1\n      iszero\n      tag_66\n      jumpi\n      returndatasize\n      0x00\n      dup1\n      returndatacopy\n      revert(0x00, returndatasize)\n    tag_66:\n      pop\n      pop\n      pop\n      pop\n      mload(0x40)\n      returndatasize\n      not(0x1f)\n      0x1f\n      dup3\n      add\n      and\n      dup3\n      add\n      dup1\n      0x40\n      mstore\n      pop\n      dup2\n      add\n      swap1\n      tag_67\n      swap2\n      swap1\n      tag_68\n      jump\t// in\n    tag_67:\n      pop\n        /* \"contracts/FarmContract.sol\":714:902  function stakeTokens(uint _amount) public {\r... */\n      pop\n      jump\t// out\n        /* \"contracts/FarmContract.sol\":213:233  address public owner */\n    tag_33:\n      0x01\n      0x00\n      swap1\n      sload\n      swap1\n      0x0100\n      exp\n      swap1\n      div\n      0xffffffffffffffffffffffffffffffffffffffff\n      and\n      dup2\n      jump\t// out\n        /* \"contracts/FarmContract.sol\":273:311  RewardDEFIToken public rewardDefiToken */\n    tag_37:\n      0x03\n      0x00\n      swap1\n      sload\n      swap1\n      0x0100\n      exp\n      swap1\n      div\n      0xffffffffffffffffffffffffffffffffffffffff\n      and\n      dup2\n      jump\t// out\n        /* \"contracts/FarmContract.sol\":404:445  mapping(address => bool) public hasStaked */\n    tag_42:\n      mstore(0x20, 0x06)\n      dup1\n      0x00\n      mstore\n      keccak256(0x00, 0x40)\n      0x00\n      swap2\n      pop\n      sload\n      swap1\n      0x0100\n      exp\n      swap1\n      div\n      0xff\n      and\n      dup2\n      jump\t// out\n        /* \"contracts/FarmContract.sol\":240:266  DefiToken public defiToken */\n    tag_45:\n      0x02\n      0x00\n      swap1\n      sload\n      swap1\n      0x0100\n      exp\n      swap1\n      div\n      0xffffffffffffffffffffffffffffffffffffffff\n      and\n      dup2\n      jump\t// out\n        /* \"contracts/FarmContract.sol\":320:344  address[] public stakers */\n    tag_50:\n      0x04\n      dup2\n      dup2\n      sload\n      dup2\n      lt\n      tag_69\n      jumpi\n      0x00\n      dup1\n      revert\n    tag_69:\n      swap1\n      0x00\n      mstore\n      keccak256(0x00, 0x20)\n      add\n      0x00\n      swap2\n      pop\n      sload\n      swap1\n      0x0100\n      exp\n      swap1\n      div\n      0xffffffffffffffffffffffffffffffffffffffff\n      and\n      dup2\n      jump\t// out\n        /* \"#utility.yul\":7:146   */\n    tag_72:\n        /* \"#utility.yul\":53:58   */\n      0x00\n        /* \"#utility.yul\":91:97   */\n      dup2\n        /* \"#utility.yul\":78:98   */\n      calldataload\n        /* \"#utility.yul\":69:98   */\n      swap1\n      pop\n        /* \"#utility.yul\":107:140   */\n      tag_74\n        /* \"#utility.yul\":134:139   */\n      dup2\n        /* \"#utility.yul\":107:140   */\n      tag_75\n      jump\t// in\n    tag_74:\n        /* \"#utility.yul\":59:146   */\n      swap3\n      swap2\n      pop\n      pop\n      jump\t// out\n        /* \"#utility.yul\":152:289   */\n    tag_76:\n        /* \"#utility.yul\":206:211   */\n      0x00\n        /* \"#utility.yul\":237:243   */\n      dup2\n        /* \"#utility.yul\":231:244   */\n      mload\n        /* \"#utility.yul\":222:244   */\n      swap1\n      pop\n        /* \"#utility.yul\":253:283   */\n      tag_78\n        /* \"#utility.yul\":277:282   */\n      dup2\n        /* \"#utility.yul\":253:283   */\n      tag_79\n      jump\t// in\n    tag_78:\n        /* \"#utility.yul\":212:289   */\n      swap3\n      swap2\n      pop\n      pop\n      jump\t// out\n        /* \"#utility.yul\":295:434   */\n    tag_80:\n        /* \"#utility.yul\":341:346   */\n      0x00\n        /* \"#utility.yul\":379:385   */\n      dup2\n        /* \"#utility.yul\":366:386   */\n      calldataload\n        /* \"#utility.yul\":357:386   */\n      swap1\n      pop\n        /* \"#utility.yul\":395:428   */\n      tag_82\n        /* \"#utility.yul\":422:427   */\n      dup2\n        /* \"#utility.yul\":395:428   */\n      tag_83\n      jump\t// in\n    tag_82:\n        /* \"#utility.yul\":347:434   */\n      swap3\n      swap2\n      pop\n      pop\n      jump\t// out\n        /* \"#utility.yul\":440:702   */\n    tag_19:\n        /* \"#utility.yul\":499:505   */\n      0x00\n        /* \"#utility.yul\":548:550   */\n      0x20\n        /* \"#utility.yul\":536:545   */\n      dup3\n        /* \"#utility.yul\":527:534   */\n      dup5\n        /* \"#utility.yul\":523:546   */\n      sub\n        /* \"#utility.yul\":519:551   */\n      slt\n        /* \"#utility.yul\":516:518   */\n      iszero\n      tag_85\n      jumpi\n        /* \"#utility.yul\":564:565   */\n      0x00\n        /* \"#utility.yul\":561:562   */\n      dup1\n        /* \"#utility.yul\":554:566   */\n      revert\n        /* \"#utility.yul\":516:518   */\n    tag_85:\n        /* \"#utility.yul\":607:608   */\n      0x00\n        /* \"#utility.yul\":632:685   */\n      tag_86\n        /* \"#utility.yul\":677:684   */\n      dup5\n        /* \"#utility.yul\":668:674   */\n      dup3\n        /* \"#utility.yul\":657:666   */\n      dup6\n        /* \"#utility.yul\":653:675   */\n      add\n        /* \"#utility.yul\":632:685   */\n      tag_72\n      jump\t// in\n    tag_86:\n        /* \"#utility.yul\":622:685   */\n      swap2\n      pop\n        /* \"#utility.yul\":578:695   */\n      pop\n        /* \"#utility.yul\":506:702   */\n      swap3\n      swap2\n      pop\n      pop\n      jump\t// out\n        /* \"#utility.yul\":708:986   */\n    tag_68:\n        /* \"#utility.yul\":775:781   */\n      0x00\n        /* \"#utility.yul\":824:826   */\n      0x20\n        /* \"#utility.yul\":812:821   */\n      dup3\n        /* \"#utility.yul\":803:810   */\n      dup5\n        /* \"#utility.yul\":799:822   */\n      sub\n        /* \"#utility.yul\":795:827   */\n      slt\n        /* \"#utility.yul\":792:794   */\n      iszero\n      tag_88\n      jumpi\n        /* \"#utility.yul\":840:841   */\n      0x00\n        /* \"#utility.yul\":837:838   */\n      dup1\n        /* \"#utility.yul\":830:842   */\n      revert\n        /* \"#utility.yul\":792:794   */\n    tag_88:\n        /* \"#utility.yul\":883:884   */\n      0x00\n        /* \"#utility.yul\":908:969   */\n      tag_89\n        /* \"#utility.yul\":961:968   */\n      dup5\n        /* \"#utility.yul\":952:958   */\n      dup3\n        /* \"#utility.yul\":941:950   */\n      dup6\n        /* \"#utility.yul\":937:959   */\n      add\n        /* \"#utility.yul\":908:969   */\n      tag_76\n      jump\t// in\n    tag_89:\n        /* \"#utility.yul\":898:969   */\n      swap2\n      pop\n        /* \"#utility.yul\":854:979   */\n      pop\n        /* \"#utility.yul\":782:986   */\n      swap3\n      swap2\n      pop\n      pop\n      jump\t// out\n        /* \"#utility.yul\":992:1254   */\n    tag_30:\n        /* \"#utility.yul\":1051:1057   */\n      0x00\n        /* \"#utility.yul\":1100:1102   */\n      0x20\n        /* \"#utility.yul\":1088:1097   */\n      dup3\n        /* \"#utility.yul\":1079:1086   */\n      dup5\n        /* \"#utility.yul\":1075:1098   */\n      sub\n        /* \"#utility.yul\":1071:1103   */\n      slt\n        /* \"#utility.yul\":1068:1070   */\n      iszero\n      tag_91\n      jumpi\n        /* \"#utility.yul\":1116:1117   */\n      0x00\n        /* \"#utility.yul\":1113:1114   */\n      dup1\n        /* \"#utility.yul\":1106:1118   */\n      revert\n        /* \"#utility.yul\":1068:1070   */\n    tag_91:\n        /* \"#utility.yul\":1159:1160   */\n      0x00\n        /* \"#utility.yul\":1184:1237   */\n      tag_92\n        /* \"#utility.yul\":1229:1236   */\n      dup5\n        /* \"#utility.yul\":1220:1226   */\n      dup3\n        /* \"#utility.yul\":1209:1218   */\n      dup6\n        /* \"#utility.yul\":1205:1227   */\n      add\n        /* \"#utility.yul\":1184:1237   */\n      tag_80\n      jump\t// in\n    tag_92:\n        /* \"#utility.yul\":1174:1237   */\n      swap2\n      pop\n        /* \"#utility.yul\":1130:1247   */\n      pop\n        /* \"#utility.yul\":1058:1254   */\n      swap3\n      swap2\n      pop\n      pop\n      jump\t// out\n        /* \"#utility.yul\":1260:1378   */\n    tag_93:\n        /* \"#utility.yul\":1347:1371   */\n      tag_95\n        /* \"#utility.yul\":1365:1370   */\n      dup2\n        /* \"#utility.yul\":1347:1371   */\n      tag_96\n      jump\t// in\n    tag_95:\n        /* \"#utility.yul\":1342:1345   */\n      dup3\n        /* \"#utility.yul\":1335:1372   */\n      mstore\n        /* \"#utility.yul\":1325:1378   */\n      pop\n      pop\n      jump\t// out\n        /* \"#utility.yul\":1384:1493   */\n    tag_97:\n        /* \"#utility.yul\":1465:1486   */\n      tag_99\n        /* \"#utility.yul\":1480:1485   */\n      dup2\n        /* \"#utility.yul\":1465:1486   */\n      tag_100\n      jump\t// in\n    tag_99:\n        /* \"#utility.yul\":1460:1463   */\n      dup3\n        /* \"#utility.yul\":1453:1487   */\n      mstore\n        /* \"#utility.yul\":1443:1493   */\n      pop\n      pop\n      jump\t// out\n        /* \"#utility.yul\":1499:1664   */\n    tag_101:\n        /* \"#utility.yul\":1603:1657   */\n      tag_103\n        /* \"#utility.yul\":1651:1656   */\n      dup2\n        /* \"#utility.yul\":1603:1657   */\n      tag_104\n      jump\t// in\n    tag_103:\n        /* \"#utility.yul\":1598:1601   */\n      dup3\n        /* \"#utility.yul\":1591:1658   */\n      mstore\n        /* \"#utility.yul\":1581:1664   */\n      pop\n      pop\n      jump\t// out\n        /* \"#utility.yul\":1670:1847   */\n    tag_105:\n        /* \"#utility.yul\":1780:1840   */\n      tag_107\n        /* \"#utility.yul\":1834:1839   */\n      dup2\n        /* \"#utility.yul\":1780:1840   */\n      tag_108\n      jump\t// in\n    tag_107:\n        /* \"#utility.yul\":1775:1778   */\n      dup3\n        /* \"#utility.yul\":1768:1841   */\n      mstore\n        /* \"#utility.yul\":1758:1847   */\n      pop\n      pop\n      jump\t// out\n        /* \"#utility.yul\":1853:2217   */\n    tag_109:\n        /* \"#utility.yul\":1941:1944   */\n      0x00\n        /* \"#utility.yul\":1969:2008   */\n      tag_111\n        /* \"#utility.yul\":2002:2007   */\n      dup3\n        /* \"#utility.yul\":1969:2008   */\n      tag_112\n      jump\t// in\n    tag_111:\n        /* \"#utility.yul\":2024:2095   */\n      tag_113\n        /* \"#utility.yul\":2088:2094   */\n      dup2\n        /* \"#utility.yul\":2083:2086   */\n      dup6\n        /* \"#utility.yul\":2024:2095   */\n      tag_114\n      jump\t// in\n    tag_113:\n        /* \"#utility.yul\":2017:2095   */\n      swap4\n      pop\n        /* \"#utility.yul\":2104:2156   */\n      tag_115\n        /* \"#utility.yul\":2149:2155   */\n      dup2\n        /* \"#utility.yul\":2144:2147   */\n      dup6\n        /* \"#utility.yul\":2137:2141   */\n      0x20\n        /* \"#utility.yul\":2130:2135   */\n      dup7\n        /* \"#utility.yul\":2126:2142   */\n      add\n        /* \"#utility.yul\":2104:2156   */\n      tag_116\n      jump\t// in\n    tag_115:\n        /* \"#utility.yul\":2181:2210   */\n      tag_117\n        /* \"#utility.yul\":2203:2209   */\n      dup2\n        /* \"#utility.yul\":2181:2210   */\n      tag_118\n      jump\t// in\n    tag_117:\n        /* \"#utility.yul\":2176:2179   */\n      dup5\n        /* \"#utility.yul\":2172:2211   */\n      add\n        /* \"#utility.yul\":2165:2211   */\n      swap2\n      pop\n        /* \"#utility.yul\":1945:2217   */\n      pop\n      swap3\n      swap2\n      pop\n      pop\n      jump\t// out\n        /* \"#utility.yul\":2223:2589   */\n    tag_119:\n        /* \"#utility.yul\":2365:2368   */\n      0x00\n        /* \"#utility.yul\":2386:2453   */\n      tag_121\n        /* \"#utility.yul\":2450:2452   */\n      0x22\n        /* \"#utility.yul\":2445:2448   */\n      dup4\n        /* \"#utility.yul\":2386:2453   */\n      tag_114\n      jump\t// in\n    tag_121:\n        /* \"#utility.yul\":2379:2453   */\n      swap2\n      pop\n        /* \"#utility.yul\":2462:2555   */\n      tag_122\n        /* \"#utility.yul\":2551:2554   */\n      dup3\n        /* \"#utility.yul\":2462:2555   */\n      tag_123\n      jump\t// in\n    tag_122:\n        /* \"#utility.yul\":2580:2582   */\n      0x40\n        /* \"#utility.yul\":2575:2578   */\n      dup3\n        /* \"#utility.yul\":2571:2583   */\n      add\n        /* \"#utility.yul\":2564:2583   */\n      swap1\n      pop\n        /* \"#utility.yul\":2369:2589   */\n      swap2\n      swap1\n      pop\n      jump\t// out\n        /* \"#utility.yul\":2595:2713   */\n    tag_124:\n        /* \"#utility.yul\":2682:2706   */\n      tag_126\n        /* \"#utility.yul\":2700:2705   */\n      dup2\n        /* \"#utility.yul\":2682:2706   */\n      tag_127\n      jump\t// in\n    tag_126:\n        /* \"#utility.yul\":2677:2680   */\n      dup3\n        /* \"#utility.yul\":2670:2707   */\n      mstore\n        /* \"#utility.yul\":2660:2713   */\n      pop\n      pop\n      jump\t// out\n        /* \"#utility.yul\":2719:2941   */\n    tag_35:\n        /* \"#utility.yul\":2812:2816   */\n      0x00\n        /* \"#utility.yul\":2850:2852   */\n      0x20\n        /* \"#utility.yul\":2839:2848   */\n      dup3\n        /* \"#utility.yul\":2835:2853   */\n      add\n        /* \"#utility.yul\":2827:2853   */\n      swap1\n      pop\n        /* \"#utility.yul\":2863:2934   */\n      tag_129\n        /* \"#utility.yul\":2931:2932   */\n      0x00\n        /* \"#utility.yul\":2920:2929   */\n      dup4\n        /* \"#utility.yul\":2916:2933   */\n      add\n        /* \"#utility.yul\":2907:2913   */\n      dup5\n        /* \"#utility.yul\":2863:2934   */\n      tag_93\n      jump\t// in\n    tag_129:\n        /* \"#utility.yul\":2817:2941   */\n      swap3\n      swap2\n      pop\n      pop\n      jump\t// out\n        /* \"#utility.yul\":2947:3389   */\n    tag_63:\n        /* \"#utility.yul\":3096:3100   */\n      0x00\n        /* \"#utility.yul\":3134:3136   */\n      0x60\n        /* \"#utility.yul\":3123:3132   */\n      dup3\n        /* \"#utility.yul\":3119:3137   */\n      add\n        /* \"#utility.yul\":3111:3137   */\n      swap1\n      pop\n        /* \"#utility.yul\":3147:3218   */\n      tag_131\n        /* \"#utility.yul\":3215:3216   */\n      0x00\n        /* \"#utility.yul\":3204:3213   */\n      dup4\n        /* \"#utility.yul\":3200:3217   */\n      add\n        /* \"#utility.yul\":3191:3197   */\n      dup7\n        /* \"#utility.yul\":3147:3218   */\n      tag_93\n      jump\t// in\n    tag_131:\n        /* \"#utility.yul\":3228:3300   */\n      tag_132\n        /* \"#utility.yul\":3296:3298   */\n      0x20\n        /* \"#utility.yul\":3285:3294   */\n      dup4\n        /* \"#utility.yul\":3281:3299   */\n      add\n        /* \"#utility.yul\":3272:3278   */\n      dup6\n        /* \"#utility.yul\":3228:3300   */\n      tag_93\n      jump\t// in\n    tag_132:\n        /* \"#utility.yul\":3310:3382   */\n      tag_133\n        /* \"#utility.yul\":3378:3380   */\n      0x40\n        /* \"#utility.yul\":3367:3376   */\n      dup4\n        /* \"#utility.yul\":3363:3381   */\n      add\n        /* \"#utility.yul\":3354:3360   */\n      dup5\n        /* \"#utility.yul\":3310:3382   */\n      tag_124\n      jump\t// in\n    tag_133:\n        /* \"#utility.yul\":3101:3389   */\n      swap5\n      swap4\n      pop\n      pop\n      pop\n      pop\n      jump\t// out\n        /* \"#utility.yul\":3395:3605   */\n    tag_27:\n        /* \"#utility.yul\":3482:3486   */\n      0x00\n        /* \"#utility.yul\":3520:3522   */\n      0x20\n        /* \"#utility.yul\":3509:3518   */\n      dup3\n        /* \"#utility.yul\":3505:3523   */\n      add\n        /* \"#utility.yul\":3497:3523   */\n      swap1\n      pop\n        /* \"#utility.yul\":3533:3598   */\n      tag_135\n        /* \"#utility.yul\":3595:3596   */\n      0x00\n        /* \"#utility.yul\":3584:3593   */\n      dup4\n        /* \"#utility.yul\":3580:3597   */\n      add\n        /* \"#utility.yul\":3571:3577   */\n      dup5\n        /* \"#utility.yul\":3533:3598   */\n      tag_97\n      jump\t// in\n    tag_135:\n        /* \"#utility.yul\":3487:3605   */\n      swap3\n      swap2\n      pop\n      pop\n      jump\t// out\n        /* \"#utility.yul\":3611:3867   */\n    tag_47:\n        /* \"#utility.yul\":3721:3725   */\n      0x00\n        /* \"#utility.yul\":3759:3761   */\n      0x20\n        /* \"#utility.yul\":3748:3757   */\n      dup3\n        /* \"#utility.yul\":3744:3762   */\n      add\n        /* \"#utility.yul\":3736:3762   */\n      swap1\n      pop\n        /* \"#utility.yul\":3772:3860   */\n      tag_137\n        /* \"#utility.yul\":3857:3858   */\n      0x00\n        /* \"#utility.yul\":3846:3855   */\n      dup4\n        /* \"#utility.yul\":3842:3859   */\n      add\n        /* \"#utility.yul\":3833:3839   */\n      dup5\n        /* \"#utility.yul\":3772:3860   */\n      tag_101\n      jump\t// in\n    tag_137:\n        /* \"#utility.yul\":3726:3867   */\n      swap3\n      swap2\n      pop\n      pop\n      jump\t// out\n        /* \"#utility.yul\":3873:4141   */\n    tag_39:\n        /* \"#utility.yul\":3989:3993   */\n      0x00\n        /* \"#utility.yul\":4027:4029   */\n      0x20\n        /* \"#utility.yul\":4016:4025   */\n      dup3\n        /* \"#utility.yul\":4012:4030   */\n      add\n        /* \"#utility.yul\":4004:4030   */\n      swap1\n      pop\n        /* \"#utility.yul\":4040:4134   */\n      tag_139\n        /* \"#utility.yul\":4131:4132   */\n      0x00\n        /* \"#utility.yul\":4120:4129   */\n      dup4\n        /* \"#utility.yul\":4116:4133   */\n      add\n        /* \"#utility.yul\":4107:4113   */\n      dup5\n        /* \"#utility.yul\":4040:4134   */\n      tag_105\n      jump\t// in\n    tag_139:\n        /* \"#utility.yul\":3994:4141   */\n      swap3\n      swap2\n      pop\n      pop\n      jump\t// out\n        /* \"#utility.yul\":4147:4460   */\n    tag_16:\n        /* \"#utility.yul\":4260:4264   */\n      0x00\n        /* \"#utility.yul\":4298:4300   */\n      0x20\n        /* \"#utility.yul\":4287:4296   */\n      dup3\n        /* \"#utility.yul\":4283:4301   */\n      add\n        /* \"#utility.yul\":4275:4301   */\n      swap1\n      pop\n        /* \"#utility.yul\":4347:4356   */\n      dup2\n        /* \"#utility.yul\":4341:4345   */\n      dup2\n        /* \"#utility.yul\":4337:4357   */\n      sub\n        /* \"#utility.yul\":4333:4334   */\n      0x00\n        /* \"#utility.yul\":4322:4331   */\n      dup4\n        /* \"#utility.yul\":4318:4335   */\n      add\n        /* \"#utility.yul\":4311:4358   */\n      mstore\n        /* \"#utility.yul\":4375:4453   */\n      tag_141\n        /* \"#utility.yul\":4448:4452   */\n      dup2\n        /* \"#utility.yul\":4439:4445   */\n      dup5\n        /* \"#utility.yul\":4375:4453   */\n      tag_109\n      jump\t// in\n    tag_141:\n        /* \"#utility.yul\":4367:4453   */\n      swap1\n      pop\n        /* \"#utility.yul\":4265:4460   */\n      swap3\n      swap2\n      pop\n      pop\n      jump\t// out\n        /* \"#utility.yul\":4466:4885   */\n    tag_61:\n        /* \"#utility.yul\":4632:4636   */\n      0x00\n        /* \"#utility.yul\":4670:4672   */\n      0x20\n        /* \"#utility.yul\":4659:4668   */\n      dup3\n        /* \"#utility.yul\":4655:4673   */\n      add\n        /* \"#utility.yul\":4647:4673   */\n      swap1\n      pop\n        /* \"#utility.yul\":4719:4728   */\n      dup2\n        /* \"#utility.yul\":4713:4717   */\n      dup2\n        /* \"#utility.yul\":4709:4729   */\n      sub\n        /* \"#utility.yul\":4705:4706   */\n      0x00\n        /* \"#utility.yul\":4694:4703   */\n      dup4\n        /* \"#utility.yul\":4690:4707   */\n      add\n        /* \"#utility.yul\":4683:4730   */\n      mstore\n        /* \"#utility.yul\":4747:4878   */\n      tag_143\n        /* \"#utility.yul\":4873:4877   */\n      dup2\n        /* \"#utility.yul\":4747:4878   */\n      tag_119\n      jump\t// in\n    tag_143:\n        /* \"#utility.yul\":4739:4878   */\n      swap1\n      pop\n        /* \"#utility.yul\":4637:4885   */\n      swap2\n      swap1\n      pop\n      jump\t// out\n        /* \"#utility.yul\":4891:5113   */\n    tag_22:\n        /* \"#utility.yul\":4984:4988   */\n      0x00\n        /* \"#utility.yul\":5022:5024   */\n      0x20\n        /* \"#utility.yul\":5011:5020   */\n      dup3\n        /* \"#utility.yul\":5007:5025   */\n      add\n        /* \"#utility.yul\":4999:5025   */\n      swap1\n      pop\n        /* \"#utility.yul\":5035:5106   */\n      tag_145\n        /* \"#utility.yul\":5103:5104   */\n      0x00\n        /* \"#utility.yul\":5092:5101   */\n      dup4\n        /* \"#utility.yul\":5088:5105   */\n      add\n        /* \"#utility.yul\":5079:5085   */\n      dup5\n        /* \"#utility.yul\":5035:5106   */\n      tag_124\n      jump\t// in\n    tag_145:\n        /* \"#utility.yul\":4989:5113   */\n      swap3\n      swap2\n      pop\n      pop\n      jump\t// out\n        /* \"#utility.yul\":5119:5218   */\n    tag_112:\n        /* \"#utility.yul\":5171:5177   */\n      0x00\n        /* \"#utility.yul\":5205:5210   */\n      dup2\n        /* \"#utility.yul\":5199:5211   */\n      mload\n        /* \"#utility.yul\":5189:5211   */\n      swap1\n      pop\n        /* \"#utility.yul\":5178:5218   */\n      swap2\n      swap1\n      pop\n      jump\t// out\n        /* \"#utility.yul\":5224:5393   */\n    tag_114:\n        /* \"#utility.yul\":5308:5319   */\n      0x00\n        /* \"#utility.yul\":5342:5348   */\n      dup3\n        /* \"#utility.yul\":5337:5340   */\n      dup3\n        /* \"#utility.yul\":5330:5349   */\n      mstore\n        /* \"#utility.yul\":5382:5386   */\n      0x20\n        /* \"#utility.yul\":5377:5380   */\n      dup3\n        /* \"#utility.yul\":5373:5387   */\n      add\n        /* \"#utility.yul\":5358:5387   */\n      swap1\n      pop\n        /* \"#utility.yul\":5320:5393   */\n      swap3\n      swap2\n      pop\n      pop\n      jump\t// out\n        /* \"#utility.yul\":5399:5495   */\n    tag_96:\n        /* \"#utility.yul\":5436:5443   */\n      0x00\n        /* \"#utility.yul\":5465:5489   */\n      tag_149\n        /* \"#utility.yul\":5483:5488   */\n      dup3\n        /* \"#utility.yul\":5465:5489   */\n      tag_150\n      jump\t// in\n    tag_149:\n        /* \"#utility.yul\":5454:5489   */\n      swap1\n      pop\n        /* \"#utility.yul\":5444:5495   */\n      swap2\n      swap1\n      pop\n      jump\t// out\n        /* \"#utility.yul\":5501:5591   */\n    tag_100:\n        /* \"#utility.yul\":5535:5542   */\n      0x00\n        /* \"#utility.yul\":5578:5583   */\n      dup2\n        /* \"#utility.yul\":5571:5584   */\n      iszero\n        /* \"#utility.yul\":5564:5585   */\n      iszero\n        /* \"#utility.yul\":5553:5585   */\n      swap1\n      pop\n        /* \"#utility.yul\":5543:5591   */\n      swap2\n      swap1\n      pop\n      jump\t// out\n        /* \"#utility.yul\":5597:5723   */\n    tag_150:\n        /* \"#utility.yul\":5634:5641   */\n      0x00\n        /* \"#utility.yul\":5674:5716   */\n      0xffffffffffffffffffffffffffffffffffffffff\n        /* \"#utility.yul\":5667:5672   */\n      dup3\n        /* \"#utility.yul\":5663:5717   */\n      and\n        /* \"#utility.yul\":5652:5717   */\n      swap1\n      pop\n        /* \"#utility.yul\":5642:5723   */\n      swap2\n      swap1\n      pop\n      jump\t// out\n        /* \"#utility.yul\":5729:5806   */\n    tag_127:\n        /* \"#utility.yul\":5766:5773   */\n      0x00\n        /* \"#utility.yul\":5795:5800   */\n      dup2\n        /* \"#utility.yul\":5784:5800   */\n      swap1\n      pop\n        /* \"#utility.yul\":5774:5806   */\n      swap2\n      swap1\n      pop\n      jump\t// out\n        /* \"#utility.yul\":5812:5972   */\n    tag_104:\n        /* \"#utility.yul\":5879:5888   */\n      0x00\n        /* \"#utility.yul\":5912:5966   */\n      tag_155\n        /* \"#utility.yul\":5960:5965   */\n      dup3\n        /* \"#utility.yul\":5912:5966   */\n      tag_156\n      jump\t// in\n    tag_155:\n        /* \"#utility.yul\":5899:5966   */\n      swap1\n      pop\n        /* \"#utility.yul\":5889:5972   */\n      swap2\n      swap1\n      pop\n      jump\t// out\n        /* \"#utility.yul\":5978:6108   */\n    tag_156:\n        /* \"#utility.yul\":6045:6054   */\n      0x00\n        /* \"#utility.yul\":6078:6102   */\n      tag_158\n        /* \"#utility.yul\":6096:6101   */\n      dup3\n        /* \"#utility.yul\":6078:6102   */\n      tag_150\n      jump\t// in\n    tag_158:\n        /* \"#utility.yul\":6065:6102   */\n      swap1\n      pop\n        /* \"#utility.yul\":6055:6108   */\n      swap2\n      swap1\n      pop\n      jump\t// out\n        /* \"#utility.yul\":6114:6286   */\n    tag_108:\n        /* \"#utility.yul\":6187:6196   */\n      0x00\n        /* \"#utility.yul\":6220:6280   */\n      tag_160\n        /* \"#utility.yul\":6274:6279   */\n      dup3\n        /* \"#utility.yul\":6220:6280   */\n      tag_161\n      jump\t// in\n    tag_160:\n        /* \"#utility.yul\":6207:6280   */\n      swap1\n      pop\n        /* \"#utility.yul\":6197:6286   */\n      swap2\n      swap1\n      pop\n      jump\t// out\n        /* \"#utility.yul\":6292:6428   */\n    tag_161:\n        /* \"#utility.yul\":6365:6374   */\n      0x00\n        /* \"#utility.yul\":6398:6422   */\n      tag_163\n        /* \"#utility.yul\":6416:6421   */\n      dup3\n        /* \"#utility.yul\":6398:6422   */\n      tag_150\n      jump\t// in\n    tag_163:\n        /* \"#utility.yul\":6385:6422   */\n      swap1\n      pop\n        /* \"#utility.yul\":6375:6428   */\n      swap2\n      swap1\n      pop\n      jump\t// out\n        /* \"#utility.yul\":6434:6741   */\n    tag_116:\n        /* \"#utility.yul\":6502:6503   */\n      0x00\n        /* \"#utility.yul\":6512:6625   */\n    tag_165:\n        /* \"#utility.yul\":6526:6532   */\n      dup4\n        /* \"#utility.yul\":6523:6524   */\n      dup2\n        /* \"#utility.yul\":6520:6533   */\n      lt\n        /* \"#utility.yul\":6512:6625   */\n      iszero\n      tag_167\n      jumpi\n        /* \"#utility.yul\":6611:6612   */\n      dup1\n        /* \"#utility.yul\":6606:6609   */\n      dup3\n        /* \"#utility.yul\":6602:6613   */\n      add\n        /* \"#utility.yul\":6596:6614   */\n      mload\n        /* \"#utility.yul\":6592:6593   */\n      dup2\n        /* \"#utility.yul\":6587:6590   */\n      dup5\n        /* \"#utility.yul\":6583:6594   */\n      add\n        /* \"#utility.yul\":6576:6615   */\n      mstore\n        /* \"#utility.yul\":6548:6550   */\n      0x20\n        /* \"#utility.yul\":6545:6546   */\n      dup2\n        /* \"#utility.yul\":6541:6551   */\n      add\n        /* \"#utility.yul\":6536:6551   */\n      swap1\n      pop\n        /* \"#utility.yul\":6512:6625   */\n      jump(tag_165)\n    tag_167:\n        /* \"#utility.yul\":6643:6649   */\n      dup4\n        /* \"#utility.yul\":6640:6641   */\n      dup2\n        /* \"#utility.yul\":6637:6650   */\n      gt\n        /* \"#utility.yul\":6634:6636   */\n      iszero\n      tag_168\n      jumpi\n        /* \"#utility.yul\":6723:6724   */\n      0x00\n        /* \"#utility.yul\":6714:6720   */\n      dup5\n        /* \"#utility.yul\":6709:6712   */\n      dup5\n        /* \"#utility.yul\":6705:6721   */\n      add\n        /* \"#utility.yul\":6698:6725   */\n      mstore\n        /* \"#utility.yul\":6634:6636   */\n    tag_168:\n        /* \"#utility.yul\":6483:6741   */\n      pop\n      pop\n      pop\n      pop\n      jump\t// out\n        /* \"#utility.yul\":6747:7067   */\n    tag_53:\n        /* \"#utility.yul\":6791:6797   */\n      0x00\n        /* \"#utility.yul\":6828:6829   */\n      0x02\n        /* \"#utility.yul\":6822:6826   */\n      dup3\n        /* \"#utility.yul\":6818:6830   */\n      div\n        /* \"#utility.yul\":6808:6830   */\n      swap1\n      pop\n        /* \"#utility.yul\":6875:6876   */\n      0x01\n        /* \"#utility.yul\":6869:6873   */\n      dup3\n        /* \"#utility.yul\":6865:6877   */\n      and\n        /* \"#utility.yul\":6896:6914   */\n      dup1\n        /* \"#utility.yul\":6886:6888   */\n      tag_170\n      jumpi\n        /* \"#utility.yul\":6952:6956   */\n      0x7f\n        /* \"#utility.yul\":6944:6950   */\n      dup3\n        /* \"#utility.yul\":6940:6957   */\n      and\n        /* \"#utility.yul\":6930:6957   */\n      swap2\n      pop\n        /* \"#utility.yul\":6886:6888   */\n    tag_170:\n        /* \"#utility.yul\":7014:7016   */\n      0x20\n        /* \"#utility.yul\":7006:7012   */\n      dup3\n        /* \"#utility.yul\":7003:7017   */\n      lt\n        /* \"#utility.yul\":6983:7001   */\n      dup2\n        /* \"#utility.yul\":6980:7018   */\n      eq\n        /* \"#utility.yul\":6977:6979   */\n      iszero\n      tag_171\n      jumpi\n        /* \"#utility.yul\":7033:7051   */\n      tag_172\n      tag_173\n      jump\t// in\n    tag_172:\n        /* \"#utility.yul\":6977:6979   */\n    tag_171:\n        /* \"#utility.yul\":6798:7067   */\n      pop\n      swap2\n      swap1\n      pop\n      jump\t// out\n        /* \"#utility.yul\":7073:7253   */\n    tag_173:\n        /* \"#utility.yul\":7121:7198   */\n      0x4e487b7100000000000000000000000000000000000000000000000000000000\n        /* \"#utility.yul\":7118:7119   */\n      0x00\n        /* \"#utility.yul\":7111:7199   */\n      mstore\n        /* \"#utility.yul\":7218:7222   */\n      0x22\n        /* \"#utility.yul\":7215:7216   */\n      0x04\n        /* \"#utility.yul\":7208:7223   */\n      mstore\n        /* \"#utility.yul\":7242:7246   */\n      0x24\n        /* \"#utility.yul\":7239:7240   */\n      0x00\n        /* \"#utility.yul\":7232:7247   */\n      revert\n        /* \"#utility.yul\":7259:7361   */\n    tag_118:\n        /* \"#utility.yul\":7300:7306   */\n      0x00\n        /* \"#utility.yul\":7351:7353   */\n      0x1f\n        /* \"#utility.yul\":7347:7354   */\n      not\n        /* \"#utility.yul\":7342:7344   */\n      0x1f\n        /* \"#utility.yul\":7335:7340   */\n      dup4\n        /* \"#utility.yul\":7331:7345   */\n      add\n        /* \"#utility.yul\":7327:7355   */\n      and\n        /* \"#utility.yul\":7317:7355   */\n      swap1\n      pop\n        /* \"#utility.yul\":7307:7361   */\n      swap2\n      swap1\n      pop\n      jump\t// out\n        /* \"#utility.yul\":7367:7588   */\n    tag_123:\n        /* \"#utility.yul\":7507:7541   */\n      0x54686520616d6f756e74206d757374206265206772656174686572207468616e\n        /* \"#utility.yul\":7503:7504   */\n      0x00\n        /* \"#utility.yul\":7495:7501   */\n      dup3\n        /* \"#utility.yul\":7491:7505   */\n      add\n        /* \"#utility.yul\":7484:7542   */\n      mstore\n        /* \"#utility.yul\":7576:7580   */\n      0x2030000000000000000000000000000000000000000000000000000000000000\n        /* \"#utility.yul\":7571:7573   */\n      0x20\n        /* \"#utility.yul\":7563:7569   */\n      dup3\n        /* \"#utility.yul\":7559:7574   */\n      add\n        /* \"#utility.yul\":7552:7581   */\n      mstore\n        /* \"#utility.yul\":7473:7588   */\n      pop\n      jump\t// out\n        /* \"#utility.yul\":7594:7716   */\n    tag_75:\n        /* \"#utility.yul\":7667:7691   */\n      tag_178\n        /* \"#utility.yul\":7685:7690   */\n      dup2\n        /* \"#utility.yul\":7667:7691   */\n      tag_96\n      jump\t// in\n    tag_178:\n        /* \"#utility.yul\":7660:7665   */\n      dup2\n        /* \"#utility.yul\":7657:7692   */\n      eq\n        /* \"#utility.yul\":7647:7649   */\n      tag_179\n      jumpi\n        /* \"#utility.yul\":7706:7707   */\n      0x00\n        /* \"#utility.yul\":7703:7704   */\n      dup1\n        /* \"#utility.yul\":7696:7708   */\n      revert\n        /* \"#utility.yul\":7647:7649   */\n    tag_179:\n        /* \"#utility.yul\":7637:7716   */\n      pop\n      jump\t// out\n        /* \"#utility.yul\":7722:7838   */\n    tag_79:\n        /* \"#utility.yul\":7792:7813   */\n      tag_181\n        /* \"#utility.yul\":7807:7812   */\n      dup2\n        /* \"#utility.yul\":7792:7813   */\n      tag_100\n      jump\t// in\n    tag_181:\n        /* \"#utility.yul\":7785:7790   */\n      dup2\n        /* \"#utility.yul\":7782:7814   */\n      eq\n        /* \"#utility.yul\":7772:7774   */\n      tag_182\n      jumpi\n        /* \"#utility.yul\":7828:7829   */\n      0x00\n        /* \"#utility.yul\":7825:7826   */\n      dup1\n        /* \"#utility.yul\":7818:7830   */\n      revert\n        /* \"#utility.yul\":7772:7774   */\n    tag_182:\n        /* \"#utility.yul\":7762:7838   */\n      pop\n      jump\t// out\n        /* \"#utility.yul\":7844:7966   */\n    tag_83:\n        /* \"#utility.yul\":7917:7941   */\n      tag_184\n        /* \"#utility.yul\":7935:7940   */\n      dup2\n        /* \"#utility.yul\":7917:7941   */\n      tag_127\n      jump\t// in\n    tag_184:\n        /* \"#utility.yul\":7910:7915   */\n      dup2\n        /* \"#utility.yul\":7907:7942   */\n      eq\n        /* \"#utility.yul\":7897:7899   */\n      tag_185\n      jumpi\n        /* \"#utility.yul\":7956:7957   */\n      0x00\n        /* \"#utility.yul\":7953:7954   */\n      dup1\n        /* \"#utility.yul\":7946:7958   */\n      revert\n        /* \"#utility.yul\":7897:7899   */\n    tag_185:\n        /* \"#utility.yul\":7887:7966   */\n      pop\n      jump\t// out\n\n    auxdata: 0xa26469706673582212209bfd871a459166d5b7364b04aa825113b7af92496c3bb19678d4917f871860de64736f6c63430008040033\n}\n",
				"bytecode": {
					"linkReferences": {},
					"object": "60806040526040518060400160405280600981526020017f44454649204661726d0000000000000000000000000000000000000000000000815250600090805190602001906200005192919062000150565b503480156200005f57600080fd5b5060405162000c6b38038062000c6b83398181016040528101906200008591906200022e565b81600260006101000a81548173ffffffffffffffffffffffffffffffffffffffff021916908373ffffffffffffffffffffffffffffffffffffffff16021790555080600360006101000a81548173ffffffffffffffffffffffffffffffffffffffff021916908373ffffffffffffffffffffffffffffffffffffffff16021790555033600160006101000a81548173ffffffffffffffffffffffffffffffffffffffff021916908373ffffffffffffffffffffffffffffffffffffffff160217905550505062000364565b8280546200015e90620002cb565b90600052602060002090601f016020900481019282620001825760008555620001ce565b82601f106200019d57805160ff1916838001178555620001ce565b82800160010185558215620001ce579182015b82811115620001cd578251825591602001919060010190620001b0565b5b509050620001dd9190620001e1565b5090565b5b80821115620001fc576000816000905550600101620001e2565b5090565b600081519050620002118162000330565b92915050565b60008151905062000228816200034a565b92915050565b600080604083850312156200024257600080fd5b6000620002528582860162000200565b9250506020620002658582860162000217565b9150509250929050565b60006200027c82620002ab565b9050919050565b600062000290826200026f565b9050919050565b6000620002a4826200026f565b9050919050565b600073ffffffffffffffffffffffffffffffffffffffff82169050919050565b60006002820490506001821680620002e457607f821691505b60208210811415620002fb57620002fa62000301565b5b50919050565b7f4e487b7100000000000000000000000000000000000000000000000000000000600052602260045260246000fd5b6200033b8162000283565b81146200034757600080fd5b50565b620003558162000297565b81146200036157600080fd5b50565b6108f780620003746000396000f3fe608060405234801561001057600080fd5b50600436106100935760003560e01c80638da5cb5b116100665780638da5cb5b14610132578063b578fa1914610150578063c93c8f341461016e578063ea987a1e1461019e578063fd5e6dd1146101bc57610093565b806306fdde031461009857806345bc78ab146100b65780636f49712b146100e65780637547c7a314610116575b600080fd5b6100a06101ec565b6040516100ad919061067f565b60405180910390f35b6100d060048036038101906100cb91906104ba565b61027a565b6040516100dd91906106c1565b60405180910390f35b61010060048036038101906100fb91906104ba565b610292565b60405161010d919061062e565b60405180910390f35b610130600480360381019061012b919061050c565b6102b2565b005b61013a6103aa565b60405161014791906105dc565b60405180910390f35b6101586103d0565b6040516101659190610664565b60405180910390f35b610188600480360381019061018391906104ba565b6103f6565b604051610195919061062e565b60405180910390f35b6101a6610416565b6040516101b39190610649565b60405180910390f35b6101d660048036038101906101d1919061050c565b61043c565b6040516101e391906105dc565b60405180910390f35b600080546101f9906107bb565b80601f0160208091040260200160405190810160405280929190818152602001828054610225906107bb565b80156102725780601f1061024757610100808354040283529160200191610272565b820191906000526020600020905b81548152906001019060200180831161025557829003601f168201915b505050505081565b60056020528060005260406000206000915090505481565b60076020528060005260406000206000915054906101000a900460ff1681565b600081116102f5576040517f08c379a00000000000000000000000000000000000000000000000000000000081526004016102ec906106a1565b60405180910390fd5b600260009054906101000a900473ffffffffffffffffffffffffffffffffffffffff1673ffffffffffffffffffffffffffffffffffffffff166323b872dd3330846040518463ffffffff1660e01b8152600401610354939291906105f7565b602060405180830381600087803b15801561036e57600080fd5b505af1158015610382573d6000803e3d6000fd5b505050506040513d601f19601f820116820180604052508101906103a691906104e3565b5050565b600160009054906101000a900473ffffffffffffffffffffffffffffffffffffffff1681565b600360009054906101000a900473ffffffffffffffffffffffffffffffffffffffff1681565b60066020528060005260406000206000915054906101000a900460ff1681565b600260009054906101000a900473ffffffffffffffffffffffffffffffffffffffff1681565b6004818154811061044c57600080fd5b906000526020600020016000915054906101000a900473ffffffffffffffffffffffffffffffffffffffff1681565b60008135905061048a8161087c565b92915050565b60008151905061049f81610893565b92915050565b6000813590506104b4816108aa565b92915050565b6000602082840312156104cc57600080fd5b60006104da8482850161047b565b91505092915050565b6000602082840312156104f557600080fd5b600061050384828501610490565b91505092915050565b60006020828403121561051e57600080fd5b600061052c848285016104a5565b91505092915050565b61053e816106f8565b82525050565b61054d8161070a565b82525050565b61055c81610740565b82525050565b61056b81610764565b82525050565b600061057c826106dc565b61058681856106e7565b9350610596818560208601610788565b61059f8161081c565b840191505092915050565b60006105b76022836106e7565b91506105c28261082d565b604082019050919050565b6105d681610736565b82525050565b60006020820190506105f16000830184610535565b92915050565b600060608201905061060c6000830186610535565b6106196020830185610535565b61062660408301846105cd565b949350505050565b60006020820190506106436000830184610544565b92915050565b600060208201905061065e6000830184610553565b92915050565b60006020820190506106796000830184610562565b92915050565b600060208201905081810360008301526106998184610571565b905092915050565b600060208201905081810360008301526106ba816105aa565b9050919050565b60006020820190506106d660008301846105cd565b92915050565b600081519050919050565b600082825260208201905092915050565b600061070382610716565b9050919050565b60008115159050919050565b600073ffffffffffffffffffffffffffffffffffffffff82169050919050565b6000819050919050565b600061074b82610752565b9050919050565b600061075d82610716565b9050919050565b600061076f82610776565b9050919050565b600061078182610716565b9050919050565b60005b838110156107a657808201518184015260208101905061078b565b838111156107b5576000848401525b50505050565b600060028204905060018216806107d357607f821691505b602082108114156107e7576107e66107ed565b5b50919050565b7f4e487b7100000000000000000000000000000000000000000000000000000000600052602260045260246000fd5b6000601f19601f8301169050919050565b7f54686520616d6f756e74206d757374206265206772656174686572207468616e60008201527f2030000000000000000000000000000000000000000000000000000000000000602082015250565b610885816106f8565b811461089057600080fd5b50565b61089c8161070a565b81146108a757600080fd5b50565b6108b381610736565b81146108be57600080fd5b5056fea26469706673582212209bfd871a459166d5b7364b04aa825113b7af92496c3bb19678d4917f871860de64736f6c63430008040033",
					"opcodes": "PUSH1 0x80 PUSH1 0x40 MSTORE PUSH1 0x40 MLOAD DUP1 PUSH1 0x40 ADD PUSH1 0x40 MSTORE DUP1 PUSH1 0x9 DUP2 MSTORE PUSH1 0x20 ADD PUSH32 0x44454649204661726D0000000000000000000000000000000000000000000000 DUP2 MSTORE POP PUSH1 0x0 SWAP1 DUP1 MLOAD SWAP1 PUSH1 0x20 ADD SWAP1 PUSH3 0x51 SWAP3 SWAP2 SWAP1 PUSH3 0x150 JUMP JUMPDEST POP CALLVALUE DUP1 ISZERO PUSH3 0x5F JUMPI PUSH1 0x0 DUP1 REVERT JUMPDEST POP PUSH1 0x40 MLOAD PUSH3 0xC6B CODESIZE SUB DUP1 PUSH3 0xC6B DUP4 CODECOPY DUP2 DUP2 ADD PUSH1 0x40 MSTORE DUP2 ADD SWAP1 PUSH3 0x85 SWAP2 SWAP1 PUSH3 0x22E JUMP JUMPDEST DUP2 PUSH1 0x2 PUSH1 0x0 PUSH2 0x100 EXP DUP2 SLOAD DUP2 PUSH20 0xFFFFFFFFFFFFFFFFFFFFFFFFFFFFFFFFFFFFFFFF MUL NOT AND SWAP1 DUP4 PUSH20 0xFFFFFFFFFFFFFFFFFFFFFFFFFFFFFFFFFFFFFFFF AND MUL OR SWAP1 SSTORE POP DUP1 PUSH1 0x3 PUSH1 0x0 PUSH2 0x100 EXP DUP2 SLOAD DUP2 PUSH20 0xFFFFFFFFFFFFFFFFFFFFFFFFFFFFFFFFFFFFFFFF MUL NOT AND SWAP1 DUP4 PUSH20 0xFFFFFFFFFFFFFFFFFFFFFFFFFFFFFFFFFFFFFFFF AND MUL OR SWAP1 SSTORE POP CALLER PUSH1 0x1 PUSH1 0x0 PUSH2 0x100 EXP DUP2 SLOAD DUP2 PUSH20 0xFFFFFFFFFFFFFFFFFFFFFFFFFFFFFFFFFFFFFFFF MUL NOT AND SWAP1 DUP4 PUSH20 0xFFFFFFFFFFFFFFFFFFFFFFFFFFFFFFFFFFFFFFFF AND MUL OR SWAP1 SSTORE POP POP POP PUSH3 0x364 JUMP JUMPDEST DUP3 DUP1 SLOAD PUSH3 0x15E SWAP1 PUSH3 0x2CB JUMP JUMPDEST SWAP1 PUSH1 0x0 MSTORE PUSH1 0x20 PUSH1 0x0 KECCAK256 SWAP1 PUSH1 0x1F ADD PUSH1 0x20 SWAP1 DIV DUP2 ADD SWAP3 DUP3 PUSH3 0x182 JUMPI PUSH1 0x0 DUP6 SSTORE PUSH3 0x1CE JUMP JUMPDEST DUP3 PUSH1 0x1F LT PUSH3 0x19D JUMPI DUP1 MLOAD PUSH1 0xFF NOT AND DUP4 DUP1 ADD OR DUP6 SSTORE PUSH3 0x1CE JUMP JUMPDEST DUP3 DUP1 ADD PUSH1 0x1 ADD DUP6 SSTORE DUP3 ISZERO PUSH3 0x1CE JUMPI SWAP2 DUP3 ADD JUMPDEST DUP3 DUP2 GT ISZERO PUSH3 0x1CD JUMPI DUP3 MLOAD DUP3 SSTORE SWAP2 PUSH1 0x20 ADD SWAP2 SWAP1 PUSH1 0x1 ADD SWAP1 PUSH3 0x1B0 JUMP JUMPDEST JUMPDEST POP SWAP1 POP PUSH3 0x1DD SWAP2 SWAP1 PUSH3 0x1E1 JUMP JUMPDEST POP SWAP1 JUMP JUMPDEST JUMPDEST DUP1 DUP3 GT ISZERO PUSH3 0x1FC JUMPI PUSH1 0x0 DUP2 PUSH1 0x0 SWAP1 SSTORE POP PUSH1 0x1 ADD PUSH3 0x1E2 JUMP JUMPDEST POP SWAP1 JUMP JUMPDEST PUSH1 0x0 DUP2 MLOAD SWAP1 POP PUSH3 0x211 DUP2 PUSH3 0x330 JUMP JUMPDEST SWAP3 SWAP2 POP POP JUMP JUMPDEST PUSH1 0x0 DUP2 MLOAD SWAP1 POP PUSH3 0x228 DUP2 PUSH3 0x34A JUMP JUMPDEST SWAP3 SWAP2 POP POP JUMP JUMPDEST PUSH1 0x0 DUP1 PUSH1 0x40 DUP4 DUP6 SUB SLT ISZERO PUSH3 0x242 JUMPI PUSH1 0x0 DUP1 REVERT JUMPDEST PUSH1 0x0 PUSH3 0x252 DUP6 DUP3 DUP7 ADD PUSH3 0x200 JUMP JUMPDEST SWAP3 POP POP PUSH1 0x20 PUSH3 0x265 DUP6 DUP3 DUP7 ADD PUSH3 0x217 JUMP JUMPDEST SWAP2 POP POP SWAP3 POP SWAP3 SWAP1 POP JUMP JUMPDEST PUSH1 0x0 PUSH3 0x27C DUP3 PUSH3 0x2AB JUMP JUMPDEST SWAP1 POP SWAP2 SWAP1 POP JUMP JUMPDEST PUSH1 0x0 PUSH3 0x290 DUP3 PUSH3 0x26F JUMP JUMPDEST SWAP1 POP SWAP2 SWAP1 POP JUMP JUMPDEST PUSH1 0x0 PUSH3 0x2A4 DUP3 PUSH3 0x26F JUMP JUMPDEST SWAP1 POP SWAP2 SWAP1 POP JUMP JUMPDEST PUSH1 0x0 PUSH20 0xFFFFFFFFFFFFFFFFFFFFFFFFFFFFFFFFFFFFFFFF DUP3 AND SWAP1 POP SWAP2 SWAP1 POP JUMP JUMPDEST PUSH1 0x0 PUSH1 0x2 DUP3 DIV SWAP1 POP PUSH1 0x1 DUP3 AND DUP1 PUSH3 0x2E4 JUMPI PUSH1 0x7F DUP3 AND SWAP2 POP JUMPDEST PUSH1 0x20 DUP3 LT DUP2 EQ ISZERO PUSH3 0x2FB JUMPI PUSH3 0x2FA PUSH3 0x301 JUMP JUMPDEST JUMPDEST POP SWAP2 SWAP1 POP JUMP JUMPDEST PUSH32 0x4E487B7100000000000000000000000000000000000000000000000000000000 PUSH1 0x0 MSTORE PUSH1 0x22 PUSH1 0x4 MSTORE PUSH1 0x24 PUSH1 0x0 REVERT JUMPDEST PUSH3 0x33B DUP2 PUSH3 0x283 JUMP JUMPDEST DUP2 EQ PUSH3 0x347 JUMPI PUSH1 0x0 DUP1 REVERT JUMPDEST POP JUMP JUMPDEST PUSH3 0x355 DUP2 PUSH3 0x297 JUMP JUMPDEST DUP2 EQ PUSH3 0x361 JUMPI PUSH1 0x0 DUP1 REVERT JUMPDEST POP JUMP JUMPDEST PUSH2 0x8F7 DUP1 PUSH3 0x374 PUSH1 0x0 CODECOPY PUSH1 0x0 RETURN INVALID PUSH1 0x80 PUSH1 0x40 MSTORE CALLVALUE DUP1 ISZERO PUSH2 0x10 JUMPI PUSH1 0x0 DUP1 REVERT JUMPDEST POP PUSH1 0x4 CALLDATASIZE LT PUSH2 0x93 JUMPI PUSH1 0x0 CALLDATALOAD PUSH1 0xE0 SHR DUP1 PUSH4 0x8DA5CB5B GT PUSH2 0x66 JUMPI DUP1 PUSH4 0x8DA5CB5B EQ PUSH2 0x132 JUMPI DUP1 PUSH4 0xB578FA19 EQ PUSH2 0x150 JUMPI DUP1 PUSH4 0xC93C8F34 EQ PUSH2 0x16E JUMPI DUP1 PUSH4 0xEA987A1E EQ PUSH2 0x19E JUMPI DUP1 PUSH4 0xFD5E6DD1 EQ PUSH2 0x1BC JUMPI PUSH2 0x93 JUMP JUMPDEST DUP1 PUSH4 0x6FDDE03 EQ PUSH2 0x98 JUMPI DUP1 PUSH4 0x45BC78AB EQ PUSH2 0xB6 JUMPI DUP1 PUSH4 0x6F49712B EQ PUSH2 0xE6 JUMPI DUP1 PUSH4 0x7547C7A3 EQ PUSH2 0x116 JUMPI JUMPDEST PUSH1 0x0 DUP1 REVERT JUMPDEST PUSH2 0xA0 PUSH2 0x1EC JUMP JUMPDEST PUSH1 0x40 MLOAD PUSH2 0xAD SWAP2 SWAP1 PUSH2 0x67F JUMP JUMPDEST PUSH1 0x40 MLOAD DUP1 SWAP2 SUB SWAP1 RETURN JUMPDEST PUSH2 0xD0 PUSH1 0x4 DUP1 CALLDATASIZE SUB DUP2 ADD SWAP1 PUSH2 0xCB SWAP2 SWAP1 PUSH2 0x4BA JUMP JUMPDEST PUSH2 0x27A JUMP JUMPDEST PUSH1 0x40 MLOAD PUSH2 0xDD SWAP2 SWAP1 PUSH2 0x6C1 JUMP JUMPDEST PUSH1 0x40 MLOAD DUP1 SWAP2 SUB SWAP1 RETURN JUMPDEST PUSH2 0x100 PUSH1 0x4 DUP1 CALLDATASIZE SUB DUP2 ADD SWAP1 PUSH2 0xFB SWAP2 SWAP1 PUSH2 0x4BA JUMP JUMPDEST PUSH2 0x292 JUMP JUMPDEST PUSH1 0x40 MLOAD PUSH2 0x10D SWAP2 SWAP1 PUSH2 0x62E JUMP JUMPDEST PUSH1 0x40 MLOAD DUP1 SWAP2 SUB SWAP1 RETURN JUMPDEST PUSH2 0x130 PUSH1 0x4 DUP1 CALLDATASIZE SUB DUP2 ADD SWAP1 PUSH2 0x12B SWAP2 SWAP1 PUSH2 0x50C JUMP JUMPDEST PUSH2 0x2B2 JUMP JUMPDEST STOP JUMPDEST PUSH2 0x13A PUSH2 0x3AA JUMP JUMPDEST PUSH1 0x40 MLOAD PUSH2 0x147 SWAP2 SWAP1 PUSH2 0x5DC JUMP JUMPDEST PUSH1 0x40 MLOAD DUP1 SWAP2 SUB SWAP1 RETURN JUMPDEST PUSH2 0x158 PUSH2 0x3D0 JUMP JUMPDEST PUSH1 0x40 MLOAD PUSH2 0x165 SWAP2 SWAP1 PUSH2 0x664 JUMP JUMPDEST PUSH1 0x40 MLOAD DUP1 SWAP2 SUB SWAP1 RETURN JUMPDEST PUSH2 0x188 PUSH1 0x4 DUP1 CALLDATASIZE SUB DUP2 ADD SWAP1 PUSH2 0x183 SWAP2 SWAP1 PUSH2 0x4BA JUMP JUMPDEST PUSH2 0x3F6 JUMP JUMPDEST PUSH1 0x40 MLOAD PUSH2 0x195 SWAP2 SWAP1 PUSH2 0x62E JUMP JUMPDEST PUSH1 0x40 MLOAD DUP1 SWAP2 SUB SWAP1 RETURN JUMPDEST PUSH2 0x1A6 PUSH2 0x416 JUMP JUMPDEST PUSH1 0x40 MLOAD PUSH2 0x1B3 SWAP2 SWAP1 PUSH2 0x649 JUMP JUMPDEST PUSH1 0x40 MLOAD DUP1 SWAP2 SUB SWAP1 RETURN JUMPDEST PUSH2 0x1D6 PUSH1 0x4 DUP1 CALLDATASIZE SUB DUP2 ADD SWAP1 PUSH2 0x1D1 SWAP2 SWAP1 PUSH2 0x50C JUMP JUMPDEST PUSH2 0x43C JUMP JUMPDEST PUSH1 0x40 MLOAD PUSH2 0x1E3 SWAP2 SWAP1 PUSH2 0x5DC JUMP JUMPDEST PUSH1 0x40 MLOAD DUP1 SWAP2 SUB SWAP1 RETURN JUMPDEST PUSH1 0x0 DUP1 SLOAD PUSH2 0x1F9 SWAP1 PUSH2 0x7BB JUMP JUMPDEST DUP1 PUSH1 0x1F ADD PUSH1 0x20 DUP1 SWAP2 DIV MUL PUSH1 0x20 ADD PUSH1 0x40 MLOAD SWAP1 DUP2 ADD PUSH1 0x40 MSTORE DUP1 SWAP3 SWAP2 SWAP1 DUP2 DUP2 MSTORE PUSH1 0x20 ADD DUP3 DUP1 SLOAD PUSH2 0x225 SWAP1 PUSH2 0x7BB JUMP JUMPDEST DUP1 ISZERO PUSH2 0x272 JUMPI DUP1 PUSH1 0x1F LT PUSH2 0x247 JUMPI PUSH2 0x100 DUP1 DUP4 SLOAD DIV MUL DUP4 MSTORE SWAP2 PUSH1 0x20 ADD SWAP2 PUSH2 0x272 JUMP JUMPDEST DUP3 ADD SWAP2 SWAP1 PUSH1 0x0 MSTORE PUSH1 0x20 PUSH1 0x0 KECCAK256 SWAP1 JUMPDEST DUP2 SLOAD DUP2 MSTORE SWAP1 PUSH1 0x1 ADD SWAP1 PUSH1 0x20 ADD DUP1 DUP4 GT PUSH2 0x255 JUMPI DUP3 SWAP1 SUB PUSH1 0x1F AND DUP3 ADD SWAP2 JUMPDEST POP POP POP POP POP DUP2 JUMP JUMPDEST PUSH1 0x5 PUSH1 0x20 MSTORE DUP1 PUSH1 0x0 MSTORE PUSH1 0x40 PUSH1 0x0 KECCAK256 PUSH1 0x0 SWAP2 POP SWAP1 POP SLOAD DUP2 JUMP JUMPDEST PUSH1 0x7 PUSH1 0x20 MSTORE DUP1 PUSH1 0x0 MSTORE PUSH1 0x40 PUSH1 0x0 KECCAK256 PUSH1 0x0 SWAP2 POP SLOAD SWAP1 PUSH2 0x100 EXP SWAP1 DIV PUSH1 0xFF AND DUP2 JUMP JUMPDEST PUSH1 0x0 DUP2 GT PUSH2 0x2F5 JUMPI PUSH1 0x40 MLOAD PUSH32 0x8C379A000000000000000000000000000000000000000000000000000000000 DUP2 MSTORE PUSH1 0x4 ADD PUSH2 0x2EC SWAP1 PUSH2 0x6A1 JUMP JUMPDEST PUSH1 0x40 MLOAD DUP1 SWAP2 SUB SWAP1 REVERT JUMPDEST PUSH1 0x2 PUSH1 0x0 SWAP1 SLOAD SWAP1 PUSH2 0x100 EXP SWAP1 DIV PUSH20 0xFFFFFFFFFFFFFFFFFFFFFFFFFFFFFFFFFFFFFFFF AND PUSH20 0xFFFFFFFFFFFFFFFFFFFFFFFFFFFFFFFFFFFFFFFF AND PUSH4 0x23B872DD CALLER ADDRESS DUP5 PUSH1 0x40 MLOAD DUP5 PUSH4 0xFFFFFFFF AND PUSH1 0xE0 SHL DUP2 MSTORE PUSH1 0x4 ADD PUSH2 0x354 SWAP4 SWAP3 SWAP2 SWAP1 PUSH2 0x5F7 JUMP JUMPDEST PUSH1 0x20 PUSH1 0x40 MLOAD DUP1 DUP4 SUB DUP2 PUSH1 0x0 DUP8 DUP1 EXTCODESIZE ISZERO DUP1 ISZERO PUSH2 0x36E JUMPI PUSH1 0x0 DUP1 REVERT JUMPDEST POP GAS CALL ISZERO DUP1 ISZERO PUSH2 0x382 JUMPI RETURNDATASIZE PUSH1 0x0 DUP1 RETURNDATACOPY RETURNDATASIZE PUSH1 0x0 REVERT JUMPDEST POP POP POP POP PUSH1 0x40 MLOAD RETURNDATASIZE PUSH1 0x1F NOT PUSH1 0x1F DUP3 ADD AND DUP3 ADD DUP1 PUSH1 0x40 MSTORE POP DUP2 ADD SWAP1 PUSH2 0x3A6 SWAP2 SWAP1 PUSH2 0x4E3 JUMP JUMPDEST POP POP JUMP JUMPDEST PUSH1 0x1 PUSH1 0x0 SWAP1 SLOAD SWAP1 PUSH2 0x100 EXP SWAP1 DIV PUSH20 0xFFFFFFFFFFFFFFFFFFFFFFFFFFFFFFFFFFFFFFFF AND DUP2 JUMP JUMPDEST PUSH1 0x3 PUSH1 0x0 SWAP1 SLOAD SWAP1 PUSH2 0x100 EXP SWAP1 DIV PUSH20 0xFFFFFFFFFFFFFFFFFFFFFFFFFFFFFFFFFFFFFFFF AND DUP2 JUMP JUMPDEST PUSH1 0x6 PUSH1 0x20 MSTORE DUP1 PUSH1 0x0 MSTORE PUSH1 0x40 PUSH1 0x0 KECCAK256 PUSH1 0x0 SWAP2 POP SLOAD SWAP1 PUSH2 0x100 EXP SWAP1 DIV PUSH1 0xFF AND DUP2 JUMP JUMPDEST PUSH1 0x2 PUSH1 0x0 SWAP1 SLOAD SWAP1 PUSH2 0x100 EXP SWAP1 DIV PUSH20 0xFFFFFFFFFFFFFFFFFFFFFFFFFFFFFFFFFFFFFFFF AND DUP2 JUMP JUMPDEST PUSH1 0x4 DUP2 DUP2 SLOAD DUP2 LT PUSH2 0x44C JUMPI PUSH1 0x0 DUP1 REVERT JUMPDEST SWAP1 PUSH1 0x0 MSTORE PUSH1 0x20 PUSH1 0x0 KECCAK256 ADD PUSH1 0x0 SWAP2 POP SLOAD SWAP1 PUSH2 0x100 EXP SWAP1 DIV PUSH20 0xFFFFFFFFFFFFFFFFFFFFFFFFFFFFFFFFFFFFFFFF AND DUP2 JUMP JUMPDEST PUSH1 0x0 DUP2 CALLDATALOAD SWAP1 POP PUSH2 0x48A DUP2 PUSH2 0x87C JUMP JUMPDEST SWAP3 SWAP2 POP POP JUMP JUMPDEST PUSH1 0x0 DUP2 MLOAD SWAP1 POP PUSH2 0x49F DUP2 PUSH2 0x893 JUMP JUMPDEST SWAP3 SWAP2 POP POP JUMP JUMPDEST PUSH1 0x0 DUP2 CALLDATALOAD SWAP1 POP PUSH2 0x4B4 DUP2 PUSH2 0x8AA JUMP JUMPDEST SWAP3 SWAP2 POP POP JUMP JUMPDEST PUSH1 0x0 PUSH1 0x20 DUP3 DUP5 SUB SLT ISZERO PUSH2 0x4CC JUMPI PUSH1 0x0 DUP1 REVERT JUMPDEST PUSH1 0x0 PUSH2 0x4DA DUP5 DUP3 DUP6 ADD PUSH2 0x47B JUMP JUMPDEST SWAP2 POP POP SWAP3 SWAP2 POP POP JUMP JUMPDEST PUSH1 0x0 PUSH1 0x20 DUP3 DUP5 SUB SLT ISZERO PUSH2 0x4F5 JUMPI PUSH1 0x0 DUP1 REVERT JUMPDEST PUSH1 0x0 PUSH2 0x503 DUP5 DUP3 DUP6 ADD PUSH2 0x490 JUMP JUMPDEST SWAP2 POP POP SWAP3 SWAP2 POP POP JUMP JUMPDEST PUSH1 0x0 PUSH1 0x20 DUP3 DUP5 SUB SLT ISZERO PUSH2 0x51E JUMPI PUSH1 0x0 DUP1 REVERT JUMPDEST PUSH1 0x0 PUSH2 0x52C DUP5 DUP3 DUP6 ADD PUSH2 0x4A5 JUMP JUMPDEST SWAP2 POP POP SWAP3 SWAP2 POP POP JUMP JUMPDEST PUSH2 0x53E DUP2 PUSH2 0x6F8 JUMP JUMPDEST DUP3 MSTORE POP POP JUMP JUMPDEST PUSH2 0x54D DUP2 PUSH2 0x70A JUMP JUMPDEST DUP3 MSTORE POP POP JUMP JUMPDEST PUSH2 0x55C DUP2 PUSH2 0x740 JUMP JUMPDEST DUP3 MSTORE POP POP JUMP JUMPDEST PUSH2 0x56B DUP2 PUSH2 0x764 JUMP JUMPDEST DUP3 MSTORE POP POP JUMP JUMPDEST PUSH1 0x0 PUSH2 0x57C DUP3 PUSH2 0x6DC JUMP JUMPDEST PUSH2 0x586 DUP2 DUP6 PUSH2 0x6E7 JUMP JUMPDEST SWAP4 POP PUSH2 0x596 DUP2 DUP6 PUSH1 0x20 DUP7 ADD PUSH2 0x788 JUMP JUMPDEST PUSH2 0x59F DUP2 PUSH2 0x81C JUMP JUMPDEST DUP5 ADD SWAP2 POP POP SWAP3 SWAP2 POP POP JUMP JUMPDEST PUSH1 0x0 PUSH2 0x5B7 PUSH1 0x22 DUP4 PUSH2 0x6E7 JUMP JUMPDEST SWAP2 POP PUSH2 0x5C2 DUP3 PUSH2 0x82D JUMP JUMPDEST PUSH1 0x40 DUP3 ADD SWAP1 POP SWAP2 SWAP1 POP JUMP JUMPDEST PUSH2 0x5D6 DUP2 PUSH2 0x736 JUMP JUMPDEST DUP3 MSTORE POP POP JUMP JUMPDEST PUSH1 0x0 PUSH1 0x20 DUP3 ADD SWAP1 POP PUSH2 0x5F1 PUSH1 0x0 DUP4 ADD DUP5 PUSH2 0x535 JUMP JUMPDEST SWAP3 SWAP2 POP POP JUMP JUMPDEST PUSH1 0x0 PUSH1 0x60 DUP3 ADD SWAP1 POP PUSH2 0x60C PUSH1 0x0 DUP4 ADD DUP7 PUSH2 0x535 JUMP JUMPDEST PUSH2 0x619 PUSH1 0x20 DUP4 ADD DUP6 PUSH2 0x535 JUMP JUMPDEST PUSH2 0x626 PUSH1 0x40 DUP4 ADD DUP5 PUSH2 0x5CD JUMP JUMPDEST SWAP5 SWAP4 POP POP POP POP JUMP JUMPDEST PUSH1 0x0 PUSH1 0x20 DUP3 ADD SWAP1 POP PUSH2 0x643 PUSH1 0x0 DUP4 ADD DUP5 PUSH2 0x544 JUMP JUMPDEST SWAP3 SWAP2 POP POP JUMP JUMPDEST PUSH1 0x0 PUSH1 0x20 DUP3 ADD SWAP1 POP PUSH2 0x65E PUSH1 0x0 DUP4 ADD DUP5 PUSH2 0x553 JUMP JUMPDEST SWAP3 SWAP2 POP POP JUMP JUMPDEST PUSH1 0x0 PUSH1 0x20 DUP3 ADD SWAP1 POP PUSH2 0x679 PUSH1 0x0 DUP4 ADD DUP5 PUSH2 0x562 JUMP JUMPDEST SWAP3 SWAP2 POP POP JUMP JUMPDEST PUSH1 0x0 PUSH1 0x20 DUP3 ADD SWAP1 POP DUP2 DUP2 SUB PUSH1 0x0 DUP4 ADD MSTORE PUSH2 0x699 DUP2 DUP5 PUSH2 0x571 JUMP JUMPDEST SWAP1 POP SWAP3 SWAP2 POP POP JUMP JUMPDEST PUSH1 0x0 PUSH1 0x20 DUP3 ADD SWAP1 POP DUP2 DUP2 SUB PUSH1 0x0 DUP4 ADD MSTORE PUSH2 0x6BA DUP2 PUSH2 0x5AA JUMP JUMPDEST SWAP1 POP SWAP2 SWAP1 POP JUMP JUMPDEST PUSH1 0x0 PUSH1 0x20 DUP3 ADD SWAP1 POP PUSH2 0x6D6 PUSH1 0x0 DUP4 ADD DUP5 PUSH2 0x5CD JUMP JUMPDEST SWAP3 SWAP2 POP POP JUMP JUMPDEST PUSH1 0x0 DUP2 MLOAD SWAP1 POP SWAP2 SWAP1 POP JUMP JUMPDEST PUSH1 0x0 DUP3 DUP3 MSTORE PUSH1 0x20 DUP3 ADD SWAP1 POP SWAP3 SWAP2 POP POP JUMP JUMPDEST PUSH1 0x0 PUSH2 0x703 DUP3 PUSH2 0x716 JUMP JUMPDEST SWAP1 POP SWAP2 SWAP1 POP JUMP JUMPDEST PUSH1 0x0 DUP2 ISZERO ISZERO SWAP1 POP SWAP2 SWAP1 POP JUMP JUMPDEST PUSH1 0x0 PUSH20 0xFFFFFFFFFFFFFFFFFFFFFFFFFFFFFFFFFFFFFFFF DUP3 AND SWAP1 POP SWAP2 SWAP1 POP JUMP JUMPDEST PUSH1 0x0 DUP2 SWAP1 POP SWAP2 SWAP1 POP JUMP JUMPDEST PUSH1 0x0 PUSH2 0x74B DUP3 PUSH2 0x752 JUMP JUMPDEST SWAP1 POP SWAP2 SWAP1 POP JUMP JUMPDEST PUSH1 0x0 PUSH2 0x75D DUP3 PUSH2 0x716 JUMP JUMPDEST SWAP1 POP SWAP2 SWAP1 POP JUMP JUMPDEST PUSH1 0x0 PUSH2 0x76F DUP3 PUSH2 0x776 JUMP JUMPDEST SWAP1 POP SWAP2 SWAP1 POP JUMP JUMPDEST PUSH1 0x0 PUSH2 0x781 DUP3 PUSH2 0x716 JUMP JUMPDEST SWAP1 POP SWAP2 SWAP1 POP JUMP JUMPDEST PUSH1 0x0 JUMPDEST DUP4 DUP2 LT ISZERO PUSH2 0x7A6 JUMPI DUP1 DUP3 ADD MLOAD DUP2 DUP5 ADD MSTORE PUSH1 0x20 DUP2 ADD SWAP1 POP PUSH2 0x78B JUMP JUMPDEST DUP4 DUP2 GT ISZERO PUSH2 0x7B5 JUMPI PUSH1 0x0 DUP5 DUP5 ADD MSTORE JUMPDEST POP POP POP POP JUMP JUMPDEST PUSH1 0x0 PUSH1 0x2 DUP3 DIV SWAP1 POP PUSH1 0x1 DUP3 AND DUP1 PUSH2 0x7D3 JUMPI PUSH1 0x7F DUP3 AND SWAP2 POP JUMPDEST PUSH1 0x20 DUP3 LT DUP2 EQ ISZERO PUSH2 0x7E7 JUMPI PUSH2 0x7E6 PUSH2 0x7ED JUMP JUMPDEST JUMPDEST POP SWAP2 SWAP1 POP JUMP JUMPDEST PUSH32 0x4E487B7100000000000000000000000000000000000000000000000000000000 PUSH1 0x0 MSTORE PUSH1 0x22 PUSH1 0x4 MSTORE PUSH1 0x24 PUSH1 0x0 REVERT JUMPDEST PUSH1 0x0 PUSH1 0x1F NOT PUSH1 0x1F DUP4 ADD AND SWAP1 POP SWAP2 SWAP1 POP JUMP JUMPDEST PUSH32 0x54686520616D6F756E74206D757374206265206772656174686572207468616E PUSH1 0x0 DUP3 ADD MSTORE PUSH32 0x2030000000000000000000000000000000000000000000000000000000000000 PUSH1 0x20 DUP3 ADD MSTORE POP JUMP JUMPDEST PUSH2 0x885 DUP2 PUSH2 0x6F8 JUMP JUMPDEST DUP2 EQ PUSH2 0x890 JUMPI PUSH1 0x0 DUP1 REVERT JUMPDEST POP JUMP JUMPDEST PUSH2 0x89C DUP2 PUSH2 0x70A JUMP JUMPDEST DUP2 EQ PUSH2 0x8A7 JUMPI PUSH1 0x0 DUP1 REVERT JUMPDEST POP JUMP JUMPDEST PUSH2 0x8B3 DUP2 PUSH2 0x736 JUMP JUMPDEST DUP2 EQ PUSH2 0x8BE JUMPI PUSH1 0x0 DUP1 REVERT JUMPDEST POP JUMP INVALID LOG2 PUSH5 0x6970667358 0x22 SLT KECCAK256 SWAP12 REVERT DUP8 BYTE GASLIMIT SWAP2 PUSH7 0xD5B7364B04AA82 MLOAD SGT 0xB7 0xAF SWAP3 0x49 PUSH13 0x3BB19678D4917F871860DE6473 PUSH16 0x6C634300080400330000000000000000 "
				},
				"gasEstimates": {
					"creation": {
						"codeDepositCost": "459000",
						"executionCost": "infinite",
						"totalCost": "infinite"
					},
					"external": {
						"defiToken()": "1323",
						"hasStaked(address)": "1589",
						"isStaking(address)": "1590",
						"name()": "infinite",
						"owner()": "1214",
						"rewardDefiToken()": "1279",
						"stakeTokens(uint256)": "infinite",
						"stakers(uint256)": "2444",
						"stakingBalance(address)": "1537"
					}
				},
				"methodIdentifiers": {
					"defiToken()": "ea987a1e",
					"hasStaked(address)": "c93c8f34",
					"isStaking(address)": "6f49712b",
					"name()": "06fdde03",
					"owner()": "8da5cb5b",
					"rewardDefiToken()": "b578fa19",
					"stakeTokens(uint256)": "7547c7a3",
					"stakers(uint256)": "fd5e6dd1",
					"stakingBalance(address)": "45bc78ab"
				}
			},
			"storageLayout": {
				"storage": [
					{
						"astId": 190,
						"contract": "contracts/FarmContract.sol:FarmContract",
						"label": "name",
						"offset": 0,
						"slot": "0",
						"type": "t_string_storage"
					},
					{
						"astId": 192,
						"contract": "contracts/FarmContract.sol:FarmContract",
						"label": "owner",
						"offset": 0,
						"slot": "1",
						"type": "t_address"
					},
					{
						"astId": 195,
						"contract": "contracts/FarmContract.sol:FarmContract",
						"label": "defiToken",
						"offset": 0,
						"slot": "2",
						"type": "t_contract(DefiToken)183"
					},
					{
						"astId": 198,
						"contract": "contracts/FarmContract.sol:FarmContract",
						"label": "rewardDefiToken",
						"offset": 0,
						"slot": "3",
						"type": "t_contract(RewardDEFIToken)446"
					},
					{
						"astId": 201,
						"contract": "contracts/FarmContract.sol:FarmContract",
						"label": "stakers",
						"offset": 0,
						"slot": "4",
						"type": "t_array(t_address)dyn_storage"
					},
					{
						"astId": 205,
						"contract": "contracts/FarmContract.sol:FarmContract",
						"label": "stakingBalance",
						"offset": 0,
						"slot": "5",
						"type": "t_mapping(t_address,t_uint256)"
					},
					{
						"astId": 209,
						"contract": "contracts/FarmContract.sol:FarmContract",
						"label": "hasStaked",
						"offset": 0,
						"slot": "6",
						"type": "t_mapping(t_address,t_bool)"
					},
					{
						"astId": 213,
						"contract": "contracts/FarmContract.sol:FarmContract",
						"label": "isStaking",
						"offset": 0,
						"slot": "7",
						"type": "t_mapping(t_address,t_bool)"
					}
				],
				"types": {
					"t_address": {
						"encoding": "inplace",
						"label": "address",
						"numberOfBytes": "20"
					},
					"t_array(t_address)dyn_storage": {
						"base": "t_address",
						"encoding": "dynamic_array",
						"label": "address[]",
						"numberOfBytes": "32"
					},
					"t_bool": {
						"encoding": "inplace",
						"label": "bool",
						"numberOfBytes": "1"
					},
					"t_contract(DefiToken)183": {
						"encoding": "inplace",
						"label": "contract DefiToken",
						"numberOfBytes": "20"
					},
					"t_contract(RewardDEFIToken)446": {
						"encoding": "inplace",
						"label": "contract RewardDEFIToken",
						"numberOfBytes": "20"
					},
					"t_mapping(t_address,t_bool)": {
						"encoding": "mapping",
						"key": "t_address",
						"label": "mapping(address => bool)",
						"numberOfBytes": "32",
						"value": "t_bool"
					},
					"t_mapping(t_address,t_uint256)": {
						"encoding": "mapping",
						"key": "t_address",
						"label": "mapping(address => uint256)",
						"numberOfBytes": "32",
						"value": "t_uint256"
					},
					"t_string_storage": {
						"encoding": "bytes",
						"label": "string",
						"numberOfBytes": "32"
					},
					"t_uint256": {
						"encoding": "inplace",
						"label": "uint256",
						"numberOfBytes": "32"
					}
				}
			},
			"userdoc": {
				"kind": "user",
				"methods": {},
				"version": 1
			}
		}
	}
}