{
	"contracts/FarmContract.sol": {
		"FarmContract": {
			"abi": [
				{
					"inputs": [
						{
							"internalType": "contract DefiToken",
							"name": "_defiToken",
							"type": "address"
						},
						{
							"internalType": "contract RewardDEFIToken",
							"name": "_rewardDefiToken",
							"type": "address"
						}
					],
					"stateMutability": "nonpayable",
					"type": "constructor"
				},
				{
					"inputs": [],
					"name": "defiToken",
					"outputs": [
						{
							"internalType": "contract DefiToken",
							"name": "",
							"type": "address"
						}
					],
					"stateMutability": "view",
					"type": "function"
				},
				{
					"inputs": [
						{
							"internalType": "address",
							"name": "",
							"type": "address"
						}
					],
					"name": "hasStaked",
					"outputs": [
						{
							"internalType": "bool",
							"name": "",
							"type": "bool"
						}
					],
					"stateMutability": "view",
					"type": "function"
				},
				{
					"inputs": [
						{
							"internalType": "address",
							"name": "",
							"type": "address"
						}
					],
					"name": "isStaking",
					"outputs": [
						{
							"internalType": "bool",
							"name": "",
							"type": "bool"
						}
					],
					"stateMutability": "view",
					"type": "function"
				},
				{
					"inputs": [],
					"name": "name",
					"outputs": [
						{
							"internalType": "string",
							"name": "",
							"type": "string"
						}
					],
					"stateMutability": "view",
					"type": "function"
				},
				{
					"inputs": [],
					"name": "owner",
					"outputs": [
						{
							"internalType": "address",
							"name": "",
							"type": "address"
						}
					],
					"stateMutability": "view",
					"type": "function"
				},
				{
					"inputs": [],
					"name": "rewardDefiToken",
					"outputs": [
						{
							"internalType": "contract RewardDEFIToken",
							"name": "",
							"type": "address"
						}
					],
					"stateMutability": "view",
					"type": "function"
				},
				{
					"inputs": [
						{
							"internalType": "uint256",
							"name": "",
							"type": "uint256"
						}
					],
					"name": "stakers",
					"outputs": [
						{
							"internalType": "address",
							"name": "",
							"type": "address"
						}
					],
					"stateMutability": "view",
					"type": "function"
				},
				{
					"inputs": [
						{
							"internalType": "address",
							"name": "",
							"type": "address"
						}
					],
					"name": "stakingBalance",
					"outputs": [
						{
							"internalType": "uint256",
							"name": "",
							"type": "uint256"
						}
					],
					"stateMutability": "view",
					"type": "function"
				}
			],
			"devdoc": {
				"kind": "dev",
				"methods": {},
				"version": 1
			},
			"evm": {
				"assembly": "    /* \"contracts/FarmContract.sol\":122:690  contract FarmContract {\r... */\n  mstore(0x40, 0x80)\n    /* \"contracts/FarmContract.sol\":174:206  string public name = \"DEFI Farm\" */\n  mload(0x40)\n  dup1\n  0x40\n  add\n  0x40\n  mstore\n  dup1\n  0x09\n  dup2\n  mstore\n  0x20\n  add\n  0x44454649204661726d0000000000000000000000000000000000000000000000\n  dup2\n  mstore\n  pop\n  0x00\n  swap1\n  dup1\n  mload\n  swap1\n  0x20\n  add\n  swap1\n  tag_1\n  swap3\n  swap2\n  swap1\n  tag_2\n  jump\t// in\ntag_1:\n  pop\n    /* \"contracts/FarmContract.sol\":502:685  constructor(DefiToken _defiToken, RewardDEFIToken _rewardDefiToken) {\r... */\n  callvalue\n  dup1\n  iszero\n  tag_3\n  jumpi\n  0x00\n  dup1\n  revert\ntag_3:\n  pop\n  mload(0x40)\n  sub(codesize, bytecodeSize)\n  dup1\n  bytecodeSize\n  dup4\n  codecopy\n  dup2\n  dup2\n  add\n  0x40\n  mstore\n  dup2\n  add\n  swap1\n  tag_4\n  swap2\n  swap1\n  tag_5\n  jump\t// in\ntag_4:\n    /* \"contracts/FarmContract.sol\":593:603  _defiToken */\n  dup2\n    /* \"contracts/FarmContract.sol\":581:590  defiToken */\n  0x02\n  0x00\n    /* \"contracts/FarmContract.sol\":581:603  defiToken = _defiToken */\n  0x0100\n  exp\n  dup2\n  sload\n  dup2\n  0xffffffffffffffffffffffffffffffffffffffff\n  mul\n  not\n  and\n  swap1\n  dup4\n  0xffffffffffffffffffffffffffffffffffffffff\n  and\n  mul\n  or\n  swap1\n  sstore\n  pop\n    /* \"contracts/FarmContract.sol\":632:648  _rewardDefiToken */\n  dup1\n    /* \"contracts/FarmContract.sol\":614:629  rewardDefiToken */\n  0x03\n  0x00\n    /* \"contracts/FarmContract.sol\":614:648  rewardDefiToken = _rewardDefiToken */\n  0x0100\n  exp\n  dup2\n  sload\n  dup2\n  0xffffffffffffffffffffffffffffffffffffffff\n  mul\n  not\n  and\n  swap1\n  dup4\n  0xffffffffffffffffffffffffffffffffffffffff\n  and\n  mul\n  or\n  swap1\n  sstore\n  pop\n    /* \"contracts/FarmContract.sol\":667:677  msg.sender */\n  caller\n    /* \"contracts/FarmContract.sol\":659:664  owner */\n  0x01\n  0x00\n    /* \"contracts/FarmContract.sol\":659:677  owner = msg.sender */\n  0x0100\n  exp\n  dup2\n  sload\n  dup2\n  0xffffffffffffffffffffffffffffffffffffffff\n  mul\n  not\n  and\n  swap1\n  dup4\n  0xffffffffffffffffffffffffffffffffffffffff\n  and\n  mul\n  or\n  swap1\n  sstore\n  pop\n    /* \"contracts/FarmContract.sol\":502:685  constructor(DefiToken _defiToken, RewardDEFIToken _rewardDefiToken) {\r... */\n  pop\n  pop\n    /* \"contracts/FarmContract.sol\":122:690  contract FarmContract {\r... */\n  jump(tag_8)\ntag_2:\n  dup3\n  dup1\n  sload\n  tag_9\n  swap1\n  tag_10\n  jump\t// in\ntag_9:\n  swap1\n  0x00\n  mstore\n  keccak256(0x00, 0x20)\n  swap1\n  0x1f\n  add\n  0x20\n  swap1\n  div\n  dup2\n  add\n  swap3\n  dup3\n  tag_12\n  jumpi\n  0x00\n  dup6\n  sstore\n  jump(tag_11)\ntag_12:\n  dup3\n  0x1f\n  lt\n  tag_13\n  jumpi\n  dup1\n  mload\n  not(0xff)\n  and\n  dup4\n  dup1\n  add\n  or\n  dup6\n  sstore\n  jump(tag_11)\ntag_13:\n  dup3\n  dup1\n  add\n  0x01\n  add\n  dup6\n  sstore\n  dup3\n  iszero\n  tag_11\n  jumpi\n  swap2\n  dup3\n  add\ntag_14:\n  dup3\n  dup2\n  gt\n  iszero\n  tag_15\n  jumpi\n  dup3\n  mload\n  dup3\n  sstore\n  swap2\n  0x20\n  add\n  swap2\n  swap1\n  0x01\n  add\n  swap1\n  jump(tag_14)\ntag_15:\ntag_11:\n  pop\n  swap1\n  pop\n  tag_16\n  swap2\n  swap1\n  tag_17\n  jump\t// in\ntag_16:\n  pop\n  swap1\n  jump\t// out\ntag_17:\ntag_18:\n  dup1\n  dup3\n  gt\n  iszero\n  tag_19\n  jumpi\n  0x00\n  dup2\n  0x00\n  swap1\n  sstore\n  pop\n  0x01\n  add\n  jump(tag_18)\ntag_19:\n  pop\n  swap1\n  jump\t// out\n    /* \"#utility.yul\":7:184   */\ntag_21:\n    /* \"#utility.yul\":81:86   */\n  0x00\n    /* \"#utility.yul\":112:118   */\n  dup2\n    /* \"#utility.yul\":106:119   */\n  mload\n    /* \"#utility.yul\":97:119   */\n  swap1\n  pop\n    /* \"#utility.yul\":128:178   */\n  tag_23\n    /* \"#utility.yul\":172:177   */\n  dup2\n    /* \"#utility.yul\":128:178   */\n  tag_24\n  jump\t// in\ntag_23:\n    /* \"#utility.yul\":87:184   */\n  swap3\n  swap2\n  pop\n  pop\n  jump\t// out\n    /* \"#utility.yul\":190:379   */\ntag_25:\n    /* \"#utility.yul\":270:275   */\n  0x00\n    /* \"#utility.yul\":301:307   */\n  dup2\n    /* \"#utility.yul\":295:308   */\n  mload\n    /* \"#utility.yul\":286:308   */\n  swap1\n  pop\n    /* \"#utility.yul\":317:373   */\n  tag_27\n    /* \"#utility.yul\":367:372   */\n  dup2\n    /* \"#utility.yul\":317:373   */\n  tag_28\n  jump\t// in\ntag_27:\n    /* \"#utility.yul\":276:379   */\n  swap3\n  swap2\n  pop\n  pop\n  jump\t// out\n    /* \"#utility.yul\":385:905   */\ntag_5:\n    /* \"#utility.yul\":504:510   */\n  0x00\n    /* \"#utility.yul\":512:518   */\n  dup1\n    /* \"#utility.yul\":561:563   */\n  0x40\n    /* \"#utility.yul\":549:558   */\n  dup4\n    /* \"#utility.yul\":540:547   */\n  dup6\n    /* \"#utility.yul\":536:559   */\n  sub\n    /* \"#utility.yul\":532:564   */\n  slt\n    /* \"#utility.yul\":529:531   */\n  iszero\n  tag_30\n  jumpi\n    /* \"#utility.yul\":577:578   */\n  0x00\n    /* \"#utility.yul\":574:575   */\n  dup1\n    /* \"#utility.yul\":567:579   */\n  revert\n    /* \"#utility.yul\":529:531   */\ntag_30:\n    /* \"#utility.yul\":620:621   */\n  0x00\n    /* \"#utility.yul\":645:726   */\n  tag_31\n    /* \"#utility.yul\":718:725   */\n  dup6\n    /* \"#utility.yul\":709:715   */\n  dup3\n    /* \"#utility.yul\":698:707   */\n  dup7\n    /* \"#utility.yul\":694:716   */\n  add\n    /* \"#utility.yul\":645:726   */\n  tag_21\n  jump\t// in\ntag_31:\n    /* \"#utility.yul\":635:726   */\n  swap3\n  pop\n    /* \"#utility.yul\":591:736   */\n  pop\n    /* \"#utility.yul\":775:777   */\n  0x20\n    /* \"#utility.yul\":801:888   */\n  tag_32\n    /* \"#utility.yul\":880:887   */\n  dup6\n    /* \"#utility.yul\":871:877   */\n  dup3\n    /* \"#utility.yul\":860:869   */\n  dup7\n    /* \"#utility.yul\":856:878   */\n  add\n    /* \"#utility.yul\":801:888   */\n  tag_25\n  jump\t// in\ntag_32:\n    /* \"#utility.yul\":791:888   */\n  swap2\n  pop\n    /* \"#utility.yul\":746:898   */\n  pop\n    /* \"#utility.yul\":519:905   */\n  swap3\n  pop\n  swap3\n  swap1\n  pop\n  jump\t// out\n    /* \"#utility.yul\":911:1007   */\ntag_33:\n    /* \"#utility.yul\":948:955   */\n  0x00\n    /* \"#utility.yul\":977:1001   */\n  tag_35\n    /* \"#utility.yul\":995:1000   */\n  dup3\n    /* \"#utility.yul\":977:1001   */\n  tag_36\n  jump\t// in\ntag_35:\n    /* \"#utility.yul\":966:1001   */\n  swap1\n  pop\n    /* \"#utility.yul\":956:1007   */\n  swap2\n  swap1\n  pop\n  jump\t// out\n    /* \"#utility.yul\":1013:1126   */\ntag_37:\n    /* \"#utility.yul\":1067:1074   */\n  0x00\n    /* \"#utility.yul\":1096:1120   */\n  tag_39\n    /* \"#utility.yul\":1114:1119   */\n  dup3\n    /* \"#utility.yul\":1096:1120   */\n  tag_33\n  jump\t// in\ntag_39:\n    /* \"#utility.yul\":1085:1120   */\n  swap1\n  pop\n    /* \"#utility.yul\":1075:1126   */\n  swap2\n  swap1\n  pop\n  jump\t// out\n    /* \"#utility.yul\":1132:1251   */\ntag_40:\n    /* \"#utility.yul\":1192:1199   */\n  0x00\n    /* \"#utility.yul\":1221:1245   */\n  tag_42\n    /* \"#utility.yul\":1239:1244   */\n  dup3\n    /* \"#utility.yul\":1221:1245   */\n  tag_33\n  jump\t// in\ntag_42:\n    /* \"#utility.yul\":1210:1245   */\n  swap1\n  pop\n    /* \"#utility.yul\":1200:1251   */\n  swap2\n  swap1\n  pop\n  jump\t// out\n    /* \"#utility.yul\":1257:1383   */\ntag_36:\n    /* \"#utility.yul\":1294:1301   */\n  0x00\n    /* \"#utility.yul\":1334:1376   */\n  0xffffffffffffffffffffffffffffffffffffffff\n    /* \"#utility.yul\":1327:1332   */\n  dup3\n    /* \"#utility.yul\":1323:1377   */\n  and\n    /* \"#utility.yul\":1312:1377   */\n  swap1\n  pop\n    /* \"#utility.yul\":1302:1383   */\n  swap2\n  swap1\n  pop\n  jump\t// out\n    /* \"#utility.yul\":1389:1709   */\ntag_10:\n    /* \"#utility.yul\":1433:1439   */\n  0x00\n    /* \"#utility.yul\":1470:1471   */\n  0x02\n    /* \"#utility.yul\":1464:1468   */\n  dup3\n    /* \"#utility.yul\":1460:1472   */\n  div\n    /* \"#utility.yul\":1450:1472   */\n  swap1\n  pop\n    /* \"#utility.yul\":1517:1518   */\n  0x01\n    /* \"#utility.yul\":1511:1515   */\n  dup3\n    /* \"#utility.yul\":1507:1519   */\n  and\n    /* \"#utility.yul\":1538:1556   */\n  dup1\n    /* \"#utility.yul\":1528:1530   */\n  tag_45\n  jumpi\n    /* \"#utility.yul\":1594:1598   */\n  0x7f\n    /* \"#utility.yul\":1586:1592   */\n  dup3\n    /* \"#utility.yul\":1582:1599   */\n  and\n    /* \"#utility.yul\":1572:1599   */\n  swap2\n  pop\n    /* \"#utility.yul\":1528:1530   */\ntag_45:\n    /* \"#utility.yul\":1656:1658   */\n  0x20\n    /* \"#utility.yul\":1648:1654   */\n  dup3\n    /* \"#utility.yul\":1645:1659   */\n  lt\n    /* \"#utility.yul\":1625:1643   */\n  dup2\n    /* \"#utility.yul\":1622:1660   */\n  eq\n    /* \"#utility.yul\":1619:1621   */\n  iszero\n  tag_46\n  jumpi\n    /* \"#utility.yul\":1675:1693   */\n  tag_47\n  tag_48\n  jump\t// in\ntag_47:\n    /* \"#utility.yul\":1619:1621   */\ntag_46:\n    /* \"#utility.yul\":1440:1709   */\n  pop\n  swap2\n  swap1\n  pop\n  jump\t// out\n    /* \"#utility.yul\":1715:1895   */\ntag_48:\n    /* \"#utility.yul\":1763:1840   */\n  0x4e487b7100000000000000000000000000000000000000000000000000000000\n    /* \"#utility.yul\":1760:1761   */\n  0x00\n    /* \"#utility.yul\":1753:1841   */\n  mstore\n    /* \"#utility.yul\":1860:1864   */\n  0x22\n    /* \"#utility.yul\":1857:1858   */\n  0x04\n    /* \"#utility.yul\":1850:1865   */\n  mstore\n    /* \"#utility.yul\":1884:1888   */\n  0x24\n    /* \"#utility.yul\":1881:1882   */\n  0x00\n    /* \"#utility.yul\":1874:1889   */\n  revert\n    /* \"#utility.yul\":1901:2057   */\ntag_24:\n    /* \"#utility.yul\":1991:2032   */\n  tag_51\n    /* \"#utility.yul\":2026:2031   */\n  dup2\n    /* \"#utility.yul\":1991:2032   */\n  tag_37\n  jump\t// in\ntag_51:\n    /* \"#utility.yul\":1984:1989   */\n  dup2\n    /* \"#utility.yul\":1981:2033   */\n  eq\n    /* \"#utility.yul\":1971:1973   */\n  tag_52\n  jumpi\n    /* \"#utility.yul\":2047:2048   */\n  0x00\n    /* \"#utility.yul\":2044:2045   */\n  dup1\n    /* \"#utility.yul\":2037:2049   */\n  revert\n    /* \"#utility.yul\":1971:1973   */\ntag_52:\n    /* \"#utility.yul\":1961:2057   */\n  pop\n  jump\t// out\n    /* \"#utility.yul\":2063:2231   */\ntag_28:\n    /* \"#utility.yul\":2159:2206   */\n  tag_54\n    /* \"#utility.yul\":2200:2205   */\n  dup2\n    /* \"#utility.yul\":2159:2206   */\n  tag_40\n  jump\t// in\ntag_54:\n    /* \"#utility.yul\":2152:2157   */\n  dup2\n    /* \"#utility.yul\":2149:2207   */\n  eq\n    /* \"#utility.yul\":2139:2141   */\n  tag_55\n  jumpi\n    /* \"#utility.yul\":2221:2222   */\n  0x00\n    /* \"#utility.yul\":2218:2219   */\n  dup1\n    /* \"#utility.yul\":2211:2223   */\n  revert\n    /* \"#utility.yul\":2139:2141   */\ntag_55:\n    /* \"#utility.yul\":2129:2231   */\n  pop\n  jump\t// out\n    /* \"contracts/FarmContract.sol\":122:690  contract FarmContract {\r... */\ntag_8:\n  dataSize(sub_0)\n  dup1\n  dataOffset(sub_0)\n  0x00\n  codecopy\n  0x00\n  return\nstop\n\nsub_0: assembly {\n        /* \"contracts/FarmContract.sol\":122:690  contract FarmContract {\r... */\n      mstore(0x40, 0x80)\n      callvalue\n      dup1\n      iszero\n      tag_1\n      jumpi\n      0x00\n      dup1\n      revert\n    tag_1:\n      pop\n      jumpi(tag_2, lt(calldatasize, 0x04))\n      shr(0xe0, calldataload(0x00))\n      dup1\n      0xb578fa19\n      gt\n      tag_11\n      jumpi\n      dup1\n      0xb578fa19\n      eq\n      tag_7\n      jumpi\n      dup1\n      0xc93c8f34\n      eq\n      tag_8\n      jumpi\n      dup1\n      0xea987a1e\n      eq\n      tag_9\n      jumpi\n      dup1\n      0xfd5e6dd1\n      eq\n      tag_10\n      jumpi\n      jump(tag_2)\n    tag_11:\n      dup1\n      0x06fdde03\n      eq\n      tag_3\n      jumpi\n      dup1\n      0x45bc78ab\n      eq\n      tag_4\n      jumpi\n      dup1\n      0x6f49712b\n      eq\n      tag_5\n      jumpi\n      dup1\n      0x8da5cb5b\n      eq\n      tag_6\n      jumpi\n    tag_2:\n      0x00\n      dup1\n      revert\n        /* \"contracts/FarmContract.sol\":174:206  string public name = \"DEFI Farm\" */\n    tag_3:\n      tag_12\n      tag_13\n      jump\t// in\n    tag_12:\n      mload(0x40)\n      tag_14\n      swap2\n      swap1\n      tag_15\n      jump\t// in\n    tag_14:\n      mload(0x40)\n      dup1\n      swap2\n      sub\n      swap1\n      return\n        /* \"contracts/FarmContract.sol\":351:397  mapping(address => uint) public stakingBalance */\n    tag_4:\n      tag_16\n      0x04\n      dup1\n      calldatasize\n      sub\n      dup2\n      add\n      swap1\n      tag_17\n      swap2\n      swap1\n      tag_18\n      jump\t// in\n    tag_17:\n      tag_19\n      jump\t// in\n    tag_16:\n      mload(0x40)\n      tag_20\n      swap2\n      swap1\n      tag_21\n      jump\t// in\n    tag_20:\n      mload(0x40)\n      dup1\n      swap2\n      sub\n      swap1\n      return\n        /* \"contracts/FarmContract.sol\":452:493  mapping(address => bool) public isStaking */\n    tag_5:\n      tag_22\n      0x04\n      dup1\n      calldatasize\n      sub\n      dup2\n      add\n      swap1\n      tag_23\n      swap2\n      swap1\n      tag_18\n      jump\t// in\n    tag_23:\n      tag_24\n      jump\t// in\n    tag_22:\n      mload(0x40)\n      tag_25\n      swap2\n      swap1\n      tag_26\n      jump\t// in\n    tag_25:\n      mload(0x40)\n      dup1\n      swap2\n      sub\n      swap1\n      return\n        /* \"contracts/FarmContract.sol\":213:233  address public owner */\n    tag_6:\n      tag_27\n      tag_28\n      jump\t// in\n    tag_27:\n      mload(0x40)\n      tag_29\n      swap2\n      swap1\n      tag_30\n      jump\t// in\n    tag_29:\n      mload(0x40)\n      dup1\n      swap2\n      sub\n      swap1\n      return\n        /* \"contracts/FarmContract.sol\":273:311  RewardDEFIToken public rewardDefiToken */\n    tag_7:\n      tag_31\n      tag_32\n      jump\t// in\n    tag_31:\n      mload(0x40)\n      tag_33\n      swap2\n      swap1\n      tag_34\n      jump\t// in\n    tag_33:\n      mload(0x40)\n      dup1\n      swap2\n      sub\n      swap1\n      return\n        /* \"contracts/FarmContract.sol\":404:445  mapping(address => bool) public hasStaked */\n    tag_8:\n      tag_35\n      0x04\n      dup1\n      calldatasize\n      sub\n      dup2\n      add\n      swap1\n      tag_36\n      swap2\n      swap1\n      tag_18\n      jump\t// in\n    tag_36:\n      tag_37\n      jump\t// in\n    tag_35:\n      mload(0x40)\n      tag_38\n      swap2\n      swap1\n      tag_26\n      jump\t// in\n    tag_38:\n      mload(0x40)\n      dup1\n      swap2\n      sub\n      swap1\n      return\n        /* \"contracts/FarmContract.sol\":240:266  DefiToken public defiToken */\n    tag_9:\n      tag_39\n      tag_40\n      jump\t// in\n    tag_39:\n      mload(0x40)\n      tag_41\n      swap2\n      swap1\n      tag_42\n      jump\t// in\n    tag_41:\n      mload(0x40)\n      dup1\n      swap2\n      sub\n      swap1\n      return\n        /* \"contracts/FarmContract.sol\":320:344  address[] public stakers */\n    tag_10:\n      tag_43\n      0x04\n      dup1\n      calldatasize\n      sub\n      dup2\n      add\n      swap1\n      tag_44\n      swap2\n      swap1\n      tag_45\n      jump\t// in\n    tag_44:\n      tag_46\n      jump\t// in\n    tag_43:\n      mload(0x40)\n      tag_47\n      swap2\n      swap1\n      tag_30\n      jump\t// in\n    tag_47:\n      mload(0x40)\n      dup1\n      swap2\n      sub\n      swap1\n      return\n        /* \"contracts/FarmContract.sol\":174:206  string public name = \"DEFI Farm\" */\n    tag_13:\n      0x00\n      dup1\n      sload\n      tag_48\n      swap1\n      tag_49\n      jump\t// in\n    tag_48:\n      dup1\n      0x1f\n      add\n      0x20\n      dup1\n      swap2\n      div\n      mul\n      0x20\n      add\n      mload(0x40)\n      swap1\n      dup2\n      add\n      0x40\n      mstore\n      dup1\n      swap3\n      swap2\n      swap1\n      dup2\n      dup2\n      mstore\n      0x20\n      add\n      dup3\n      dup1\n      sload\n      tag_50\n      swap1\n      tag_49\n      jump\t// in\n    tag_50:\n      dup1\n      iszero\n      tag_51\n      jumpi\n      dup1\n      0x1f\n      lt\n      tag_52\n      jumpi\n      0x0100\n      dup1\n      dup4\n      sload\n      div\n      mul\n      dup4\n      mstore\n      swap2\n      0x20\n      add\n      swap2\n      jump(tag_51)\n    tag_52:\n      dup3\n      add\n      swap2\n      swap1\n      0x00\n      mstore\n      keccak256(0x00, 0x20)\n      swap1\n    tag_53:\n      dup2\n      sload\n      dup2\n      mstore\n      swap1\n      0x01\n      add\n      swap1\n      0x20\n      add\n      dup1\n      dup4\n      gt\n      tag_53\n      jumpi\n      dup3\n      swap1\n      sub\n      0x1f\n      and\n      dup3\n      add\n      swap2\n    tag_51:\n      pop\n      pop\n      pop\n      pop\n      pop\n      dup2\n      jump\t// out\n        /* \"contracts/FarmContract.sol\":351:397  mapping(address => uint) public stakingBalance */\n    tag_19:\n      mstore(0x20, 0x05)\n      dup1\n      0x00\n      mstore\n      keccak256(0x00, 0x40)\n      0x00\n      swap2\n      pop\n      swap1\n      pop\n      sload\n      dup2\n      jump\t// out\n        /* \"contracts/FarmContract.sol\":452:493  mapping(address => bool) public isStaking */\n    tag_24:\n      mstore(0x20, 0x07)\n      dup1\n      0x00\n      mstore\n      keccak256(0x00, 0x40)\n      0x00\n      swap2\n      pop\n      sload\n      swap1\n      0x0100\n      exp\n      swap1\n      div\n      0xff\n      and\n      dup2\n      jump\t// out\n        /* \"contracts/FarmContract.sol\":213:233  address public owner */\n    tag_28:\n      0x01\n      0x00\n      swap1\n      sload\n      swap1\n      0x0100\n      exp\n      swap1\n      div\n      0xffffffffffffffffffffffffffffffffffffffff\n      and\n      dup2\n      jump\t// out\n        /* \"contracts/FarmContract.sol\":273:311  RewardDEFIToken public rewardDefiToken */\n    tag_32:\n      0x03\n      0x00\n      swap1\n      sload\n      swap1\n      0x0100\n      exp\n      swap1\n      div\n      0xffffffffffffffffffffffffffffffffffffffff\n      and\n      dup2\n      jump\t// out\n        /* \"contracts/FarmContract.sol\":404:445  mapping(address => bool) public hasStaked */\n    tag_37:\n      mstore(0x20, 0x06)\n      dup1\n      0x00\n      mstore\n      keccak256(0x00, 0x40)\n      0x00\n      swap2\n      pop\n      sload\n      swap1\n      0x0100\n      exp\n      swap1\n      div\n      0xff\n      and\n      dup2\n      jump\t// out\n        /* \"contracts/FarmContract.sol\":240:266  DefiToken public defiToken */\n    tag_40:\n      0x02\n      0x00\n      swap1\n      sload\n      swap1\n      0x0100\n      exp\n      swap1\n      div\n      0xffffffffffffffffffffffffffffffffffffffff\n      and\n      dup2\n      jump\t// out\n        /* \"contracts/FarmContract.sol\":320:344  address[] public stakers */\n    tag_46:\n      0x04\n      dup2\n      dup2\n      sload\n      dup2\n      lt\n      tag_54\n      jumpi\n      0x00\n      dup1\n      revert\n    tag_54:\n      swap1\n      0x00\n      mstore\n      keccak256(0x00, 0x20)\n      add\n      0x00\n      swap2\n      pop\n      sload\n      swap1\n      0x0100\n      exp\n      swap1\n      div\n      0xffffffffffffffffffffffffffffffffffffffff\n      and\n      dup2\n      jump\t// out\n        /* \"#utility.yul\":7:146   */\n    tag_57:\n        /* \"#utility.yul\":53:58   */\n      0x00\n        /* \"#utility.yul\":91:97   */\n      dup2\n        /* \"#utility.yul\":78:98   */\n      calldataload\n        /* \"#utility.yul\":69:98   */\n      swap1\n      pop\n        /* \"#utility.yul\":107:140   */\n      tag_59\n        /* \"#utility.yul\":134:139   */\n      dup2\n        /* \"#utility.yul\":107:140   */\n      tag_60\n      jump\t// in\n    tag_59:\n        /* \"#utility.yul\":59:146   */\n      swap3\n      swap2\n      pop\n      pop\n      jump\t// out\n        /* \"#utility.yul\":152:291   */\n    tag_61:\n        /* \"#utility.yul\":198:203   */\n      0x00\n        /* \"#utility.yul\":236:242   */\n      dup2\n        /* \"#utility.yul\":223:243   */\n      calldataload\n        /* \"#utility.yul\":214:243   */\n      swap1\n      pop\n        /* \"#utility.yul\":252:285   */\n      tag_63\n        /* \"#utility.yul\":279:284   */\n      dup2\n        /* \"#utility.yul\":252:285   */\n      tag_64\n      jump\t// in\n    tag_63:\n        /* \"#utility.yul\":204:291   */\n      swap3\n      swap2\n      pop\n      pop\n      jump\t// out\n        /* \"#utility.yul\":297:559   */\n    tag_18:\n        /* \"#utility.yul\":356:362   */\n      0x00\n        /* \"#utility.yul\":405:407   */\n      0x20\n        /* \"#utility.yul\":393:402   */\n      dup3\n        /* \"#utility.yul\":384:391   */\n      dup5\n        /* \"#utility.yul\":380:403   */\n      sub\n        /* \"#utility.yul\":376:408   */\n      slt\n        /* \"#utility.yul\":373:375   */\n      iszero\n      tag_66\n      jumpi\n        /* \"#utility.yul\":421:422   */\n      0x00\n        /* \"#utility.yul\":418:419   */\n      dup1\n        /* \"#utility.yul\":411:423   */\n      revert\n        /* \"#utility.yul\":373:375   */\n    tag_66:\n        /* \"#utility.yul\":464:465   */\n      0x00\n        /* \"#utility.yul\":489:542   */\n      tag_67\n        /* \"#utility.yul\":534:541   */\n      dup5\n        /* \"#utility.yul\":525:531   */\n      dup3\n        /* \"#utility.yul\":514:523   */\n      dup6\n        /* \"#utility.yul\":510:532   */\n      add\n        /* \"#utility.yul\":489:542   */\n      tag_57\n      jump\t// in\n    tag_67:\n        /* \"#utility.yul\":479:542   */\n      swap2\n      pop\n        /* \"#utility.yul\":435:552   */\n      pop\n        /* \"#utility.yul\":363:559   */\n      swap3\n      swap2\n      pop\n      pop\n      jump\t// out\n        /* \"#utility.yul\":565:827   */\n    tag_45:\n        /* \"#utility.yul\":624:630   */\n      0x00\n        /* \"#utility.yul\":673:675   */\n      0x20\n        /* \"#utility.yul\":661:670   */\n      dup3\n        /* \"#utility.yul\":652:659   */\n      dup5\n        /* \"#utility.yul\":648:671   */\n      sub\n        /* \"#utility.yul\":644:676   */\n      slt\n        /* \"#utility.yul\":641:643   */\n      iszero\n      tag_69\n      jumpi\n        /* \"#utility.yul\":689:690   */\n      0x00\n        /* \"#utility.yul\":686:687   */\n      dup1\n        /* \"#utility.yul\":679:691   */\n      revert\n        /* \"#utility.yul\":641:643   */\n    tag_69:\n        /* \"#utility.yul\":732:733   */\n      0x00\n        /* \"#utility.yul\":757:810   */\n      tag_70\n        /* \"#utility.yul\":802:809   */\n      dup5\n        /* \"#utility.yul\":793:799   */\n      dup3\n        /* \"#utility.yul\":782:791   */\n      dup6\n        /* \"#utility.yul\":778:800   */\n      add\n        /* \"#utility.yul\":757:810   */\n      tag_61\n      jump\t// in\n    tag_70:\n        /* \"#utility.yul\":747:810   */\n      swap2\n      pop\n        /* \"#utility.yul\":703:820   */\n      pop\n        /* \"#utility.yul\":631:827   */\n      swap3\n      swap2\n      pop\n      pop\n      jump\t// out\n        /* \"#utility.yul\":833:951   */\n    tag_71:\n        /* \"#utility.yul\":920:944   */\n      tag_73\n        /* \"#utility.yul\":938:943   */\n      dup2\n        /* \"#utility.yul\":920:944   */\n      tag_74\n      jump\t// in\n    tag_73:\n        /* \"#utility.yul\":915:918   */\n      dup3\n        /* \"#utility.yul\":908:945   */\n      mstore\n        /* \"#utility.yul\":898:951   */\n      pop\n      pop\n      jump\t// out\n        /* \"#utility.yul\":957:1066   */\n    tag_75:\n        /* \"#utility.yul\":1038:1059   */\n      tag_77\n        /* \"#utility.yul\":1053:1058   */\n      dup2\n        /* \"#utility.yul\":1038:1059   */\n      tag_78\n      jump\t// in\n    tag_77:\n        /* \"#utility.yul\":1033:1036   */\n      dup3\n        /* \"#utility.yul\":1026:1060   */\n      mstore\n        /* \"#utility.yul\":1016:1066   */\n      pop\n      pop\n      jump\t// out\n        /* \"#utility.yul\":1072:1237   */\n    tag_79:\n        /* \"#utility.yul\":1176:1230   */\n      tag_81\n        /* \"#utility.yul\":1224:1229   */\n      dup2\n        /* \"#utility.yul\":1176:1230   */\n      tag_82\n      jump\t// in\n    tag_81:\n        /* \"#utility.yul\":1171:1174   */\n      dup3\n        /* \"#utility.yul\":1164:1231   */\n      mstore\n        /* \"#utility.yul\":1154:1237   */\n      pop\n      pop\n      jump\t// out\n        /* \"#utility.yul\":1243:1420   */\n    tag_83:\n        /* \"#utility.yul\":1353:1413   */\n      tag_85\n        /* \"#utility.yul\":1407:1412   */\n      dup2\n        /* \"#utility.yul\":1353:1413   */\n      tag_86\n      jump\t// in\n    tag_85:\n        /* \"#utility.yul\":1348:1351   */\n      dup3\n        /* \"#utility.yul\":1341:1414   */\n      mstore\n        /* \"#utility.yul\":1331:1420   */\n      pop\n      pop\n      jump\t// out\n        /* \"#utility.yul\":1426:1790   */\n    tag_87:\n        /* \"#utility.yul\":1514:1517   */\n      0x00\n        /* \"#utility.yul\":1542:1581   */\n      tag_89\n        /* \"#utility.yul\":1575:1580   */\n      dup3\n        /* \"#utility.yul\":1542:1581   */\n      tag_90\n      jump\t// in\n    tag_89:\n        /* \"#utility.yul\":1597:1668   */\n      tag_91\n        /* \"#utility.yul\":1661:1667   */\n      dup2\n        /* \"#utility.yul\":1656:1659   */\n      dup6\n        /* \"#utility.yul\":1597:1668   */\n      tag_92\n      jump\t// in\n    tag_91:\n        /* \"#utility.yul\":1590:1668   */\n      swap4\n      pop\n        /* \"#utility.yul\":1677:1729   */\n      tag_93\n        /* \"#utility.yul\":1722:1728   */\n      dup2\n        /* \"#utility.yul\":1717:1720   */\n      dup6\n        /* \"#utility.yul\":1710:1714   */\n      0x20\n        /* \"#utility.yul\":1703:1708   */\n      dup7\n        /* \"#utility.yul\":1699:1715   */\n      add\n        /* \"#utility.yul\":1677:1729   */\n      tag_94\n      jump\t// in\n    tag_93:\n        /* \"#utility.yul\":1754:1783   */\n      tag_95\n        /* \"#utility.yul\":1776:1782   */\n      dup2\n        /* \"#utility.yul\":1754:1783   */\n      tag_96\n      jump\t// in\n    tag_95:\n        /* \"#utility.yul\":1749:1752   */\n      dup5\n        /* \"#utility.yul\":1745:1784   */\n      add\n        /* \"#utility.yul\":1738:1784   */\n      swap2\n      pop\n        /* \"#utility.yul\":1518:1790   */\n      pop\n      swap3\n      swap2\n      pop\n      pop\n      jump\t// out\n        /* \"#utility.yul\":1796:1914   */\n    tag_97:\n        /* \"#utility.yul\":1883:1907   */\n      tag_99\n        /* \"#utility.yul\":1901:1906   */\n      dup2\n        /* \"#utility.yul\":1883:1907   */\n      tag_100\n      jump\t// in\n    tag_99:\n        /* \"#utility.yul\":1878:1881   */\n      dup3\n        /* \"#utility.yul\":1871:1908   */\n      mstore\n        /* \"#utility.yul\":1861:1914   */\n      pop\n      pop\n      jump\t// out\n        /* \"#utility.yul\":1920:2142   */\n    tag_30:\n        /* \"#utility.yul\":2013:2017   */\n      0x00\n        /* \"#utility.yul\":2051:2053   */\n      0x20\n        /* \"#utility.yul\":2040:2049   */\n      dup3\n        /* \"#utility.yul\":2036:2054   */\n      add\n        /* \"#utility.yul\":2028:2054   */\n      swap1\n      pop\n        /* \"#utility.yul\":2064:2135   */\n      tag_102\n        /* \"#utility.yul\":2132:2133   */\n      0x00\n        /* \"#utility.yul\":2121:2130   */\n      dup4\n        /* \"#utility.yul\":2117:2134   */\n      add\n        /* \"#utility.yul\":2108:2114   */\n      dup5\n        /* \"#utility.yul\":2064:2135   */\n      tag_71\n      jump\t// in\n    tag_102:\n        /* \"#utility.yul\":2018:2142   */\n      swap3\n      swap2\n      pop\n      pop\n      jump\t// out\n        /* \"#utility.yul\":2148:2358   */\n    tag_26:\n        /* \"#utility.yul\":2235:2239   */\n      0x00\n        /* \"#utility.yul\":2273:2275   */\n      0x20\n        /* \"#utility.yul\":2262:2271   */\n      dup3\n        /* \"#utility.yul\":2258:2276   */\n      add\n        /* \"#utility.yul\":2250:2276   */\n      swap1\n      pop\n        /* \"#utility.yul\":2286:2351   */\n      tag_104\n        /* \"#utility.yul\":2348:2349   */\n      0x00\n        /* \"#utility.yul\":2337:2346   */\n      dup4\n        /* \"#utility.yul\":2333:2350   */\n      add\n        /* \"#utility.yul\":2324:2330   */\n      dup5\n        /* \"#utility.yul\":2286:2351   */\n      tag_75\n      jump\t// in\n    tag_104:\n        /* \"#utility.yul\":2240:2358   */\n      swap3\n      swap2\n      pop\n      pop\n      jump\t// out\n        /* \"#utility.yul\":2364:2620   */\n    tag_42:\n        /* \"#utility.yul\":2474:2478   */\n      0x00\n        /* \"#utility.yul\":2512:2514   */\n      0x20\n        /* \"#utility.yul\":2501:2510   */\n      dup3\n        /* \"#utility.yul\":2497:2515   */\n      add\n        /* \"#utility.yul\":2489:2515   */\n      swap1\n      pop\n        /* \"#utility.yul\":2525:2613   */\n      tag_106\n        /* \"#utility.yul\":2610:2611   */\n      0x00\n        /* \"#utility.yul\":2599:2608   */\n      dup4\n        /* \"#utility.yul\":2595:2612   */\n      add\n        /* \"#utility.yul\":2586:2592   */\n      dup5\n        /* \"#utility.yul\":2525:2613   */\n      tag_79\n      jump\t// in\n    tag_106:\n        /* \"#utility.yul\":2479:2620   */\n      swap3\n      swap2\n      pop\n      pop\n      jump\t// out\n        /* \"#utility.yul\":2626:2894   */\n    tag_34:\n        /* \"#utility.yul\":2742:2746   */\n      0x00\n        /* \"#utility.yul\":2780:2782   */\n      0x20\n        /* \"#utility.yul\":2769:2778   */\n      dup3\n        /* \"#utility.yul\":2765:2783   */\n      add\n        /* \"#utility.yul\":2757:2783   */\n      swap1\n      pop\n        /* \"#utility.yul\":2793:2887   */\n      tag_108\n        /* \"#utility.yul\":2884:2885   */\n      0x00\n        /* \"#utility.yul\":2873:2882   */\n      dup4\n        /* \"#utility.yul\":2869:2886   */\n      add\n        /* \"#utility.yul\":2860:2866   */\n      dup5\n        /* \"#utility.yul\":2793:2887   */\n      tag_83\n      jump\t// in\n    tag_108:\n        /* \"#utility.yul\":2747:2894   */\n      swap3\n      swap2\n      pop\n      pop\n      jump\t// out\n        /* \"#utility.yul\":2900:3213   */\n    tag_15:\n        /* \"#utility.yul\":3013:3017   */\n      0x00\n        /* \"#utility.yul\":3051:3053   */\n      0x20\n        /* \"#utility.yul\":3040:3049   */\n      dup3\n        /* \"#utility.yul\":3036:3054   */\n      add\n        /* \"#utility.yul\":3028:3054   */\n      swap1\n      pop\n        /* \"#utility.yul\":3100:3109   */\n      dup2\n        /* \"#utility.yul\":3094:3098   */\n      dup2\n        /* \"#utility.yul\":3090:3110   */\n      sub\n        /* \"#utility.yul\":3086:3087   */\n      0x00\n        /* \"#utility.yul\":3075:3084   */\n      dup4\n        /* \"#utility.yul\":3071:3088   */\n      add\n        /* \"#utility.yul\":3064:3111   */\n      mstore\n        /* \"#utility.yul\":3128:3206   */\n      tag_110\n        /* \"#utility.yul\":3201:3205   */\n      dup2\n        /* \"#utility.yul\":3192:3198   */\n      dup5\n        /* \"#utility.yul\":3128:3206   */\n      tag_87\n      jump\t// in\n    tag_110:\n        /* \"#utility.yul\":3120:3206   */\n      swap1\n      pop\n        /* \"#utility.yul\":3018:3213   */\n      swap3\n      swap2\n      pop\n      pop\n      jump\t// out\n        /* \"#utility.yul\":3219:3441   */\n    tag_21:\n        /* \"#utility.yul\":3312:3316   */\n      0x00\n        /* \"#utility.yul\":3350:3352   */\n      0x20\n        /* \"#utility.yul\":3339:3348   */\n      dup3\n        /* \"#utility.yul\":3335:3353   */\n      add\n        /* \"#utility.yul\":3327:3353   */\n      swap1\n      pop\n        /* \"#utility.yul\":3363:3434   */\n      tag_112\n        /* \"#utility.yul\":3431:3432   */\n      0x00\n        /* \"#utility.yul\":3420:3429   */\n      dup4\n        /* \"#utility.yul\":3416:3433   */\n      add\n        /* \"#utility.yul\":3407:3413   */\n      dup5\n        /* \"#utility.yul\":3363:3434   */\n      tag_97\n      jump\t// in\n    tag_112:\n        /* \"#utility.yul\":3317:3441   */\n      swap3\n      swap2\n      pop\n      pop\n      jump\t// out\n        /* \"#utility.yul\":3447:3546   */\n    tag_90:\n        /* \"#utility.yul\":3499:3505   */\n      0x00\n        /* \"#utility.yul\":3533:3538   */\n      dup2\n        /* \"#utility.yul\":3527:3539   */\n      mload\n        /* \"#utility.yul\":3517:3539   */\n      swap1\n      pop\n        /* \"#utility.yul\":3506:3546   */\n      swap2\n      swap1\n      pop\n      jump\t// out\n        /* \"#utility.yul\":3552:3721   */\n    tag_92:\n        /* \"#utility.yul\":3636:3647   */\n      0x00\n        /* \"#utility.yul\":3670:3676   */\n      dup3\n        /* \"#utility.yul\":3665:3668   */\n      dup3\n        /* \"#utility.yul\":3658:3677   */\n      mstore\n        /* \"#utility.yul\":3710:3714   */\n      0x20\n        /* \"#utility.yul\":3705:3708   */\n      dup3\n        /* \"#utility.yul\":3701:3715   */\n      add\n        /* \"#utility.yul\":3686:3715   */\n      swap1\n      pop\n        /* \"#utility.yul\":3648:3721   */\n      swap3\n      swap2\n      pop\n      pop\n      jump\t// out\n        /* \"#utility.yul\":3727:3823   */\n    tag_74:\n        /* \"#utility.yul\":3764:3771   */\n      0x00\n        /* \"#utility.yul\":3793:3817   */\n      tag_116\n        /* \"#utility.yul\":3811:3816   */\n      dup3\n        /* \"#utility.yul\":3793:3817   */\n      tag_117\n      jump\t// in\n    tag_116:\n        /* \"#utility.yul\":3782:3817   */\n      swap1\n      pop\n        /* \"#utility.yul\":3772:3823   */\n      swap2\n      swap1\n      pop\n      jump\t// out\n        /* \"#utility.yul\":3829:3919   */\n    tag_78:\n        /* \"#utility.yul\":3863:3870   */\n      0x00\n        /* \"#utility.yul\":3906:3911   */\n      dup2\n        /* \"#utility.yul\":3899:3912   */\n      iszero\n        /* \"#utility.yul\":3892:3913   */\n      iszero\n        /* \"#utility.yul\":3881:3913   */\n      swap1\n      pop\n        /* \"#utility.yul\":3871:3919   */\n      swap2\n      swap1\n      pop\n      jump\t// out\n        /* \"#utility.yul\":3925:4051   */\n    tag_117:\n        /* \"#utility.yul\":3962:3969   */\n      0x00\n        /* \"#utility.yul\":4002:4044   */\n      0xffffffffffffffffffffffffffffffffffffffff\n        /* \"#utility.yul\":3995:4000   */\n      dup3\n        /* \"#utility.yul\":3991:4045   */\n      and\n        /* \"#utility.yul\":3980:4045   */\n      swap1\n      pop\n        /* \"#utility.yul\":3970:4051   */\n      swap2\n      swap1\n      pop\n      jump\t// out\n        /* \"#utility.yul\":4057:4134   */\n    tag_100:\n        /* \"#utility.yul\":4094:4101   */\n      0x00\n        /* \"#utility.yul\":4123:4128   */\n      dup2\n        /* \"#utility.yul\":4112:4128   */\n      swap1\n      pop\n        /* \"#utility.yul\":4102:4134   */\n      swap2\n      swap1\n      pop\n      jump\t// out\n        /* \"#utility.yul\":4140:4300   */\n    tag_82:\n        /* \"#utility.yul\":4207:4216   */\n      0x00\n        /* \"#utility.yul\":4240:4294   */\n      tag_122\n        /* \"#utility.yul\":4288:4293   */\n      dup3\n        /* \"#utility.yul\":4240:4294   */\n      tag_123\n      jump\t// in\n    tag_122:\n        /* \"#utility.yul\":4227:4294   */\n      swap1\n      pop\n        /* \"#utility.yul\":4217:4300   */\n      swap2\n      swap1\n      pop\n      jump\t// out\n        /* \"#utility.yul\":4306:4436   */\n    tag_123:\n        /* \"#utility.yul\":4373:4382   */\n      0x00\n        /* \"#utility.yul\":4406:4430   */\n      tag_125\n        /* \"#utility.yul\":4424:4429   */\n      dup3\n        /* \"#utility.yul\":4406:4430   */\n      tag_117\n      jump\t// in\n    tag_125:\n        /* \"#utility.yul\":4393:4430   */\n      swap1\n      pop\n        /* \"#utility.yul\":4383:4436   */\n      swap2\n      swap1\n      pop\n      jump\t// out\n        /* \"#utility.yul\":4442:4614   */\n    tag_86:\n        /* \"#utility.yul\":4515:4524   */\n      0x00\n        /* \"#utility.yul\":4548:4608   */\n      tag_127\n        /* \"#utility.yul\":4602:4607   */\n      dup3\n        /* \"#utility.yul\":4548:4608   */\n      tag_128\n      jump\t// in\n    tag_127:\n        /* \"#utility.yul\":4535:4608   */\n      swap1\n      pop\n        /* \"#utility.yul\":4525:4614   */\n      swap2\n      swap1\n      pop\n      jump\t// out\n        /* \"#utility.yul\":4620:4756   */\n    tag_128:\n        /* \"#utility.yul\":4693:4702   */\n      0x00\n        /* \"#utility.yul\":4726:4750   */\n      tag_130\n        /* \"#utility.yul\":4744:4749   */\n      dup3\n        /* \"#utility.yul\":4726:4750   */\n      tag_117\n      jump\t// in\n    tag_130:\n        /* \"#utility.yul\":4713:4750   */\n      swap1\n      pop\n        /* \"#utility.yul\":4703:4756   */\n      swap2\n      swap1\n      pop\n      jump\t// out\n        /* \"#utility.yul\":4762:5069   */\n    tag_94:\n        /* \"#utility.yul\":4830:4831   */\n      0x00\n        /* \"#utility.yul\":4840:4953   */\n    tag_132:\n        /* \"#utility.yul\":4854:4860   */\n      dup4\n        /* \"#utility.yul\":4851:4852   */\n      dup2\n        /* \"#utility.yul\":4848:4861   */\n      lt\n        /* \"#utility.yul\":4840:4953   */\n      iszero\n      tag_134\n      jumpi\n        /* \"#utility.yul\":4939:4940   */\n      dup1\n        /* \"#utility.yul\":4934:4937   */\n      dup3\n        /* \"#utility.yul\":4930:4941   */\n      add\n        /* \"#utility.yul\":4924:4942   */\n      mload\n        /* \"#utility.yul\":4920:4921   */\n      dup2\n        /* \"#utility.yul\":4915:4918   */\n      dup5\n        /* \"#utility.yul\":4911:4922   */\n      add\n        /* \"#utility.yul\":4904:4943   */\n      mstore\n        /* \"#utility.yul\":4876:4878   */\n      0x20\n        /* \"#utility.yul\":4873:4874   */\n      dup2\n        /* \"#utility.yul\":4869:4879   */\n      add\n        /* \"#utility.yul\":4864:4879   */\n      swap1\n      pop\n        /* \"#utility.yul\":4840:4953   */\n      jump(tag_132)\n    tag_134:\n        /* \"#utility.yul\":4971:4977   */\n      dup4\n        /* \"#utility.yul\":4968:4969   */\n      dup2\n        /* \"#utility.yul\":4965:4978   */\n      gt\n        /* \"#utility.yul\":4962:4964   */\n      iszero\n      tag_135\n      jumpi\n        /* \"#utility.yul\":5051:5052   */\n      0x00\n        /* \"#utility.yul\":5042:5048   */\n      dup5\n        /* \"#utility.yul\":5037:5040   */\n      dup5\n        /* \"#utility.yul\":5033:5049   */\n      add\n        /* \"#utility.yul\":5026:5053   */\n      mstore\n        /* \"#utility.yul\":4962:4964   */\n    tag_135:\n        /* \"#utility.yul\":4811:5069   */\n      pop\n      pop\n      pop\n      pop\n      jump\t// out\n        /* \"#utility.yul\":5075:5395   */\n    tag_49:\n        /* \"#utility.yul\":5119:5125   */\n      0x00\n        /* \"#utility.yul\":5156:5157   */\n      0x02\n        /* \"#utility.yul\":5150:5154   */\n      dup3\n        /* \"#utility.yul\":5146:5158   */\n      div\n        /* \"#utility.yul\":5136:5158   */\n      swap1\n      pop\n        /* \"#utility.yul\":5203:5204   */\n      0x01\n        /* \"#utility.yul\":5197:5201   */\n      dup3\n        /* \"#utility.yul\":5193:5205   */\n      and\n        /* \"#utility.yul\":5224:5242   */\n      dup1\n        /* \"#utility.yul\":5214:5216   */\n      tag_137\n      jumpi\n        /* \"#utility.yul\":5280:5284   */\n      0x7f\n        /* \"#utility.yul\":5272:5278   */\n      dup3\n        /* \"#utility.yul\":5268:5285   */\n      and\n        /* \"#utility.yul\":5258:5285   */\n      swap2\n      pop\n        /* \"#utility.yul\":5214:5216   */\n    tag_137:\n        /* \"#utility.yul\":5342:5344   */\n      0x20\n        /* \"#utility.yul\":5334:5340   */\n      dup3\n        /* \"#utility.yul\":5331:5345   */\n      lt\n        /* \"#utility.yul\":5311:5329   */\n      dup2\n        /* \"#utility.yul\":5308:5346   */\n      eq\n        /* \"#utility.yul\":5305:5307   */\n      iszero\n      tag_138\n      jumpi\n        /* \"#utility.yul\":5361:5379   */\n      tag_139\n      tag_140\n      jump\t// in\n    tag_139:\n        /* \"#utility.yul\":5305:5307   */\n    tag_138:\n        /* \"#utility.yul\":5126:5395   */\n      pop\n      swap2\n      swap1\n      pop\n      jump\t// out\n        /* \"#utility.yul\":5401:5581   */\n    tag_140:\n        /* \"#utility.yul\":5449:5526   */\n      0x4e487b7100000000000000000000000000000000000000000000000000000000\n        /* \"#utility.yul\":5446:5447   */\n      0x00\n        /* \"#utility.yul\":5439:5527   */\n      mstore\n        /* \"#utility.yul\":5546:5550   */\n      0x22\n        /* \"#utility.yul\":5543:5544   */\n      0x04\n        /* \"#utility.yul\":5536:5551   */\n      mstore\n        /* \"#utility.yul\":5570:5574   */\n      0x24\n        /* \"#utility.yul\":5567:5568   */\n      0x00\n        /* \"#utility.yul\":5560:5575   */\n      revert\n        /* \"#utility.yul\":5587:5689   */\n    tag_96:\n        /* \"#utility.yul\":5628:5634   */\n      0x00\n        /* \"#utility.yul\":5679:5681   */\n      0x1f\n        /* \"#utility.yul\":5675:5682   */\n      not\n        /* \"#utility.yul\":5670:5672   */\n      0x1f\n        /* \"#utility.yul\":5663:5668   */\n      dup4\n        /* \"#utility.yul\":5659:5673   */\n      add\n        /* \"#utility.yul\":5655:5683   */\n      and\n        /* \"#utility.yul\":5645:5683   */\n      swap1\n      pop\n        /* \"#utility.yul\":5635:5689   */\n      swap2\n      swap1\n      pop\n      jump\t// out\n        /* \"#utility.yul\":5695:5817   */\n    tag_60:\n        /* \"#utility.yul\":5768:5792   */\n      tag_144\n        /* \"#utility.yul\":5786:5791   */\n      dup2\n        /* \"#utility.yul\":5768:5792   */\n      tag_74\n      jump\t// in\n    tag_144:\n        /* \"#utility.yul\":5761:5766   */\n      dup2\n        /* \"#utility.yul\":5758:5793   */\n      eq\n        /* \"#utility.yul\":5748:5750   */\n      tag_145\n      jumpi\n        /* \"#utility.yul\":5807:5808   */\n      0x00\n        /* \"#utility.yul\":5804:5805   */\n      dup1\n        /* \"#utility.yul\":5797:5809   */\n      revert\n        /* \"#utility.yul\":5748:5750   */\n    tag_145:\n        /* \"#utility.yul\":5738:5817   */\n      pop\n      jump\t// out\n        /* \"#utility.yul\":5823:5945   */\n    tag_64:\n        /* \"#utility.yul\":5896:5920   */\n      tag_147\n        /* \"#utility.yul\":5914:5919   */\n      dup2\n        /* \"#utility.yul\":5896:5920   */\n      tag_100\n      jump\t// in\n    tag_147:\n        /* \"#utility.yul\":5889:5894   */\n      dup2\n        /* \"#utility.yul\":5886:5921   */\n      eq\n        /* \"#utility.yul\":5876:5878   */\n      tag_148\n      jumpi\n        /* \"#utility.yul\":5935:5936   */\n      0x00\n        /* \"#utility.yul\":5932:5933   */\n      dup1\n        /* \"#utility.yul\":5925:5937   */\n      revert\n        /* \"#utility.yul\":5876:5878   */\n    tag_148:\n        /* \"#utility.yul\":5866:5945   */\n      pop\n      jump\t// out\n\n    auxdata: 0xa26469706673582212202d5cb01de0d517f775b0b40042b8fb2ed8055a276aa90998452f11b40ed6175764736f6c63430008040033\n}\n",
				"bytecode": {
					"linkReferences": {},
					"object": "60806040526040518060400160405280600981526020017f44454649204661726d0000000000000000000000000000000000000000000000815250600090805190602001906200005192919062000150565b503480156200005f57600080fd5b5060405162000a2e38038062000a2e83398181016040528101906200008591906200022e565b81600260006101000a81548173ffffffffffffffffffffffffffffffffffffffff021916908373ffffffffffffffffffffffffffffffffffffffff16021790555080600360006101000a81548173ffffffffffffffffffffffffffffffffffffffff021916908373ffffffffffffffffffffffffffffffffffffffff16021790555033600160006101000a81548173ffffffffffffffffffffffffffffffffffffffff021916908373ffffffffffffffffffffffffffffffffffffffff160217905550505062000364565b8280546200015e90620002cb565b90600052602060002090601f016020900481019282620001825760008555620001ce565b82601f106200019d57805160ff1916838001178555620001ce565b82800160010185558215620001ce579182015b82811115620001cd578251825591602001919060010190620001b0565b5b509050620001dd9190620001e1565b5090565b5b80821115620001fc576000816000905550600101620001e2565b5090565b600081519050620002118162000330565b92915050565b60008151905062000228816200034a565b92915050565b600080604083850312156200024257600080fd5b6000620002528582860162000200565b9250506020620002658582860162000217565b9150509250929050565b60006200027c82620002ab565b9050919050565b600062000290826200026f565b9050919050565b6000620002a4826200026f565b9050919050565b600073ffffffffffffffffffffffffffffffffffffffff82169050919050565b60006002820490506001821680620002e457607f821691505b60208210811415620002fb57620002fa62000301565b5b50919050565b7f4e487b7100000000000000000000000000000000000000000000000000000000600052602260045260246000fd5b6200033b8162000283565b81146200034757600080fd5b50565b620003558162000297565b81146200036157600080fd5b50565b6106ba80620003746000396000f3fe608060405234801561001057600080fd5b50600436106100885760003560e01c8063b578fa191161005b578063b578fa1914610129578063c93c8f3414610147578063ea987a1e14610177578063fd5e6dd11461019557610088565b806306fdde031461008d57806345bc78ab146100ab5780636f49712b146100db5780638da5cb5b1461010b575b600080fd5b6100956101c5565b6040516100a291906104c8565b60405180910390f35b6100c560048036038101906100c09190610386565b610253565b6040516100d291906104ea565b60405180910390f35b6100f560048036038101906100f09190610386565b61026b565b6040516101029190610477565b60405180910390f35b61011361028b565b604051610120919061045c565b60405180910390f35b6101316102b1565b60405161013e91906104ad565b60405180910390f35b610161600480360381019061015c9190610386565b6102d7565b60405161016e9190610477565b60405180910390f35b61017f6102f7565b60405161018c9190610492565b60405180910390f35b6101af60048036038101906101aa91906103af565b61031d565b6040516101bc919061045c565b60405180910390f35b600080546101d2906105e4565b80601f01602080910402602001604051908101604052809291908181526020018280546101fe906105e4565b801561024b5780601f106102205761010080835404028352916020019161024b565b820191906000526020600020905b81548152906001019060200180831161022e57829003601f168201915b505050505081565b60056020528060005260406000206000915090505481565b60076020528060005260406000206000915054906101000a900460ff1681565b600160009054906101000a900473ffffffffffffffffffffffffffffffffffffffff1681565b600360009054906101000a900473ffffffffffffffffffffffffffffffffffffffff1681565b60066020528060005260406000206000915054906101000a900460ff1681565b600260009054906101000a900473ffffffffffffffffffffffffffffffffffffffff1681565b6004818154811061032d57600080fd5b906000526020600020016000915054906101000a900473ffffffffffffffffffffffffffffffffffffffff1681565b60008135905061036b81610656565b92915050565b6000813590506103808161066d565b92915050565b60006020828403121561039857600080fd5b60006103a68482850161035c565b91505092915050565b6000602082840312156103c157600080fd5b60006103cf84828501610371565b91505092915050565b6103e181610521565b82525050565b6103f081610533565b82525050565b6103ff81610569565b82525050565b61040e8161058d565b82525050565b600061041f82610505565b6104298185610510565b93506104398185602086016105b1565b61044281610645565b840191505092915050565b6104568161055f565b82525050565b600060208201905061047160008301846103d8565b92915050565b600060208201905061048c60008301846103e7565b92915050565b60006020820190506104a760008301846103f6565b92915050565b60006020820190506104c26000830184610405565b92915050565b600060208201905081810360008301526104e28184610414565b905092915050565b60006020820190506104ff600083018461044d565b92915050565b600081519050919050565b600082825260208201905092915050565b600061052c8261053f565b9050919050565b60008115159050919050565b600073ffffffffffffffffffffffffffffffffffffffff82169050919050565b6000819050919050565b60006105748261057b565b9050919050565b60006105868261053f565b9050919050565b60006105988261059f565b9050919050565b60006105aa8261053f565b9050919050565b60005b838110156105cf5780820151818401526020810190506105b4565b838111156105de576000848401525b50505050565b600060028204905060018216806105fc57607f821691505b602082108114156106105761060f610616565b5b50919050565b7f4e487b7100000000000000000000000000000000000000000000000000000000600052602260045260246000fd5b6000601f19601f8301169050919050565b61065f81610521565b811461066a57600080fd5b50565b6106768161055f565b811461068157600080fd5b5056fea26469706673582212202d5cb01de0d517f775b0b40042b8fb2ed8055a276aa90998452f11b40ed6175764736f6c63430008040033",
					"opcodes": "PUSH1 0x80 PUSH1 0x40 MSTORE PUSH1 0x40 MLOAD DUP1 PUSH1 0x40 ADD PUSH1 0x40 MSTORE DUP1 PUSH1 0x9 DUP2 MSTORE PUSH1 0x20 ADD PUSH32 0x44454649204661726D0000000000000000000000000000000000000000000000 DUP2 MSTORE POP PUSH1 0x0 SWAP1 DUP1 MLOAD SWAP1 PUSH1 0x20 ADD SWAP1 PUSH3 0x51 SWAP3 SWAP2 SWAP1 PUSH3 0x150 JUMP JUMPDEST POP CALLVALUE DUP1 ISZERO PUSH3 0x5F JUMPI PUSH1 0x0 DUP1 REVERT JUMPDEST POP PUSH1 0x40 MLOAD PUSH3 0xA2E CODESIZE SUB DUP1 PUSH3 0xA2E DUP4 CODECOPY DUP2 DUP2 ADD PUSH1 0x40 MSTORE DUP2 ADD SWAP1 PUSH3 0x85 SWAP2 SWAP1 PUSH3 0x22E JUMP JUMPDEST DUP2 PUSH1 0x2 PUSH1 0x0 PUSH2 0x100 EXP DUP2 SLOAD DUP2 PUSH20 0xFFFFFFFFFFFFFFFFFFFFFFFFFFFFFFFFFFFFFFFF MUL NOT AND SWAP1 DUP4 PUSH20 0xFFFFFFFFFFFFFFFFFFFFFFFFFFFFFFFFFFFFFFFF AND MUL OR SWAP1 SSTORE POP DUP1 PUSH1 0x3 PUSH1 0x0 PUSH2 0x100 EXP DUP2 SLOAD DUP2 PUSH20 0xFFFFFFFFFFFFFFFFFFFFFFFFFFFFFFFFFFFFFFFF MUL NOT AND SWAP1 DUP4 PUSH20 0xFFFFFFFFFFFFFFFFFFFFFFFFFFFFFFFFFFFFFFFF AND MUL OR SWAP1 SSTORE POP CALLER PUSH1 0x1 PUSH1 0x0 PUSH2 0x100 EXP DUP2 SLOAD DUP2 PUSH20 0xFFFFFFFFFFFFFFFFFFFFFFFFFFFFFFFFFFFFFFFF MUL NOT AND SWAP1 DUP4 PUSH20 0xFFFFFFFFFFFFFFFFFFFFFFFFFFFFFFFFFFFFFFFF AND MUL OR SWAP1 SSTORE POP POP POP PUSH3 0x364 JUMP JUMPDEST DUP3 DUP1 SLOAD PUSH3 0x15E SWAP1 PUSH3 0x2CB JUMP JUMPDEST SWAP1 PUSH1 0x0 MSTORE PUSH1 0x20 PUSH1 0x0 KECCAK256 SWAP1 PUSH1 0x1F ADD PUSH1 0x20 SWAP1 DIV DUP2 ADD SWAP3 DUP3 PUSH3 0x182 JUMPI PUSH1 0x0 DUP6 SSTORE PUSH3 0x1CE JUMP JUMPDEST DUP3 PUSH1 0x1F LT PUSH3 0x19D JUMPI DUP1 MLOAD PUSH1 0xFF NOT AND DUP4 DUP1 ADD OR DUP6 SSTORE PUSH3 0x1CE JUMP JUMPDEST DUP3 DUP1 ADD PUSH1 0x1 ADD DUP6 SSTORE DUP3 ISZERO PUSH3 0x1CE JUMPI SWAP2 DUP3 ADD JUMPDEST DUP3 DUP2 GT ISZERO PUSH3 0x1CD JUMPI DUP3 MLOAD DUP3 SSTORE SWAP2 PUSH1 0x20 ADD SWAP2 SWAP1 PUSH1 0x1 ADD SWAP1 PUSH3 0x1B0 JUMP JUMPDEST JUMPDEST POP SWAP1 POP PUSH3 0x1DD SWAP2 SWAP1 PUSH3 0x1E1 JUMP JUMPDEST POP SWAP1 JUMP JUMPDEST JUMPDEST DUP1 DUP3 GT ISZERO PUSH3 0x1FC JUMPI PUSH1 0x0 DUP2 PUSH1 0x0 SWAP1 SSTORE POP PUSH1 0x1 ADD PUSH3 0x1E2 JUMP JUMPDEST POP SWAP1 JUMP JUMPDEST PUSH1 0x0 DUP2 MLOAD SWAP1 POP PUSH3 0x211 DUP2 PUSH3 0x330 JUMP JUMPDEST SWAP3 SWAP2 POP POP JUMP JUMPDEST PUSH1 0x0 DUP2 MLOAD SWAP1 POP PUSH3 0x228 DUP2 PUSH3 0x34A JUMP JUMPDEST SWAP3 SWAP2 POP POP JUMP JUMPDEST PUSH1 0x0 DUP1 PUSH1 0x40 DUP4 DUP6 SUB SLT ISZERO PUSH3 0x242 JUMPI PUSH1 0x0 DUP1 REVERT JUMPDEST PUSH1 0x0 PUSH3 0x252 DUP6 DUP3 DUP7 ADD PUSH3 0x200 JUMP JUMPDEST SWAP3 POP POP PUSH1 0x20 PUSH3 0x265 DUP6 DUP3 DUP7 ADD PUSH3 0x217 JUMP JUMPDEST SWAP2 POP POP SWAP3 POP SWAP3 SWAP1 POP JUMP JUMPDEST PUSH1 0x0 PUSH3 0x27C DUP3 PUSH3 0x2AB JUMP JUMPDEST SWAP1 POP SWAP2 SWAP1 POP JUMP JUMPDEST PUSH1 0x0 PUSH3 0x290 DUP3 PUSH3 0x26F JUMP JUMPDEST SWAP1 POP SWAP2 SWAP1 POP JUMP JUMPDEST PUSH1 0x0 PUSH3 0x2A4 DUP3 PUSH3 0x26F JUMP JUMPDEST SWAP1 POP SWAP2 SWAP1 POP JUMP JUMPDEST PUSH1 0x0 PUSH20 0xFFFFFFFFFFFFFFFFFFFFFFFFFFFFFFFFFFFFFFFF DUP3 AND SWAP1 POP SWAP2 SWAP1 POP JUMP JUMPDEST PUSH1 0x0 PUSH1 0x2 DUP3 DIV SWAP1 POP PUSH1 0x1 DUP3 AND DUP1 PUSH3 0x2E4 JUMPI PUSH1 0x7F DUP3 AND SWAP2 POP JUMPDEST PUSH1 0x20 DUP3 LT DUP2 EQ ISZERO PUSH3 0x2FB JUMPI PUSH3 0x2FA PUSH3 0x301 JUMP JUMPDEST JUMPDEST POP SWAP2 SWAP1 POP JUMP JUMPDEST PUSH32 0x4E487B7100000000000000000000000000000000000000000000000000000000 PUSH1 0x0 MSTORE PUSH1 0x22 PUSH1 0x4 MSTORE PUSH1 0x24 PUSH1 0x0 REVERT JUMPDEST PUSH3 0x33B DUP2 PUSH3 0x283 JUMP JUMPDEST DUP2 EQ PUSH3 0x347 JUMPI PUSH1 0x0 DUP1 REVERT JUMPDEST POP JUMP JUMPDEST PUSH3 0x355 DUP2 PUSH3 0x297 JUMP JUMPDEST DUP2 EQ PUSH3 0x361 JUMPI PUSH1 0x0 DUP1 REVERT JUMPDEST POP JUMP JUMPDEST PUSH2 0x6BA DUP1 PUSH3 0x374 PUSH1 0x0 CODECOPY PUSH1 0x0 RETURN INVALID PUSH1 0x80 PUSH1 0x40 MSTORE CALLVALUE DUP1 ISZERO PUSH2 0x10 JUMPI PUSH1 0x0 DUP1 REVERT JUMPDEST POP PUSH1 0x4 CALLDATASIZE LT PUSH2 0x88 JUMPI PUSH1 0x0 CALLDATALOAD PUSH1 0xE0 SHR DUP1 PUSH4 0xB578FA19 GT PUSH2 0x5B JUMPI DUP1 PUSH4 0xB578FA19 EQ PUSH2 0x129 JUMPI DUP1 PUSH4 0xC93C8F34 EQ PUSH2 0x147 JUMPI DUP1 PUSH4 0xEA987A1E EQ PUSH2 0x177 JUMPI DUP1 PUSH4 0xFD5E6DD1 EQ PUSH2 0x195 JUMPI PUSH2 0x88 JUMP JUMPDEST DUP1 PUSH4 0x6FDDE03 EQ PUSH2 0x8D JUMPI DUP1 PUSH4 0x45BC78AB EQ PUSH2 0xAB JUMPI DUP1 PUSH4 0x6F49712B EQ PUSH2 0xDB JUMPI DUP1 PUSH4 0x8DA5CB5B EQ PUSH2 0x10B JUMPI JUMPDEST PUSH1 0x0 DUP1 REVERT JUMPDEST PUSH2 0x95 PUSH2 0x1C5 JUMP JUMPDEST PUSH1 0x40 MLOAD PUSH2 0xA2 SWAP2 SWAP1 PUSH2 0x4C8 JUMP JUMPDEST PUSH1 0x40 MLOAD DUP1 SWAP2 SUB SWAP1 RETURN JUMPDEST PUSH2 0xC5 PUSH1 0x4 DUP1 CALLDATASIZE SUB DUP2 ADD SWAP1 PUSH2 0xC0 SWAP2 SWAP1 PUSH2 0x386 JUMP JUMPDEST PUSH2 0x253 JUMP JUMPDEST PUSH1 0x40 MLOAD PUSH2 0xD2 SWAP2 SWAP1 PUSH2 0x4EA JUMP JUMPDEST PUSH1 0x40 MLOAD DUP1 SWAP2 SUB SWAP1 RETURN JUMPDEST PUSH2 0xF5 PUSH1 0x4 DUP1 CALLDATASIZE SUB DUP2 ADD SWAP1 PUSH2 0xF0 SWAP2 SWAP1 PUSH2 0x386 JUMP JUMPDEST PUSH2 0x26B JUMP JUMPDEST PUSH1 0x40 MLOAD PUSH2 0x102 SWAP2 SWAP1 PUSH2 0x477 JUMP JUMPDEST PUSH1 0x40 MLOAD DUP1 SWAP2 SUB SWAP1 RETURN JUMPDEST PUSH2 0x113 PUSH2 0x28B JUMP JUMPDEST PUSH1 0x40 MLOAD PUSH2 0x120 SWAP2 SWAP1 PUSH2 0x45C JUMP JUMPDEST PUSH1 0x40 MLOAD DUP1 SWAP2 SUB SWAP1 RETURN JUMPDEST PUSH2 0x131 PUSH2 0x2B1 JUMP JUMPDEST PUSH1 0x40 MLOAD PUSH2 0x13E SWAP2 SWAP1 PUSH2 0x4AD JUMP JUMPDEST PUSH1 0x40 MLOAD DUP1 SWAP2 SUB SWAP1 RETURN JUMPDEST PUSH2 0x161 PUSH1 0x4 DUP1 CALLDATASIZE SUB DUP2 ADD SWAP1 PUSH2 0x15C SWAP2 SWAP1 PUSH2 0x386 JUMP JUMPDEST PUSH2 0x2D7 JUMP JUMPDEST PUSH1 0x40 MLOAD PUSH2 0x16E SWAP2 SWAP1 PUSH2 0x477 JUMP JUMPDEST PUSH1 0x40 MLOAD DUP1 SWAP2 SUB SWAP1 RETURN JUMPDEST PUSH2 0x17F PUSH2 0x2F7 JUMP JUMPDEST PUSH1 0x40 MLOAD PUSH2 0x18C SWAP2 SWAP1 PUSH2 0x492 JUMP JUMPDEST PUSH1 0x40 MLOAD DUP1 SWAP2 SUB SWAP1 RETURN JUMPDEST PUSH2 0x1AF PUSH1 0x4 DUP1 CALLDATASIZE SUB DUP2 ADD SWAP1 PUSH2 0x1AA SWAP2 SWAP1 PUSH2 0x3AF JUMP JUMPDEST PUSH2 0x31D JUMP JUMPDEST PUSH1 0x40 MLOAD PUSH2 0x1BC SWAP2 SWAP1 PUSH2 0x45C JUMP JUMPDEST PUSH1 0x40 MLOAD DUP1 SWAP2 SUB SWAP1 RETURN JUMPDEST PUSH1 0x0 DUP1 SLOAD PUSH2 0x1D2 SWAP1 PUSH2 0x5E4 JUMP JUMPDEST DUP1 PUSH1 0x1F ADD PUSH1 0x20 DUP1 SWAP2 DIV MUL PUSH1 0x20 ADD PUSH1 0x40 MLOAD SWAP1 DUP2 ADD PUSH1 0x40 MSTORE DUP1 SWAP3 SWAP2 SWAP1 DUP2 DUP2 MSTORE PUSH1 0x20 ADD DUP3 DUP1 SLOAD PUSH2 0x1FE SWAP1 PUSH2 0x5E4 JUMP JUMPDEST DUP1 ISZERO PUSH2 0x24B JUMPI DUP1 PUSH1 0x1F LT PUSH2 0x220 JUMPI PUSH2 0x100 DUP1 DUP4 SLOAD DIV MUL DUP4 MSTORE SWAP2 PUSH1 0x20 ADD SWAP2 PUSH2 0x24B JUMP JUMPDEST DUP3 ADD SWAP2 SWAP1 PUSH1 0x0 MSTORE PUSH1 0x20 PUSH1 0x0 KECCAK256 SWAP1 JUMPDEST DUP2 SLOAD DUP2 MSTORE SWAP1 PUSH1 0x1 ADD SWAP1 PUSH1 0x20 ADD DUP1 DUP4 GT PUSH2 0x22E JUMPI DUP3 SWAP1 SUB PUSH1 0x1F AND DUP3 ADD SWAP2 JUMPDEST POP POP POP POP POP DUP2 JUMP JUMPDEST PUSH1 0x5 PUSH1 0x20 MSTORE DUP1 PUSH1 0x0 MSTORE PUSH1 0x40 PUSH1 0x0 KECCAK256 PUSH1 0x0 SWAP2 POP SWAP1 POP SLOAD DUP2 JUMP JUMPDEST PUSH1 0x7 PUSH1 0x20 MSTORE DUP1 PUSH1 0x0 MSTORE PUSH1 0x40 PUSH1 0x0 KECCAK256 PUSH1 0x0 SWAP2 POP SLOAD SWAP1 PUSH2 0x100 EXP SWAP1 DIV PUSH1 0xFF AND DUP2 JUMP JUMPDEST PUSH1 0x1 PUSH1 0x0 SWAP1 SLOAD SWAP1 PUSH2 0x100 EXP SWAP1 DIV PUSH20 0xFFFFFFFFFFFFFFFFFFFFFFFFFFFFFFFFFFFFFFFF AND DUP2 JUMP JUMPDEST PUSH1 0x3 PUSH1 0x0 SWAP1 SLOAD SWAP1 PUSH2 0x100 EXP SWAP1 DIV PUSH20 0xFFFFFFFFFFFFFFFFFFFFFFFFFFFFFFFFFFFFFFFF AND DUP2 JUMP JUMPDEST PUSH1 0x6 PUSH1 0x20 MSTORE DUP1 PUSH1 0x0 MSTORE PUSH1 0x40 PUSH1 0x0 KECCAK256 PUSH1 0x0 SWAP2 POP SLOAD SWAP1 PUSH2 0x100 EXP SWAP1 DIV PUSH1 0xFF AND DUP2 JUMP JUMPDEST PUSH1 0x2 PUSH1 0x0 SWAP1 SLOAD SWAP1 PUSH2 0x100 EXP SWAP1 DIV PUSH20 0xFFFFFFFFFFFFFFFFFFFFFFFFFFFFFFFFFFFFFFFF AND DUP2 JUMP JUMPDEST PUSH1 0x4 DUP2 DUP2 SLOAD DUP2 LT PUSH2 0x32D JUMPI PUSH1 0x0 DUP1 REVERT JUMPDEST SWAP1 PUSH1 0x0 MSTORE PUSH1 0x20 PUSH1 0x0 KECCAK256 ADD PUSH1 0x0 SWAP2 POP SLOAD SWAP1 PUSH2 0x100 EXP SWAP1 DIV PUSH20 0xFFFFFFFFFFFFFFFFFFFFFFFFFFFFFFFFFFFFFFFF AND DUP2 JUMP JUMPDEST PUSH1 0x0 DUP2 CALLDATALOAD SWAP1 POP PUSH2 0x36B DUP2 PUSH2 0x656 JUMP JUMPDEST SWAP3 SWAP2 POP POP JUMP JUMPDEST PUSH1 0x0 DUP2 CALLDATALOAD SWAP1 POP PUSH2 0x380 DUP2 PUSH2 0x66D JUMP JUMPDEST SWAP3 SWAP2 POP POP JUMP JUMPDEST PUSH1 0x0 PUSH1 0x20 DUP3 DUP5 SUB SLT ISZERO PUSH2 0x398 JUMPI PUSH1 0x0 DUP1 REVERT JUMPDEST PUSH1 0x0 PUSH2 0x3A6 DUP5 DUP3 DUP6 ADD PUSH2 0x35C JUMP JUMPDEST SWAP2 POP POP SWAP3 SWAP2 POP POP JUMP JUMPDEST PUSH1 0x0 PUSH1 0x20 DUP3 DUP5 SUB SLT ISZERO PUSH2 0x3C1 JUMPI PUSH1 0x0 DUP1 REVERT JUMPDEST PUSH1 0x0 PUSH2 0x3CF DUP5 DUP3 DUP6 ADD PUSH2 0x371 JUMP JUMPDEST SWAP2 POP POP SWAP3 SWAP2 POP POP JUMP JUMPDEST PUSH2 0x3E1 DUP2 PUSH2 0x521 JUMP JUMPDEST DUP3 MSTORE POP POP JUMP JUMPDEST PUSH2 0x3F0 DUP2 PUSH2 0x533 JUMP JUMPDEST DUP3 MSTORE POP POP JUMP JUMPDEST PUSH2 0x3FF DUP2 PUSH2 0x569 JUMP JUMPDEST DUP3 MSTORE POP POP JUMP JUMPDEST PUSH2 0x40E DUP2 PUSH2 0x58D JUMP JUMPDEST DUP3 MSTORE POP POP JUMP JUMPDEST PUSH1 0x0 PUSH2 0x41F DUP3 PUSH2 0x505 JUMP JUMPDEST PUSH2 0x429 DUP2 DUP6 PUSH2 0x510 JUMP JUMPDEST SWAP4 POP PUSH2 0x439 DUP2 DUP6 PUSH1 0x20 DUP7 ADD PUSH2 0x5B1 JUMP JUMPDEST PUSH2 0x442 DUP2 PUSH2 0x645 JUMP JUMPDEST DUP5 ADD SWAP2 POP POP SWAP3 SWAP2 POP POP JUMP JUMPDEST PUSH2 0x456 DUP2 PUSH2 0x55F JUMP JUMPDEST DUP3 MSTORE POP POP JUMP JUMPDEST PUSH1 0x0 PUSH1 0x20 DUP3 ADD SWAP1 POP PUSH2 0x471 PUSH1 0x0 DUP4 ADD DUP5 PUSH2 0x3D8 JUMP JUMPDEST SWAP3 SWAP2 POP POP JUMP JUMPDEST PUSH1 0x0 PUSH1 0x20 DUP3 ADD SWAP1 POP PUSH2 0x48C PUSH1 0x0 DUP4 ADD DUP5 PUSH2 0x3E7 JUMP JUMPDEST SWAP3 SWAP2 POP POP JUMP JUMPDEST PUSH1 0x0 PUSH1 0x20 DUP3 ADD SWAP1 POP PUSH2 0x4A7 PUSH1 0x0 DUP4 ADD DUP5 PUSH2 0x3F6 JUMP JUMPDEST SWAP3 SWAP2 POP POP JUMP JUMPDEST PUSH1 0x0 PUSH1 0x20 DUP3 ADD SWAP1 POP PUSH2 0x4C2 PUSH1 0x0 DUP4 ADD DUP5 PUSH2 0x405 JUMP JUMPDEST SWAP3 SWAP2 POP POP JUMP JUMPDEST PUSH1 0x0 PUSH1 0x20 DUP3 ADD SWAP1 POP DUP2 DUP2 SUB PUSH1 0x0 DUP4 ADD MSTORE PUSH2 0x4E2 DUP2 DUP5 PUSH2 0x414 JUMP JUMPDEST SWAP1 POP SWAP3 SWAP2 POP POP JUMP JUMPDEST PUSH1 0x0 PUSH1 0x20 DUP3 ADD SWAP1 POP PUSH2 0x4FF PUSH1 0x0 DUP4 ADD DUP5 PUSH2 0x44D JUMP JUMPDEST SWAP3 SWAP2 POP POP JUMP JUMPDEST PUSH1 0x0 DUP2 MLOAD SWAP1 POP SWAP2 SWAP1 POP JUMP JUMPDEST PUSH1 0x0 DUP3 DUP3 MSTORE PUSH1 0x20 DUP3 ADD SWAP1 POP SWAP3 SWAP2 POP POP JUMP JUMPDEST PUSH1 0x0 PUSH2 0x52C DUP3 PUSH2 0x53F JUMP JUMPDEST SWAP1 POP SWAP2 SWAP1 POP JUMP JUMPDEST PUSH1 0x0 DUP2 ISZERO ISZERO SWAP1 POP SWAP2 SWAP1 POP JUMP JUMPDEST PUSH1 0x0 PUSH20 0xFFFFFFFFFFFFFFFFFFFFFFFFFFFFFFFFFFFFFFFF DUP3 AND SWAP1 POP SWAP2 SWAP1 POP JUMP JUMPDEST PUSH1 0x0 DUP2 SWAP1 POP SWAP2 SWAP1 POP JUMP JUMPDEST PUSH1 0x0 PUSH2 0x574 DUP3 PUSH2 0x57B JUMP JUMPDEST SWAP1 POP SWAP2 SWAP1 POP JUMP JUMPDEST PUSH1 0x0 PUSH2 0x586 DUP3 PUSH2 0x53F JUMP JUMPDEST SWAP1 POP SWAP2 SWAP1 POP JUMP JUMPDEST PUSH1 0x0 PUSH2 0x598 DUP3 PUSH2 0x59F JUMP JUMPDEST SWAP1 POP SWAP2 SWAP1 POP JUMP JUMPDEST PUSH1 0x0 PUSH2 0x5AA DUP3 PUSH2 0x53F JUMP JUMPDEST SWAP1 POP SWAP2 SWAP1 POP JUMP JUMPDEST PUSH1 0x0 JUMPDEST DUP4 DUP2 LT ISZERO PUSH2 0x5CF JUMPI DUP1 DUP3 ADD MLOAD DUP2 DUP5 ADD MSTORE PUSH1 0x20 DUP2 ADD SWAP1 POP PUSH2 0x5B4 JUMP JUMPDEST DUP4 DUP2 GT ISZERO PUSH2 0x5DE JUMPI PUSH1 0x0 DUP5 DUP5 ADD MSTORE JUMPDEST POP POP POP POP JUMP JUMPDEST PUSH1 0x0 PUSH1 0x2 DUP3 DIV SWAP1 POP PUSH1 0x1 DUP3 AND DUP1 PUSH2 0x5FC JUMPI PUSH1 0x7F DUP3 AND SWAP2 POP JUMPDEST PUSH1 0x20 DUP3 LT DUP2 EQ ISZERO PUSH2 0x610 JUMPI PUSH2 0x60F PUSH2 0x616 JUMP JUMPDEST JUMPDEST POP SWAP2 SWAP1 POP JUMP JUMPDEST PUSH32 0x4E487B7100000000000000000000000000000000000000000000000000000000 PUSH1 0x0 MSTORE PUSH1 0x22 PUSH1 0x4 MSTORE PUSH1 0x24 PUSH1 0x0 REVERT JUMPDEST PUSH1 0x0 PUSH1 0x1F NOT PUSH1 0x1F DUP4 ADD AND SWAP1 POP SWAP2 SWAP1 POP JUMP JUMPDEST PUSH2 0x65F DUP2 PUSH2 0x521 JUMP JUMPDEST DUP2 EQ PUSH2 0x66A JUMPI PUSH1 0x0 DUP1 REVERT JUMPDEST POP JUMP JUMPDEST PUSH2 0x676 DUP2 PUSH2 0x55F JUMP JUMPDEST DUP2 EQ PUSH2 0x681 JUMPI PUSH1 0x0 DUP1 REVERT JUMPDEST POP JUMP INVALID LOG2 PUSH5 0x6970667358 0x22 SLT KECCAK256 0x2D 0x5C 0xB0 SAR 0xE0 0xD5 OR 0xF7 PUSH22 0xB0B40042B8FB2ED8055A276AA90998452F11B40ED617 JUMPI PUSH5 0x736F6C6343 STOP ADDMOD DIV STOP CALLER "
				},
				"gasEstimates": {
					"creation": {
						"codeDepositCost": "344400",
						"executionCost": "infinite",
						"totalCost": "infinite"
					},
					"external": {
						"defiToken()": "1301",
						"hasStaked(address)": "1567",
						"isStaking(address)": "1590",
						"name()": "infinite",
						"owner()": "1281",
						"rewardDefiToken()": "1257",
						"stakers(uint256)": "2422",
						"stakingBalance(address)": "1537"
					}
				},
				"methodIdentifiers": {
					"defiToken()": "ea987a1e",
					"hasStaked(address)": "c93c8f34",
					"isStaking(address)": "6f49712b",
					"name()": "06fdde03",
					"owner()": "8da5cb5b",
					"rewardDefiToken()": "b578fa19",
					"stakers(uint256)": "fd5e6dd1",
					"stakingBalance(address)": "45bc78ab"
				}
			},
			"storageLayout": {
				"storage": [
					{
						"astId": 190,
						"contract": "contracts/FarmContract.sol:FarmContract",
						"label": "name",
						"offset": 0,
						"slot": "0",
						"type": "t_string_storage"
					},
					{
						"astId": 192,
						"contract": "contracts/FarmContract.sol:FarmContract",
						"label": "owner",
						"offset": 0,
						"slot": "1",
						"type": "t_address"
					},
					{
						"astId": 195,
						"contract": "contracts/FarmContract.sol:FarmContract",
						"label": "defiToken",
						"offset": 0,
						"slot": "2",
						"type": "t_contract(DefiToken)183"
					},
					{
						"astId": 198,
						"contract": "contracts/FarmContract.sol:FarmContract",
						"label": "rewardDefiToken",
						"offset": 0,
						"slot": "3",
						"type": "t_contract(RewardDEFIToken)421"
					},
					{
						"astId": 201,
						"contract": "contracts/FarmContract.sol:FarmContract",
						"label": "stakers",
						"offset": 0,
						"slot": "4",
						"type": "t_array(t_address)dyn_storage"
					},
					{
						"astId": 205,
						"contract": "contracts/FarmContract.sol:FarmContract",
						"label": "stakingBalance",
						"offset": 0,
						"slot": "5",
						"type": "t_mapping(t_address,t_uint256)"
					},
					{
						"astId": 209,
						"contract": "contracts/FarmContract.sol:FarmContract",
						"label": "hasStaked",
						"offset": 0,
						"slot": "6",
						"type": "t_mapping(t_address,t_bool)"
					},
					{
						"astId": 213,
						"contract": "contracts/FarmContract.sol:FarmContract",
						"label": "isStaking",
						"offset": 0,
						"slot": "7",
						"type": "t_mapping(t_address,t_bool)"
					}
				],
				"types": {
					"t_address": {
						"encoding": "inplace",
						"label": "address",
						"numberOfBytes": "20"
					},
					"t_array(t_address)dyn_storage": {
						"base": "t_address",
						"encoding": "dynamic_array",
						"label": "address[]",
						"numberOfBytes": "32"
					},
					"t_bool": {
						"encoding": "inplace",
						"label": "bool",
						"numberOfBytes": "1"
					},
					"t_contract(DefiToken)183": {
						"encoding": "inplace",
						"label": "contract DefiToken",
						"numberOfBytes": "20"
					},
					"t_contract(RewardDEFIToken)421": {
						"encoding": "inplace",
						"label": "contract RewardDEFIToken",
						"numberOfBytes": "20"
					},
					"t_mapping(t_address,t_bool)": {
						"encoding": "mapping",
						"key": "t_address",
						"label": "mapping(address => bool)",
						"numberOfBytes": "32",
						"value": "t_bool"
					},
					"t_mapping(t_address,t_uint256)": {
						"encoding": "mapping",
						"key": "t_address",
						"label": "mapping(address => uint256)",
						"numberOfBytes": "32",
						"value": "t_uint256"
					},
					"t_string_storage": {
						"encoding": "bytes",
						"label": "string",
						"numberOfBytes": "32"
					},
					"t_uint256": {
						"encoding": "inplace",
						"label": "uint256",
						"numberOfBytes": "32"
					}
				}
			},
			"userdoc": {
				"kind": "user",
				"methods": {},
				"version": 1
			}
		}
	}
}